:1040000000100020C14600005D72000061720000D7
:10401000BD460000657200006D720000BD460000E4
:10402000BD460000BD460000BD460000BD46000084
:104030007172000050960300BD460000BD460000AE
:10404000BD460000BD460000BD460000BD46000064
:10405000BD460000BD460000BD460000BD46000054
:10406000BD460000BD4600007593000019440000E5
:1040700025440000BD460000BD460000BD460000CE
:10408000BD460000BD460000BD460000BD46000024
:10409000BD460000BD460000BD460000BD46000014
:1040A000BD460000BD460000BD460000BD46000004
:1040B000BD460000BD460000BD4600006965010028
:1040C0000D65010009650100615D01006565010084
:1040D000116501002965010015650100A94A01006B
:1040E000A9650100BD460000BD460000BD460000B8
:1040F000BD460000DD620000BD460000BD46000078
:10410000BD460000BD460000BD460000BD460000A3
:10411000BD460000BD460000BD460000BD46000093
:10412000BD460000BD460000BD460000BD46000083
:10413000BD46000010B5054C237833B9044B13B1CC
:10414000044800E000BF0123237010BDA824002014
:1041500000000000ECC3030008B5034B1BB103498A
:10416000034800E000BF08BD00000000AC240020B0
:10417000ECC30300A3F5803A704700BF174B002B38
:1041800008BF134B9D46FFF7F5FF00218B460F46F6
:104190001348144A121A35F01AF90E4B002B00D0AE
:1041A00098470D4B002B00D09847002000210400B9
:1041B0000D000D48002802D00C4800E000BF35F08B
:1041C000A3F82000290000F015F835F089F800BFA9
:1041D00000000800000000000000000000100020A7
:1041E00094180020886E00200000000000000000ED
:1041F0001CF042BE08B505F0DAF805F0E5F804F069
:10420000D3FAFAE708B50421002001F00DF80421E3
:10421000062001F009F80821072001F005F808211F
:10422000084601F001F808211C2000F0FDFF0821DC
:10423000242000F0F9FF0821252000F0F5FF0020E0
:1042400008BD000007B501A801F084FB234A936D67
:10425000DB0313D4536B23F4FF0323F4FE4343F433
:10426000BC1343F4A0635363136B23F4704343F410
:1042700040431363136B43F4E06313639DF805300D
:10428000012B0FD19DF8043063B94FF000531B6828
:10429000134B1B68134B1B68134B1B68134B1B689A
:1042A000134B1B68134AD2F8803043F00303C2F863
:1042B000803001F021FE01F0D9FD01F03BFE01F05C
:1042C000DDFDFFF79FFF01F0BFFD02F0D3FC00F022
:1042D000B1FB03B05DF804EB04F090B900C00040FE
:1042E000004000200080002000C0002000000120CD
:1042F000004001200080004008B500F0C5FABDE88C
:10430000084000F0F7B808B501F062FD01F07EFD4D
:1043100001F08EFD13F07AF806F04AFE06F05EFE1C
:1043200006F096FEBDE8084017F0B8BB704770472E
:10433000704708B506F04AFE06F062FEBDE8084088
:1043400017F0B6BB704708B502F040F800F056F819
:10435000BDE8084002F02CBC08B504F031FD01F0C6
:10436000EBFD07F077FFBDE80840FFF7ECBF00006A
:1043700070B5114E92B035460BAC0FCD0FC495E819
:104380000700032384E8070003AD8DF8453006F1EC
:104390001C030FCB07AC85E80F0006F12C030FCBF5
:1043A00084E80F00054B214600930BAA2B460448D6
:1043B00002F0FEFA12B070BDFC950300C424002088
:1043C0002C250020831E012B0AD8012908D804229D
:1043D000094B1B69C3F340130521002001F0A4B968
:1043E0000239012907D8012805D8034B00221B698F
:1043F000C3F34013F0E7704700C0034008B5044919
:10440000044804F0AFF9BDE80840FFF7B1BF00BFB2
:10441000A410002004250020014B186802F086BB80
:104420002C250020FFF7F8BF014B1A6A18681047C7
:104430002C250020012070470120704710B502F0A4
:1044400008FC044606F086FE002808BF002403F09E
:104450006BFE002808BF0024FFF7ECFF002814BF04
:104460002046002010BD38B504F08EFA0446FFF750
:10447000DBFF04281ED002284FF0000508BF0124EE
:1044800002F0E9FB042817D0022808BF012406F037
:1044900085FE042812D0022808BF0124FFF7CCFFB4
:1044A00004280DD0022808BF0124002D18BF0024C5
:1044B000204638BD0125E3E70125E8E70125EDE7C2
:1044C0000024F5E7014B1878704700BF5025002005
:1044D00008B50CF04BF90022014B1A7008BD00BF63
:1044E00050250020FF20704708B5FFF7FBFF002094
:1044F00008BD0000014800F045BA00BF389603002F
:10450000704770477047704710B5044617F086FC37
:1045100020462FF0C1FC2046BDE8104030F010BA14
:104520002FF024BD10B5044617F030FD20462FF0C3
:104530004DFD2046BDE8104030F036BA10B50446B7
:1045400012F03AFE204617F07FFB20462FF098FE2F
:10455000204630F051FA2046BDE8104033F0C6BF87
:10456000FFF7ECBF10B5044612F03EFE204617F0F0
:1045700099FB204632F024F820462FF0B1FE204669
:1045800030F07EFA2046BDE8104033F0C9BF10B5C8
:10459000044612F029FE204617F0C2FB204632F0F6
:1045A0001FF820462FF0EAFE204630F091FA204610
:1045B000BDE8104033F0B4BF12F090BC30F0C0B88A
:1045C00010B49DF8044001945DF8044B2FF09CBF9B
:1045D000704718F047BB7047704710B49DF804400F
:1045E00001945DF8044B32F011B8704732F018B8FE
:1045F00018F0C4BA18F0D8BA2FF048BF2FF072BF25
:1046000018F0E4BA2FF0D8BF704770472FF066B8A3
:104610002FF088B830F00BB830F02CB830F03EB83E
:1046200010B49DF8044001945DF8044B31F0F9BFDB
:104630002FF0EBBF18F0ECBA18F0DCBA30F042B84B
:1046400030F00EBB30F01ABB30F039B930F048B85A
:1046500033F084BF33F0BEBF33F0CABF33F0F8BFCE
:1046600030F010B915F0C4BD7047704782B06B468A
:1046700083E8060093E8060002B018F015BE704704
:104680002DE9F0419DF818409DF81C509DF82060E0
:104690009DF824709DF82CC09DF834E09DF838807A
:1046A000CDE90867CDE90DE8CDE90645CDF82CC088
:1046B000BDE8F04115F026BD70477047FEE70000E9
:1046C00008B500F013F8064B064A07498B4201D3A0
:1046D000FFF754FD52F8040B43F8040BF6E700BF54
:1046E00098100020F4C3030094180020044B054ADE
:1046F0009A60D3F8882042F47002C3F8882070478B
:1047000000ED00E000400000014B1868704700BF5A
:10471000C4100020014B1860704700BFC410002077
:10472000084B1B6F03F00703022B04D0032B05D0AB
:10473000012B05D0FEE7044B18687047034BFBE7DD
:104740000348704700800040C4100020C8100020BB
:10475000002D310108B5FFF7E3FF054B1B6FC3F3D5
:1047600001330133B0FBF3F0024B186008BD00BF0A
:1047700000800040C01000200048704700B4C4040E
:10478000014B1868704700BFC8100020054B186027
:10479000054B1B6F03F00703032B01D1FFF7DABFB3
:1047A000704700BFC8100020008000400020704704
:1047B00000487047002D3101174B9868C0F3044042
:1047C0000C2822D8DFE800F0092121212121071738
:1047D00019211B1D1F00114870479B6803F040738F
:1047E000B3F1807F13D0B3F1007F12D00C4A002BBD
:1047F00008BF104670470B4870470B4870470B487E
:1048000070470B4870470B487047002070470A48B4
:1048100070470A48704700BF0040014A405DC6002B
:1048200000093D000024F400C0EA210180BA8C0197
:104830000048E801005A620280841E0040420F00D6
:104840004FF4004070474FF47A707047014B18687E
:10485000704700BFCC10002000230360704703683E
:104860000B6001607047000005490A68131805488D
:1048700083428CBF4FF0FF320B601046704700BF81
:10488000D01000200080012008B50422012303215C
:10489000002000F049FF002000F044FF01221B4BE4
:1048A0000521C3F844240C2000F0BEFC0C2000F0CD
:1048B0005DFB174B00F5D520D3F8F02000F2FC404B
:1048C00042F00102C3F8F020D3F8FC2042F08072DD
:1048D000C3F8FC200F4AA3F55D431A600E4B022279
:1048E000B0FBF3F00D4B01381861C3F8F0204FF422
:1048F0008072C3F804234FF06043094A0020C3F8D4
:10490000B02F084AC3F8802E08BD00BF00D0034076
:1049100000ED00E0FF030040F8590D00000004E046
:1049200055CEACC5090001004FF060420123D2F81A
:10493000001E03FA00F00843C2F8000E0020704782
:104940004FF06043D3F8802E30B5D20715D501243F
:104950000B4D8440D5F8FC2042F08072C5F8FC2055
:10496000D3F8002E2243C3F8002E53F82020002A4B
:10497000F0D003F82010002030BD1120FCE700BF6C
:1049800000ED00E0D0E90003184708B583784178CE
:10499000B3FA83F3042200785B0900F0C5FE00201F
:1049A00008BD000010B501224378017884783020DA
:1049B0009A40054B00FB01331CB942F210015A50DA
:1049C00010BD41F21001FAE700C0034010B501220A
:1049D00043780178847830209A40054B00FB0133FE
:1049E0001CB941F210015A5010BD42F21001FAE711
:1049F00000C003400122417803788A4030214B43B4
:104A000043F2100103F1804303F570335A507047AD
:104A100030230246017840785943054B5B58C34028
:104A200003F0010093780BB980F00100704700BFDC
:104A300010C00340024B1968024B18680AF01ABCF8
:104A4000D8100020D41000207047000037B5920025
:104A500004460D46019234F0BBFD431C0BD060B9F7
:104A600029462046019A34F07BFC0028044808BF00
:104A7000002003B030BD0348FBE70348F9E700BF5F
:104A800010E000F021E000F024E000F013B504464F
:104A900001A800F05FFF9DF80630012223804FF44B
:104AA000807300206380054B9B680A3303F01F036B
:104AB00002FA03F3636002B010BD00BF0080E00F94
:104AC00000F07EBE08B500F06FFE002008BD10B5F6
:104AD000044644EA010313F00303084609D1934254
:104AE00001D1002010BD54F8231040F823100133E9
:104AF000F5E72146920034F043FCF2E710B5044696
:104B000034F06EFD431C15D0B0B90C4B20469B68A9
:104B10000A3303F01F020123934023F003032344CD
:104B2000984201D1002010BD50F8042B0132F7D07B
:104B30000348F8E70348F6E70348F4E70080E00F8E
:104B40000EE000F021E000F024E000F008B500F0F5
:104B500087FD014B186008BDE82B0020014B186849
:104B600000F082BDE82B0020704700002E4B9842D9
:104B70004AD022D82D4B984240D014D82C4B984282
:104B800039D00AD82B4B984232D02B4B98422FD099
:104B90002A4B98422CD000207047294B9842FAD1DA
:104BA000284B186F7047284B98422AD0274B9842C1
:104BB000F1D1244BD3F880007047254B98422BD07D
:104BC00009D8244B984223D0234B9842E3D11D4B64
:104BD000D3F88C007047214B984221D003F5740321
:104BE00003F510539842D6D1164BD3F8980070476E
:104BF000144B986D7047134B586E7047114B586F9C
:104C00007047104B986F70470E4BD3F88400704775
:104C10000C4BD3F8880070470A4BD3F890007047CC
:104C2000084BD3F8940070470048E8010024F400D2
:104C3000C0CF6A0080841E0000093D0040420F0082
:104C4000405DC6000080E00FC0EA210180BA8C01FF
:104C5000007E560380D54302006CDC020090D00336
:104C600038B5124B0546D3F820310C4603F0070344
:104C7000013B032B17D8DFE803F0020A0E12FFF7FF
:104C800043FD042305B1286004B1237038BDFFF74C
:104C900077FD0323F6E7FFF78FFD0523F2E7FFF724
:104CA00087FD0223EEE700231846EBE70080004073
:104CB00037B50C460021124A0191D2F880210546F1
:104CC00002F00302022A0ED0032A11D0012A14D1C5
:104CD00001A8FFF7C5FF0D230DB1019A2A6004B1A9
:104CE000237003B030BDFFF767FD05230190F3E7A4
:104CF000FFF75EFD02230190EEE70B46ECE700BFF5
:104D00000080004038B5104B0546D3F840310C46C2
:104D100003F00303022B0BD0032B0DD0012B0FD17B
:104D2000FFF78EFD082305B1286004B1237038BD5C
:104D3000FFF78CFD0723F6E7FFF785FD0923F2E770
:104D400000231846EFE700BF0080004038B5104B45
:104D50000546D3F860310C4603F00303022B0BD059
:104D6000032B0DD0012B0FD1FFF76AFD082305B1EE
:104D7000286004B1237038BDFFF768FD0723F6E70C
:104D8000FFF761FD0923F2E700231846EFE700BFB4
:104D90000080004038B5134B0546D3F800320C466E
:104DA00003F00703013B032B18D8DFE803F0020AE6
:104DB0000E12FFF745FD082305B1286004B12370EA
:104DC00038BDFFF743FD0723F6E7FFF73CFD092356
:104DD000F2E7FFF7BFFC0C23800AEDE7002318463B
:104DE000EAE700BF0080004038B5134B0546D3F812
:104DF00008320C4603F00703013B032B18D8DFE809
:104E000003F0020A0E12FFF71BFD082305B128600C
:104E100004B1237038BDFFF719FD0723F6E7FFF74C
:104E200012FD0923F2E7FFF795FC0C23800AEDE75A
:104E300000231846EAE700BF0080004038B5104B59
:104E40000546D3F840320C4603F00303022B0BD087
:104E5000032B0DD0012B0FD1FFF7F2FC082305B176
:104E6000286004B1237038BDFFF7F0FC0723F6E794
:104E7000FFF7E9FC0923F2E700231846EFE700BF3C
:104E80000080004038B5104B0546D3F800310C4681
:104E900003F00303022B0BD0032B0DD0012B0FD1FA
:104EA000FFF76EFC032305B1286004B1237038BD01
:104EB000FFF7CCFC0723F6E7FFF778FC0623F2E7C1
:104EC00001230020EFE700BF0080004041F671336E
:104ED0000F4A10B5D169D36393680E4C23F4401385
:104EE000A04288BF43F4801393600B4A0B4CD2F866
:104EF0001832A04223F0020388BF43F0020301F4FA
:104F00008031C2F8183211B10022014BDA6310BDB2
:104F100000000340C017530200C0074080F0FA02AF
:104F200008B5FFF729FCBDE80840FFF7CFBF000038
:104F3000032814D005D8012805D0022809D0002064
:104F400005E00F28FBD1084B186FC0F3013001308A
:104F50007047054BD3F89000C0F30460F7E7024BAD
:104F6000186FC0F38020F2E7008000401FB50023D7
:104F70000293252817D8DFE800F0131A1D262B35D9
:104F80003A51565B60656A78161A3F1616561A260D
:104F90002B26351A5126783A3A3A3A2626265B606D
:104FA000FFF7BEFB0290029805B05DF804FBFFF727
:104FB000D1FBF7E7FFF7B4FB02460220FFF7B8FF8B
:104FC000B2FBF0F0EEE7FFF7C5FB02460320F5E782
:104FD000FFF7C0FB02460320FFF7AAFFB2FBF0F089
:104FE0004008DFE7002102A8FFF762FEDBE70021AF
:104FF00002A8FFF735FED6E703934FF0E0231B69C5
:105000005B0705D5FFF7A6FB0390039B0293CAE756
:105010000DF1070103A8FFF775FEF6E7002102A8CE
:10502000FFF770FEBFE7002102A8FFF78FFEBAE787
:10503000002102A8FFF7AEFEB5E7002102A8FFF7A6
:10504000D3FEB0E7002102A8FFF71CFFABE7094B36
:10505000D3F8803003F00303022BA8D0032B01D038
:1050600000209FE7FFF7A8FB9CE7002102A8FFF7BD
:10507000E5FE98E70080004008B50120FFF776FFC5
:10508000BDE80840034988428CBF0221012103206A
:1050900000F002B880F0FA02032810B50C4626D0C2
:1050A00004D8012804D0022816D010BD0F28FCD146
:1050B000FFF736FF00F026F8114B013C196F21F481
:1050C000405141EA04341C67FFF744FBFFF7FEFE42
:1050D000BDE81040FFF7D0BF094B013CD3F890105A
:1050E00021F0F85141EA0464C3F89040DDE7044B35
:1050F000013C196F21F4806141EA84241C67D4E7E4
:105100000080004002210320FFF7C6BF002307B53F
:105110008DF80230252822D8DFE800F01321212164
:10512000212C324C52585E646A7D21213821215253
:10513000212121212C214C217D3232323221212189
:10514000585E384B1B6F03F00703013B032B06D857
:10515000DFE803F00E020A0C04238DF802309DF8FC
:10516000020003B05DF804FB0323F6E70623F4E72F
:105170000223F2E700200DF10201FFF799FDEEE7AF
:1051800000200DF10201FFF76BFDE8E701934FF0FE
:10519000E0231B695B0707D5FFF7DCFA0B238DF8CB
:1051A00003309DF80330D8E70DF1030101A8FFF7A4
:1051B000A9FDF6E700200DF10201FFF7A3FDCEE700
:1051C00000200DF10201FFF7C1FDC8E700200DF13D
:1051D0000201FFF7DFFDC2E700200DF10201FFF73A
:1051E00003FEBCE700200DF10201FFF74BFEB6E71E
:1051F0000C4BD3F8803003F00303022B03D0032BB6
:1052000005D00023A9E7FFF7A5FA0B23A5E7FFF7D1
:10521000D3FA0523A1E700200DF10201FFF70EFEEE
:105220009DE700BF0080004070B50C46252847D898
:10523000DFE810F0260046004600460046005A000F
:105240006B009C00AD00BE00CF00E000F100020149
:10525000460046007C0046004600AD004600460081
:10526000460046005A0046009C00460002016B00C2
:105270006B006B006B00460046004600BE00CF008E
:105280008B1E042B2DD8DFE803F0291C032C2600ED
:1052900000250226FFF744FEFFF734FF6F4A136F25
:1052A00023F0070333431367FFF754FAFFF70EFEAB
:1052B000FFF7E2FE25B9032C02D10122684B9A6266
:1052C00070BD0122674B03269D6A03F58053C5F329
:1052D00040059A62DEE700250426DBE7002501266B
:1052E000D8E700252E46D5E78C1EE4B20B2C8CBFE8
:1052F00000215D4B594A98BF195DD2F8803123F0E7
:1053000003030B43C2F88031DAE78C1EE4B2032CAE
:105310008CBF0021554B514A98BF195DD2F82031FE
:1053200023F007030B43C2F82031C9E70B2912D041
:105330000ED8CC1F022CC3D84D4A536A43F0010348
:1053400053624FF0E022136923F004031361B7E7BF
:105350000E29B5D1F0E7464A536A23F001035362A0
:105360004FF0E022136943F00403EFE7CC1FE4B2EF
:10537000022C8CBF00213F4B384A98BF195DD2F8F0
:10538000403123F003030B43C2F8403198E7CC1FB0
:10539000E4B2022C8CBF0021374B304A98BF195D14
:1053A000D2F8603123F003030B43C2F8603187E782
:1053B000CC1FE4B2052C8CBF0021304B274A98BF8C
:1053C000195DD2F8003223F007030B43C2F8003214
:1053D00076E7CC1FE4B2052C8CBF0021284B1F4A76
:1053E00098BF195DD2F8083223F007030B43C2F8C7
:1053F000083265E7CC1EE4B2042C8CBF0021214B9F
:10540000164A98BF195DD2F8003123F003030B430D
:10541000C2F8003154E705290CD00B2914BF002134
:1054200002210E4AD2F8803023F003030B43C2F866
:10543000803045E70321F4E7CC1FE4B2022C8CBF97
:105440000021114B054A98BF195DD2F8403223F074
:1054500003030B43C2F8403232E700BF0080004034
:1054600000E0004000C00040B4960300C096030076
:1054700000C00740C4960300C4960300C79603000B
:10548000C7960300CD960300C496030038B50546C1
:10549000FFF76CFB204B04465A68012A04D11F49D0
:1054A0004A609A699207FCD10020FFF72FFE04287A
:1054B00003D1FFF735FDFFF725FE194A24F04073AD
:1054C000954220D0174A954220D0174AD16811F052
:1054D000060FFBD190689360916803F4F81301F410
:1054E000F8118B4215D12846FFF714F90020FFF779
:1054F0000DFE04280FD1FFF72DF9FFF7E7FCBDE8FB
:105500003840FFF7B9BD43F00073DEE743F0807326
:10551000DBE79060EAE738BD00C0014000E00140F1
:1055200040420F0080841E000000014070B5044618
:105530000020FFF7EBFD032877D045F60E0302228B
:105540003F49C1F880303F4B9A62012203F58053F6
:105550009A628A6D12F48032FBD1637820781B0541
:1055600043EA0063A079257C0343E078667C43EA44
:105570000043207943EA0033607943EA80130B61EA
:105580008B69E07A03F000430343E07943EA8063E8
:10559000207A43EA0063607A43EA0043A07A43EA50
:1055A00000238B61637B096A002B18BF0822207BD4
:1055B00021F00D0143EA010343EA800342EA0302BA
:1055C0001F49A37B0A624FEA43132FD1886AE27B0B
:1055D00020F0330043EA0213034343F001038B62DC
:1055E000194B8A6D33EA0202FBD10222154B9A62F3
:1055F0008B6D5B00FCD44FF000420869A37820F467
:10560000700040EA03500F4B08619A611DB90222F5
:1056100003F580539A6216B901220C4B9A62A37C5F
:105620001BB1074B0A4AC3F8802070BD8A6A22F07A
:1056300033023243134343EA45038B62EFE700BF73
:1056400000C0004000D000400300014000E00040E6
:10565000F1A7FFFF014B93F9000070479C2C00203D
:10566000EFF3108072B6704700B962B6704730230E
:1056700083F311887047002383F311887047EFF399
:105680001180302383F31188704780F311887047AD
:10569000704770470A4A10B51369044643F0040383
:1056A000136103F009FAFFF7F3FF30BFFFF7F1FFD3
:1056B00003F016FA1CB9BDE81040FFF74BB810BD57
:1056C00000ED00E0084A10B51369044643F00403F6
:1056D000136103F0F1F930BF03F002FA1CB9BDE821
:1056E0001040FFF737B810BD00ED00E0704770477D
:1056F0004FF04022D36E017923F030030B43D36681
:10570000704770B5054614460E46FFF7A9FF296895
:1057100081EA040202EA06044C402C60BDE87040B5
:10572000FFF7A2BF70470000F8B504460D461F46BC
:1057300016464AB101238B403021184A01FB002252
:10574000F7B141F2100153503023072D4FF00F01F4
:1057500004FB03F317D8A80006FA00F281401048B2
:105760001844FFF7CEFF56B9012130230B4801FA48
:1057700005F503FB040077B141F21003C550F8BDF5
:1057800042F21001DFE7A5F10800800006FA00F2FE
:1057900081400448E4E742F21003EFE700C0034011
:1057A00004C003400CC0034041F67132034BDA637E
:1057B000012203F50053DA60704700BF0000034088
:1057C00041F671320121044BDA6303F50052D160D6
:1057D0000022DA63704700BF000003404FF400323C
:1057E000014B1A67704700BF005000404FF0402344
:1057F000D3F8940070474FF090435A6812B19A6AF8
:10580000002AFAD170470000CB784A7810B55B01C6
:105810000C7843EA82030A79234343EA02130C22F9
:10582000424302F190421363012C02BF8A78024B7B
:1058300043F8202010BD00BFD080034008B54FF0D2
:1058400090435A6802B960B15B680BB1FFF7D3FFB0
:105850004FF0904130B10120074B5860FFF7CBFF6C
:10586000C86008BDFFF7C7FF0223CB60FFF7C3FF87
:105870000122024B5A60F4E7001000480020004863
:105880004FF090435B6870B50BB1FFF7B4FF012197
:10589000104B4578596083780679002BC37814BF84
:1058A00002240024002B14BF042200224379DB00D1
:1058B00043EA06132B43234313434FF09042936074
:1058C000054B59600378002B14BF0B460223D360AD
:1058D00070BD00BF0020004800100048436813B9A5
:1058E000416070475B685A68012AFBD15960704774
:1058F000836813B9816070475B685A68012AFBD1DD
:1059000059607047C369032B9FBF00EB83020133CB
:10591000D160C3617047C369042B15D84FF098421A
:10592000116CC902FCD504339B0013650168103B60
:10593000116041680C30116050F8041C0344116080
:105940004FF09842984200D1704750F8041B116004
:10595000F8E70000054B5B69C3F38512827003F022
:105960003F021B0B42700370704700BF00C007402E
:105970000D4B984208D1A3F50033C3F88411C36DD1
:1059800043F08003C3657047084B984204D1A3F5E8
:105990001033C3F89411F2E7054B984204BFA3F506
:1059A0002033C3F8A411EAE70080054000C0054099
:1059B0000000064070B5054616461C4619B903207E
:1059C000FFF7D4FA0146402C1BD003D8DCB1202CC1
:1059D0001BD070BD602CFCD1042303FB06F25608DB
:1059E00006EB4113B3FBF2F3094A203B02EAC3037F
:1059F000AA6822F06002AA60AA681443AC60EB6156
:105A0000E7E70623E9E71023E7E70823E5E700BF18
:105A1000F8FF7F00012200F580535A60CB4393408A
:105A200003F00A034361416111B900F5005042607F
:105A300070470000012200F5805310B55A6040F60F
:105A4000AA6341F205024361002312498360C365E2
:105A5000C26000F500520361C361C36491640E49E2
:105A60008365884206D00D4CA04203D004F58044E3
:105A7000A0420BD18842036506D0084B984203D060
:105A800003F58043984201D100234365012353600D
:105A900010BD00BFFFFF01000080054000C00540B1
:105AA00070B50D46FFF7C6FF012300F58056736001
:105AB000AB7C04461BB1836843F080438360EB7C7E
:105AC0001BB12046297DFFF753FF2A8A6B7B2046B6
:105AD0001343EA891343E3602B7BD5E90112FFF7F7
:105AE00069FF6B7D1BB1A36843F48033A360AB7D7A
:105AF0001BB1A36843F40043A360EB7D2A7E1B0720
:105B0000120502F4E00203F0E0431343A3656A7E4A
:105B1000931E012B214B20D89C421AD003F58043C1
:105B20009C4218D003F580439C420CBF02234FF0E7
:105B3000FF3341F2AC5102205B0103F1804303F5D6
:105B400070335850032A23D10423F3652B78636103
:105B500070BD0023EDE70123EBE79C4214D0104B0E
:105B60009C4213D003F580439C420CBF02234FF0AC
:105B7000FF3342F2AC5102205B0103F1804303F595
:105B800070335850012ADEE70023F2E70123F0E7E3
:105B9000042204F50053DA65D8E700BF0080054011
:105BA00000C0054083691B06FCD5406AC0B270473F
:105BB00083695B06FCD5C1637047436810B5DA079B
:105BC00004460AD5FFF75BFD636ADB075CBF012370
:105BD000E360BDE81040FFF758BD10BD00207047DE
:105BE0000F2070470F207047002070470F2070472C
:105BF000002070470F207047002070470F2070472B
:105C0000002814BF0F20002070470020704700209C
:105C10007047000038B50446054D0AF09EFC0FCCD5
:105C20000FC594E80F0085E80F00002038BD00BFC5
:105C3000A02C002047F6FF739A42F0B563D00329E9
:105C400063D8334BCF0003EBC10013F831108478D5
:105C5000012913D10025C3781B1B9D4202D3E018F4
:105C6000C0B2F0BD591B4668A3EB510136F9116073
:105C70009642D4BF0D4601F1FF33EEE7406800289D
:105C8000EFD0B0F90010914204DBB0F9021091425C
:105C9000B8BF114682883B44FF2A19BFC822282674
:105CA000B0F90620B0F90860A2EB01020CBF012593
:105CB000002592FBF6F25F782A447B1E934228BFB0
:105CC00013464FF47A7E00EBC305AE68EA88AC4613
:105CD00011FB02621E4622EAE272013302F5FA72F9
:105CE0009F42B2FBFEF204D9BCF80CC008359445C3
:105CF000EBD200EBC6008088904228BF1046A0423D
:105D000038BF2046ACE7FF20ABE70020A9E700BF83
:105D1000A02C00200329F0B553D82B4800EBC10478
:105D200010F83110636801290FD1E078A47890420F
:105D300094BFC4EB0001C4EB0201001BCAB2824253
:105D4000C8BF002233F91200F0BD002B39D0A17872
:105D5000914202D3B3F90200F6E7E178B3F900000B
:105D60009142F1D999886478A1F1FF06013C714212
:105D700003F10405E4B2714103F10C071FFA82FC40
:105D8000CEB2B44216D805EBC1014FF47A756A431E
:105D9000B1F902404968521A04EBD47102EB610276
:105DA00092FBF4F29042CFDBB3F902009042CBDCDD
:105DB00010B2C9E737F831E04E1CE645E3D331466F
:105DC000DEE70248C0E700BFA02C00200080FFFFF4
:105DD00008B50448FFF71EFFBDE8084001200AF09F
:105DE000F9BB00BF28A0030000207047002814BFA3
:105DF0000F200020704701207047012070470128C4
:105E000014BF0F20002070470F2070477FB5142269
:105E1000002101A833F0DBFA044B01A94FF0FF3059
:105E200002930AF02BFC07B05DF804FB006A18002F
:105E3000002307B54FF0FF306946CDE900330AF083
:105E400045FB03B05DF804FB4FF0402213B500247E
:105E5000536F684643F00103536700948DF8044084
:105E6000FFF746FC204602B010BD000008B502480E
:105E7000FFF70CFB002008BD00B4C40470B586B069
:105E800001AA1546184B03F1100614461868596804
:105E9000083303C4B3422246F7D119889B78218086
:105EA000A370124BD3F84C21120314D4D3F85041F1
:105EB000E4B28DF80E40FFF7CDFB204480F30800DC
:105EC0008DF80D000A48FEF761FC2846FFF72EFB0F
:105ED000002006B070BD074B1C884FF6FF739C4234
:105EE00008BF8C24E5E700BFD29603000080E00FD6
:105EF00000F049020001E00F6FF00402502110B5DC
:105F00000A480B4C12F0800FD3B21BBF03F00F03F3
:105F1000043BA3181B1802F101020CBF83F8001305
:105F200019763D2AEED1002010BD00BF00ED00E043
:105F300000E100E000F07AB838B502F041FF044615
:105F4000E0B903F057F84FF4167343430C4803F5D8
:105F5000742303F23F23B3FBF0F30A4A0A491360A8
:105F60000A220D680948013A12F0FF0240F8043B8A
:105F7000F9D103EBC3022B4413440B60204638BD18
:105F800040420F00FC2C0020C82C0020CC2C00200C
:105F900070470000012208B5034B1A7003F004F8A3
:105FA000024B186008BD00BFC42C0020F82C002054
:105FB000F8B5144C237823B302F0F6FF124B134DBF
:105FC0001B68134EC01A012838BF0120114B124F15
:105FD00018602B7856F8232046F82300111A3A68E7
:105FE0000E48521A0A213A600932B2FBF1F201332B
:105FF000DBB20260B3FBF1F201FB12332B70002322
:106000002370F8BDC42C0020F82C0020F42C0020B4
:10601000CC2C0020C02C0020C82C0020FC2C002000
:10602000014B1868704700BFFC2C00202023094951
:10603000094A81F82D33094B03F500504267026786
:106040004FF4005003F58053C1F8840148605A674B
:10605000704700BF00E100E0010000A000C0004068
:10606000054B064A1B78916DC90700D513B100286E
:10607000F9D1704701207047142D002000C0004066
:106080002DE9F843874B1E6F9D6A9C6AF00705F067
:10609000020504F001044CD501278349834A91F895
:1060A0000090DFF828821767B9F1000F00F0ED804B
:1060B0000020087098F80010B94200F2E180022137
:1060C0009762A2F5805291629A6DD103FCD478490F
:1060D0005A6B096822F470620A435A637548764A1B
:1060E00099690068126821F47F01024321F47F411D
:1060F0000A439A617148724A19691268006821F46A
:106100007F6121F00F0102430A431A616D499A69C8
:10611000096822F0FF020A439A610223002D40F031
:10612000AB80624A93620123002C00F0A780664A8C
:10613000936216F000527FD04FF0010E5B4F63491F
:106140003A67594A574B82F800E00A78DFF864C191
:1061500072440A705A6B564902F47060086098697C
:10616000554900F47F4008609969DFF8588101F4CF
:106170007F01CCF80010D3F818C05FFA8CFCC8F887
:1061800000C0D3F810C0DFF838810CF47C6CC8F87C
:1061900000C0D3F810C0DFF824810CF03F0CC8F821
:1061A00000C0C7F828E04FF0020EDFF81CC1CCF8A1
:1061B00028E04FF0004ECCF828E0D3F858C01CF48B
:1061C000803FFAD14FF0004C22F4706242F400722A
:1061D000B0F5C84FC7F828C05A6302D8B1F5C80F48
:1061E0000CD9304A3A499369096823F47F0323F4B0
:1061F0007F4343EA012343EA01439361294A354936
:106200001369096823F47F6323F00F03880843EAC6
:10621000910343EA80131361936923F0FF030B4357
:1062200093610223002D37D102F5005293620123BE
:10623000002C33D0244A9362002E1BDA4FF0004228
:106240001A4B18491A67244A12789AB101229A62A5
:106250000222A3F580539A628A6DD203FCD44FF0D8
:1062600000429A61022205B9104B9A620123BCB127
:10627000154A9362BDE8F883134A53E70B4A57E780
:10628000FFF786FE144B1F7053E7FFF791FE02F0F5
:106290008BFB88F800904CE70B4AC7E7034ACAE734
:1062A000024AE6E700C00040142D002000E0004054
:1062B000182D0020102D00200C2D0020082D00206E
:1062C000042D0020002D002000D00040152D0020BE
:1062D000FC100020F8100020162D0020FFF7D0BE83
:1062E00010B50446FFF7BCF9024B1C60FFF7BCF980
:1062F000002010BD1C2D002010B5FFF7B1F9034B95
:106300001C68FFF7B1F9204610BD00BF1C2D00200E
:1063100007B530B9CDE90012FFF7EEFFDDE9001255
:1063200030B1436823B1006803B05DF804EB18474F
:10633000232003B05DF804FB30B51C4685B058B986
:10634000CDE90012FFF7D8FFDDE9001204B903AC74
:1063500020B9232005B030BD03B903AC8568002DFA
:10636000F7D023460068A847F4E707B501228DF867
:1063700007100DF10701FFF7CBFF03B05DF804FB39
:106380000B4601461846FFF7F0BF00230122FFF736
:10639000D3BF00000EB40FB505AB53F8042B039325
:1063A00018B90192FFF7A8FF019A0146039B06481E
:1063B00007F064FA0028D4BF3720002004B05DF84D
:1063C00004EB03B0704700BF8163000010B50024E8
:1063D00000F028F80348044B84604360FFF780FF17
:1063E000204610BD242D0020ED63000007B5044BAE
:1063F0000093044B1B8800F02BF803B05DF804FBFE
:10640000202D002000110020014B18800020704733
:10641000001100204FF06042D2F8803E1B02FBD4F6
:106420007047000008B5074B1A6842B901220820DE
:106430001A60FEF779FA0449044802F093F9002043
:1064400008BD00BF382D002018110020302D00207D
:106450002DE9F0470F4615461E46002402F10408B8
:1064600002F109094FEA132A5FFA88F84C4502D372
:106470000020BDE8F0871CB3012C05D1414608205F
:10648000FEF75EFA0134F1E7022C1BD0032C01D198
:10649000F1B2F4E7042C17D0052C04D1089B13F8B3
:1064A000011B0893EBE7AB1DA3420FD0EB1DA342EA
:1064B0000CD005F10803A3420AD0BB1F195DDEE72B
:1064C0005B21DCE7D121DAE75146D8E75A21D6E74C
:1064D0005D21D4E790F82A3001223BB190F82E30AC
:1064E000022B03D180F82E20184670471346FBE795
:1064F00080F82410704790F82400704790F82B0023
:1065000070470000002809DB0122430900F01F004A
:1065100002FA00F0024A603342F82300704700BFDD
:1065200000E100E0F8B504460D4690F82B3081B14B
:1065300073B990F82C60FFF793F8054601213046B7
:1065400002F08CF82846FFF78FF8012384F82B30EF
:10655000F8BD002BFCD090F82C70FFF781F80646B0
:106560002946384602F07AF83046FFF77DF884F87D
:106570002B50EDE770B504460568FFF7BDFE844279
:1065800002D10020FFF7ACFE95F92800FFF7BAFF13
:1065900095F92830002B0DDB01215A0903F01F0368
:1065A00001FA03F31449203241F82230BFF34F8F30
:1065B000BFF36F8F95F92900FFF7A4FF95F92930F4
:1065C000002B0DDB01215A0903F01F0301FA03F32D
:1065D0000949203241F82230BFF34F8FBFF36F8F4C
:1065E00000232846C4E90033C4E90433A360EB6800
:1065F000BDE87040184700BF00E100E02DE9F0471A
:10660000044616460D4690F82480FFF738F894F8B3
:106610002A2003469AB1FFF738F894F82D90FFF737
:106620001FF807460121484602F018F83846FFF7E0
:106630001BF8FFF724F80022034684F82A201846A6
:10664000FFF723F82E44B8F1000F23D1AE4205D155
:10665000204663680121BDE8F047184794F82630CA
:10666000002BF3D02046236815F8011B984700281B
:10667000ECD0BDE8F08794F826305BB12B780A2B7C
:1066800003D10D212046236898472046236815F83A
:10669000011B9847AE42EED1DAE72DE9F7434FF000
:1066A0000009044690461E46C3F800904F1E33680A
:1066B000434505D2FEF7E3FFA269C2B9FEF7E5FF45
:1066C00094F827305BB91123012220460DF1070110
:1066D0008DF80730FFF792FF012384F827303368E5
:1066E000002B0CBF1B20002003B0BDE8F083E16944
:1066F00022698A5C07F8012F2569226A01359542D3
:1067000008BF4D46A2692561013AA261FEF7BDFFAF
:10671000A36820469847336801333360C7E708B55C
:10672000FFF76CFF002008BDF8B51F46536806460A
:106730000C461546002B6BD09368002B6AD0302294
:106740000021204632F043FE6B682046E361AB68CF
:1067500023622B7B84F82430AB7B276084F82530C0
:1067600040F201130127E384069B6360079BA3604B
:10677000089BE3602B7884F828306B7884F8293004
:10678000254B34607360254BB360254B3361254B3B
:106790007361254BF360254B3362254B84F82E70D3
:1067A000B361244BF3619DF8283084F82D309DF8B7
:1067B000243084F82A7084F82C300023697B84F814
:1067C0002B30FFF7AFFE95F90100FFF79BFE95F91F
:1067D0000130002B06DB5A0903F01F039F40164BC4
:1067E00043F8227095F90000FFF78CFE95F9003010
:1067F000002B08DB0122590903F01F0302FA03F3FF
:106800000D4A42F821303046FFF76AFD0020F8BDFE
:106810002220FCE72120FAE71F6700009B660000AA
:10682000F1640000F764000075650000D5640000A5
:1068300025650000FD64000000E100E010B504469D
:10684000FEF71DFFA269236A9A4203D2FEF71DFFDD
:10685000012010BDFEF719FF0020FAE737B5044606
:106860000D46FEF70CFF94F8253002466BB1132D50
:1068700007D1002384F8263003B0BDE83040FEF78E
:1068800004BF112D01D10123F4E76369E1691046CA
:10689000CD54A16963690131A161216A01338B4241
:1068A000636104BF00236361FEF7EFFE0423A26966
:1068B00084F82E30236A9A420BD1132301222046FA
:1068C0000DF107018DF80730FFF798FE002384F8DB
:1068D000273003B030BD90F82A3073B5044603F07A
:1068E000FF01A3B9436801919847012384F82A3036
:1068F00094F82D60FEF7B4FE05460199304601F08C
:10690000ADFE2846FEF7B0FE022384F82E3002B01A
:1069100070BD026BD36C43F00403D364704710B5B1
:106920000446026B93695906FCD5002394F836108F
:106930001A4694F83500FEF7F7FE002394F8381055
:106940001A4694F83700FEF7EFFE94F83D30DA0768
:1069500007D5002394F83A101A4694F83900FEF748
:10696000E3FE94F83D309B0707D5002394F83C10D4
:106970001A4694F83B00FEF7D7FE206B0021FFF784
:1069800049F8002010BD08B5006BFFF711F9002091
:1069900008BD036BDA6C19B142F00102DA6470478A
:1069A00022F00102DA64012203F500539A64704771
:1069B0002DE9F0414FF001081C46574B86B0029379
:1069C000564B0C9D0193564B174600930A46CDE952
:1069D00003882946534BFFF7A7FE0646002875D1CA
:1069E000236804222B63237985F83430A17985F854
:1069F0003610607985F83500237A85F83830E379E8
:106A000085F83730A37A85F83A30637A85F83930DB
:106A1000237B85F83C30E37A85F83B304346FEF72C
:106A200083FE43460222217AE079FEF77DFE3E7026
:106A300039462068FFF734F81421627B3A4B03EBA8
:106A40004210C0F8AC1594F806C061792E3203EB01
:106A5000421341EA0C415960227AE37943EA024346
:106A6000C0F8BC3585F83D607B7E032B52D8DFE84B
:106A700003F01F02314C0123002785F83D3000232D
:106A80000222A17A607AFEF74FFEA17A627A637BD6
:106A900042EA014241F2B4515B0103F1804303F544
:106AA00070335A500422236803F58053DA65A7B97E
:106AB0006379052185F83530A37985F8363020686B
:106AC000C36C43F00403C364FEF7A4FF304606B072
:106AD000BDE8F081022385F83D3000230422217BAC
:106AE000E07AFEF721FE41F2AC520221637B5B01AA
:106AF00003F1804303F570339950217BE27A42EA37
:106B0000014241F2B8515A50D2E70323012785F8D8
:106B10003D30B4E72326D9E71F6900001369000060
:106B2000936900008769000000C00340036B10B543
:106B30009B690446190609D5FFF780FEB0B1206BAA
:106B4000FFF730F801462046FFF788FE236B9A6C6A
:106B5000D20711D5012103F5005291649B699B0670
:106B60000AD52046BDE81040FFF7B5BE226BD36CB6
:106B700023F00403D364E9E710BD000010B51C4600
:106B8000044B186806F0FEFE002820600CBF1B2096
:106B9000002010BD2011002007B5044B00931123E5
:106BA000FFF756FC03B05DF804FB00BF5C2D00202E
:106BB00010B5FFF737FC0F4C206006F023FF2022B2
:106BC0000D4901230D4806F0EBFE0D4B18600D4BEF
:106BD000204663600C4BA360FFF782FBFEF740FD8D
:106BE00001210446084601F039FD2046FEF73CFD30
:106BF000002010BD602D00203C2D0020EB960300EE
:106C000020110020996B00007D6B000007B502F099
:106C1000D7F96A4602F03AFA18B14E21034800F05B
:106C20001BFADDE9000103B05DF804FB01970300E6
:106C300008B5FFF7EBFF80B208BD08B5FFF7E6FF28
:106C400008BD08B5FFF7F9FFFA23B0FBF3F080B2F7
:106C500008BD0120704704207047000008B502F00D
:106C6000AFF818B17621024800F0F6F9002008BD0F
:106C70000197030008B500F04BF90D4A536A43F43D
:106C800070235362EFF308834FF0CD31094A043B80
:106C900093420AD24FF0402302221A67FFF7DEFF29
:106CA000BDE808400448FEF7B5BF43F80419EFE714
:106CB00000ED00E00000002028A003000148FEF7DE
:106CC0007CBF00BF0080014A40F2016000F0A6B91D
:106CD0007047704708B510B1FFF7FAFF08BDFFF71E
:106CE000F8FFFBE7704770477047032000F051BB87
:106CF0000120704707B5042200200DEB020109F0C6
:106D0000A7F8042804D04FF4E671044800F0A4F971
:106D1000019800F0E7FA03B05DF804FB0197030067
:106D2000102870B522D00DD8032801D9002070BDDD
:106D3000013802281AD8DFE800F002172F000023DC
:106D4000022215E02038C3B2032BEFD80328EDD878
:106D500001A353F820F000BF3F6D0000696D0000F3
:106D6000996D0000956D00000123E9E700230322DF
:106D70000B490C4D0C680021C8B28442D6D955F895
:106D8000200028B1067A964202D1467A9E42CED0A1
:106D90000131F1E70323D3E702231A46E8E700BFF6
:106DA000F09503009810002007B50191FFF7B8FF98
:106DB000019918B9012003B05DF804FB00680028B0
:106DC000F8D0FFF7E2FA0028F5D01B28F2D12620F0
:106DD000F1E707B50191FFF7A3FF50B1006840B19B
:106DE0000199FFF7C2FA003818BF012003B05DF81F
:106DF00004FB0120FAE7000010B5FFF791FF0446FD
:106E000030B1037A022B03D103680BB11B6823B99D
:106E10004FF42671064800F01FF923681B681B6BAE
:106E2000986900F44830A0F500535842584110BD0D
:106E30000197030010B5022104460020FEF7F4F983
:106E4000184B9A6A22F001029A629A6A42F0020290
:106E50009A629A6D5100FCD49A6DD20312D49A6949
:106E600022F47F429A619969220292B20A439A619E
:106E70009A69240422F47F029A619A6904F47F04D7
:106E800014439C61074B0321BDE810409A6A00201F
:106E900022F002029A629A6A42F001029A62FEF7B6
:106EA000C3B900BF00C00040024B9869C0F307207F
:106EB000704700BF00C0004008B500239B6A9B6973
:106EC000DB0205D5012803D840F2022000F0A6F825
:106ED000012008BD00239B6A9868C0F30343C0F3F8
:106EE00003621B0243EA0233C0B21843704749BA37
:106EF00089B24840C0F303134340180380B258409E
:106F00005B0103F4FF535840704742DE70470000B6
:106F100010B5FEF76BFC0446FEF760FC0022012171
:106F200001FA02F3234018D0204B214933F81230E4
:106F3000062B18D040F20722934211D14FF0005295
:106F40004FF20F00548884420AD11088984207D12A
:106F50004CF23C335380088010BD0132102ADFD13F
:106F6000134A138012E04FF000534FF20F0258887B
:106F7000904218D11B88B3F5406F28BF4FF4C0630F
:106F80000B804CF23C324FF000535A80084B1A8869
:106F900040F201739A4201BF064B074AD2E9000151
:106FA000C3E90001D8E74FF4C063E9E77297030033
:106FB000742D00206C2D002090100020164B1B8893
:106FC0001A0A13F0FF03104604D1012A22D140F01F
:106FD00080007047072AFAD801A353F822F000BFB7
:106FE00017700000CF6F00000170000005700000F6
:106FF00005700000097000000D70000011700000A5
:107000000920704702207047032070470B2070470B
:107010000620704718467047742D002010B50446AE
:10702000FEF725FB4FF000534FF20F021C805A80F1
:10703000BFF35F8FBFF34F8F0549064BCA6802F459
:10704000E0621343CB60BFF34F8F00BFFDE700BF8B
:1070500000ED00E00400FA0538B504460D46FFF7E0
:107060002DFEFEF704FB2B46224605490020FFF7C4
:1070700091F929462046BDE83840FFF746BF00BFDA
:107080005E9703006C4A2DE9F0416C4B55686C4CDF
:107090005D65516A99656B49D1F80002D865D1F8F0
:1070A0000412586B1966916A10F0040F5966D16A80
:1070B0004FF000009966116BD966516B1967D26B5E
:1070C000D8645A67D3E90E2108BF11465E4A91423F
:1070D0001A655DD301F12000A04259D88869C5F333
:1070E00008051864CE69062D5E6455D1574DA84237
:1070F00052D3574DA8424FD205884DF64260854283
:107100004AD11868C3F890005868C3F8940040F258
:107110000170A242154604D22E680432B6F1CD3F6A
:10712000F7D00022C3E91E22C3E92022C3E92222AC
:10713000641B434EDFF814C1DFF814E19C648E42F7
:107140002DD8D3E91EC7D3E92065D3E922414FF0FA
:10715000000E013AD2B2FF2A3DD1BEF1000F05D098
:10716000C3E91EC7C3E92065C3E92241B3F854301F
:10717000C3F308030C2B3CD8022B52D9DA1E092A80
:107180004FD8DFE802F0553241444E4E4E4E4E4B42
:107190000021C3E910112C494FF42060B9E756F8DB
:1071A000044D6445CBD37445C9D2E507C7D5062540
:1071B000284F57F8048BA045C1D0013D15F0FF05BD
:1071C000F7D10AB9052201E0013AD2B202F11E0557
:1071D00043F82540B3E7E0464FF0010EBC46374682
:1071E0002E4625460C464146B3E740F60220BDE850
:1071F000F0813B2B15D1184B9B6913F0020F40F225
:10720000025318BF1846F2E740F60320EFE740F6B6
:107210000423B0F5206F08BF1846E8E740F60520C4
:10722000E5E740F60722013B4B2B98BF1046DEE70F
:1072300040F60120DBE700BF00ED00E00010002079
:107240000010002000E100E00000002034410000B8
:10725000B6950300781000200080014A00F00CB8B9
:1072600000F00AB800F008B800F006B800F004B862
:1072700000F002B800F000B872B61EF0080F09D096
:107280001EF0040F0DD0DFF850E0AEE8FF1F6FF0E6
:1072900002000CE0DFF840E0AEE8FF1F6FF00E00E8
:1072A00005E0DFF834E0AEE8FF1F6FF00600694646
:1072B000EFF309828EE8070086460848084C8545AA
:1072C00001D3A54501D384F30888FFF7DBFE84F3DF
:1072D0000888FFF7A3FE00000010002040000020F7
:1072E0000010002082B2074B4AB1000C1A8008BF80
:1072F0004FF6CE22044B14BF18801A8070474BF60D
:10730000EF62F2E7381100203A1100200B4BB3F97D
:1073100000201888002AB8BF80F0620042001A805E
:10732000074AB2F9001013880029BCBF83F48053C8
:1073300083F00B035900118058407047381100202A
:107340003A11002008B502F075F860B10A4B034409
:10735000072B0DD8072B0BD8DFE803F004060A082B
:107360000A0A0A0CC22008BDC320FCE7C420FAE7C1
:10737000C520F8E7C120F6E7FF1FFF0F10B4044651
:107380000846114622465DF8044B02F033B902F07C
:1073900073B902F0B3B910B4044608461146224648
:1073A0005DF8044B02F0C4B902F09ABA00F0FD0394
:1073B000112B05D0182B03D0A0F17D03012B07D88A
:1073C0000122044B80F020001A70034B18707D20BE
:1073D000704700BF862D0020872D0020F8B50E468F
:1073E0001446204B00B3204A2049107000221A7026
:1073F00022700A704FF6FF721D4B1A801B4D2B78BE
:10740000EBB91B4F30463988FFF771FD164A3880BB
:107410001378013BDBB213706BB901232B7030463C
:10742000BDE8F840FFF7C2BF1A78002AE6D018700E
:10743000104B1878F8BD237801332370EFE7012B48
:1074400005D102232B700A4B1888000AE8E7022BAB
:1074500004D103232B70064B1878E1E7FF237E202D
:107460002370E7E7862D0020822D0020882D002044
:10747000842D0020872D00202DE9F047394E8846C5
:10748000337817465BB9384A1370384A1370384A54
:107490001370384A13704FF6FF72374B1A807D28ED
:1074A0004FD02CD8182850D01A2852D00022314B57
:1074B0002D4D1C781A702B78DFF8B490DF2B9CBF11
:1074C00001332B702B784440022B12D9DFF8A8A08F
:1074D00099F80000BAF80010FFF709FD2B78AAF818
:1074E0000000DF2B9FBF99F80020023B88F80020A6
:1074F0003B701E4B1A781C7089F8002006E07E282D
:10750000D4D1194B1B781BB91A4A1370202011E0F3
:10751000FF2B20D0184A1188154A1078134A127888
:1075200002EB0022914218D1022B18D9DF2B8CBF1D
:107530007A200020A0F12002534253413370BDE86D
:10754000F08720200B4B1870F4E7FF22064B1A70CF
:10755000DCE77420EEE77720ECE77620EAE7792095
:10756000E8E700BF7A2D0020812D00207C2D00202F
:107570007D2D0020802D00207E2D0020002808BFBA
:1075800042200A44914200D1704711F8013B434028
:1075900001F8013C00F00103C0F34700002BF1D0DB
:1075A00080F0B800EEE7000008B5FFF741FB044BA0
:1075B00008B1188008BD4FF6FF721A80FAE700BFC5
:1075C000782D002010B5074C208850B1FFF730FB14
:1075D0002388C01A044B00B21B889842B4BF002015
:1075E000012010BD782D0020762D00204FF07E6206
:1075F0004FF6FF732DE9F041B2F84670B2F84460DF
:10760000154D9F4208BF4FF448679E4208BF4FF494
:10761000C8762C88DFF8448050B164002C802B8819
:10762000BB4215D92F800023A8F80030BDE8F081B7
:10763000B8F80030002BF2D0FFF7FAFAB8F80030B3
:10764000C4EBC404C01A80B204EB8004E408E5E78C
:10765000B34238BF2E80E6E7762D0020782D00203B
:1076600008B5FFF7E5FA4FF07E634FF6FF72B3F807
:107670005430934208BF4FF47A73184410F47F6F6C
:10768000C0F3071208BFFF22014B1A7008BD00BFEC
:107690007B2D002010B5084C237843B1FFF7C8FAC2
:1076A0002378C3EB101003065CBF002323702078FF
:1076B000B0FA80F0400910BD7B2D002010B5094ABA
:1076C000137813F002040CD10749084809780078B0
:1076D000884206D0064863F07D0304800548137095
:1076E000017010BD8C2D0020892D0020912D0020CF
:1076F000782D00208E2D0020054B064A198812880F
:10770000914202BF0121044A117000221A80704781
:10771000982D00209A2D00209C2D002007B50346AF
:10772000009102223D2003490FF037FE03B05DF8BF
:1077300004FB00BF9F97030007B5064B02221B788E
:107740003D200093044981230FF027FE03B05DF82C
:1077500004FB00BF962D00209F97030038B50C4D09
:107760000C4C2A7823789A4200D138BD00210A486F
:107770001CF032FB094B1B88834202BF0122084BDD
:107780001A702378013303F007032370E9E700BF81
:10779000892D00208F2D0020942D00209A2D00206F
:1077A0009C2D0020074B93F90030002B08DB064A84
:1077B000137803F04101402904BF43F0050313701F
:1077C000704700BF962D00208C2D0020282307B580
:1077D000054A3D20CDE900320449702302220FF012
:1077E000DCFD03B05DF804FB3800E00F9897030060
:1077F000702807B504D103B05DF804EBFFF7E6BFCE
:10780000074B02221B7807490193074B1B78009313
:1078100003463D200FF0C1FD03B05DF804FB00BF3F
:107820009D2D00209E970300962D0020F8B500277F
:1078300006463D4630461CF06DF8854200D3F8BD43
:1078400030461CF067F8441BE4B2202C2946304631
:1078500028BF20241CF0BEFB224601463846FFF715
:107860008DFE2C440746E5B2E4E7000008B50A485F
:107870001BF050FE09481BF04DFE09481BF04AFE64
:1078800008481BF047FE08481BF044FEBDE80840CE
:1078900006481BF03FBE00BF982D0020842E00201C
:1078A000862E0020942D00209A2D00209E2D002051
:1078B00008B5DC22002104481CF02AF90122034B00
:1078C0001880034B1A7008BDA52D00209A2D0020AA
:1078D0009C2D002030B585B0FFF7EAFFFFF7EEF9E9
:1078E0004FF07E634FF6FF72B3F84C30224D934257
:1078F00008BF4FF47A732B800023204C2380FFF7BE
:1079000053FEFFF75FFE0028FBD04FF07E634FF67B
:10791000FF72B3F84230934208BF4FF4C8632B8024
:1079200000232380FFF74AFB431E154DDBB20A2BD1
:10793000144C287019D8012202FA03F340F20352C2
:10794000134212D00222C1230290CDE900323D2021
:1079500084230D490FF021FDFF232B70D0232370CA
:1079600005B0BDE83040FFF731BFFFF72FFFA02380
:10797000237005B030BD00BF762D0020782D00208B
:107980008B2D00208C2D00209D97030037B50446D9
:107990000D461BF0BFFF022825D840F215111B48E9
:1079A000FFF75AFB1A4B197801F14003DBB2022BA7
:1079B0001FD901F0A003A02B04D00B0619D57E20FF
:1079C000FFF7ACFE4FF07E63B3F8403013B12046B2
:1079D000FFF72CFFB5B1002221460E4803B0BDE8E9
:1079E00030401CF092B920461BF094FFDC28D4D81C
:1079F000D8E7CDE90014842302223D2006490FF088
:107A0000CCFCDFE72A4621460448E7E7A3970300BA
:107A1000812E0020842E0020FB970300862E00205C
:107A200001460120FFF7D5B92DE9F74FFFF7CAFD51
:107A3000AB4C48B32378580626D599074CBFA94BC1
:107A4000A94BAA4A1B7812789A4232D00120FFF73C
:107A5000CDFD7320FFF7CCFEA54A4FF6FF711378DA
:107A60000133DBB213704FF07E62B2F848208A42D5
:107A700008BF0322934219DD51229E4B72201A70D7
:107A8000FFF7B6FE202323709B4D9C4E94F90020F7
:107A90002378002A18DA13F030030ED01A20FFF7EB
:107AA000BFFF237803F07F032370EFE7FFF706FEA5
:107AB000EAE70022924B1A80E6E72A78022AF0D100
:107AC0008F4A2B701380E9E72A78012A00F0F780AB
:107AD0000DD9931E012BD9D83178FF2900F02481CC
:107AE000002940F0F480874B19783246EDE09A0780
:107AF00019D57C497D4A7C4892F800C007780A78FD
:107B0000ACEB0200BA1A02F0070200F00700904244
:107B100098BF81F800C00A78BA4204D123F002036A
:107B20002370FFF71BFE237813F0300F1FD013F0E4
:107B3000200F744F15D0C2233B706E4B1B78BB7067
:107B400002237B702378032023F03C03237001235E
:107B50002B7032466B4B1978FFF740FCFFF760FF44
:107B600094E7C1233B70FFF729FAB870E8E713F0F8
:107B70000C011FD0644F13F0040F3978614B0FD004
:107B80006039C9B219708020FFF7C8FD237823F04F
:107B90000C0301203A7823705C4B28701A70D8E7E8
:107BA00081F0800119707E20FFF7B8FD237823F063
:107BB0000803EEE79B0737D5DFF82881544A98F889
:107BC0000030127801919B1A03F0070AFDF757FD68
:107BD000019981464F481CF092F80746DFF834B10E
:107BE000BAF1000F16D14846FDF74FFD4A4B384613
:107BF0001F801BF08FFE444B98F800201B7801304B
:107C000043EA02133F4A43F0080313700323C0B250
:107C10002B709EE7394658461CF0C3F80AF1FF3333
:107C200007465FFA83FADBE7304B4FF6FF701978AF
:107C30004FF07E63DB8F2C4F834208BF05233A78D9
:107C40000B44013B521A5B1A02F0070203F00703D0
:107C50009A42DFF8B48028DC30481CF04BF8E0B9D9
:107C60002E481CF047F82D4A2D4B0021002808BF54
:107C700013462C4A184613601CF041F8264B188016
:107C80001BF048FE3A7898F80030013043EA0213BE
:107C90001C4AC0B213700223BAE721481CF02AF82C
:107CA00018B9FFF7F7FC0028DAD1184B1A7898F8C2
:107CB00000309A425ED0237843F00803F4E633782C
:107CC000FF2B4DD032460F49C95C002044E7124BD0
:107CD0000139C9B218881CF08FF9014605E700BFC9
:107CE0008C2D00208E2D0020912D0020892D00202C
:107CF0008D2D00208B2D0020A42D0020922D002002
:107D0000782D0020812E0020902D00208A2D00202B
:107D10008F2D0020942D00209E2D0020842E0020E9
:107D2000862E0020A02D0020022A1CD1134A0021FB
:107D30001378013303F007031370114B18681CF01C
:107D40004BF8104B002219880F481BF0DEFF0F4B39
:107D50001B880BB9FFF728FC0D4B1A780D4B1A70D6
:107D600000232B7092E60C4A1378013303F00703CB
:107D70001370ECE703B0BDE8F08F00BF912D002039
:107D8000A02D00209E2D0020942D0020782D002075
:107D9000902D00208A2D00208E2D002010B5014648
:107DA00004460120FFF700F828B126281BBF18233E
:107DB00000202720237010BD2DE9F04F8246DFF808
:107DC000FC9285B00023DFF8F882AAF8003098F81A
:107DD00000301BB989F80030FFF78EFCA94DAA4E80
:107DE0000DF10E00FFF7DAFF2728044616D04A46A9
:107DF0009DF80E000DF10F0199F800B0FFF73CFB64
:107E000010F0DF0704461BD0FFF776FC7A2827D84E
:107E1000732807D82028DAD0272821D1204605B09A
:107E2000BDE8F08FA0F17404062C19D8DFE804F047
:107E30000418444A184C4E007420FFF7D9FCC6E7DA
:107E400099F800309B4506D0022B0FD89DF80F20E3
:107E50008E4B03F80B20202CC2D0002C00F0FD80AC
:107E600040F253118A48FFF7F7F8B0E7032B10D11F
:107E7000884B1A786AB12A88012130461F703280F7
:107E80001CF05AF8012300933A46318882481CF0CE
:107E90006DF82B8830889842DDD11BF03BFDC7B2CE
:107EA000791C2846C9B21CF047F839469DF80F20C6
:107EB00028881CF0B5F8CEE77620FFF799FCFFF78D
:107EC00071FC84E77720F8E77920F6E77A20F4E779
:107ED0000A060DD4032B2BD933785B0604D56F4BE0
:107EE0001B78B3EB111F01D0FFF706FC012519E049
:107EF00001F0E002802A06D1012B19D17D20FFF785
:107F00000DFC02250CE0A02A06D1012B10D17F2008
:107F1000FFF704FC032503E07B20FFF769FC002545
:107F2000FFF7EAFB3078430604D42023337049E797
:107F30007C20F2E76B1E022B16D85949DFF884B17A
:107F400098F800700A789BF8003007F00707A7EB55
:107F5000020C9B1A0CF0070C03F007039C4515D983
:107F60007820FFF745FC0025AB1E012B2ED898F892
:107F7000003013F0080326D0FFF772FB032D69D001
:107F8000002D7FF41FAFFFF70DFC1BE79742EBD0EE
:107F90000023444A10F002000F70137008D0424AC8
:107FA0001380424B1B78BB42DED0FFF7FDFADBE7C4
:107FB000FFF71CFB9BF80030BB4201D0FFF7F4FA3F
:107FC000FFF7CCFBD0E73A4A1370D7E7012DD5D1A4
:107FD000324998F800200B78C2F3021098422DD154
:107FE000294D288830B92620FFF7DCFB2624FFF72F
:107FF000FFFB13E7013303F007030B704FF07E63C1
:10800000170742BF327842F008023270327822F00D
:1080100005023270B3F840300BB1FFF707FC2B8834
:108020000222019398F800303D20009321498523D6
:108030000FF0B3F92B88AAF80030EFE61107337878
:1080400002D543F0080371E7DA079CD47520FFF7E7
:10805000CFFB98E7FFF732FBB4E6DFF8308099F802
:10806000003098F80010144EC0297FF431AF012B76
:108070007FF45EAFFFF760FB0425FFF75DFBFEF7C3
:1080800023FE4DE79A2D0020982D0020962D0020EC
:10809000A39703009C2D0020972D0020902D0020F9
:1080A000892D00208D2D0020782D00208E2D002080
:1080B0007B2D0020FB9703008C2D00209D2D0020A0
:1080C0007A2D0020912D002008B5114B1B781BB193
:1080D000002000F0010008BD0E4B1A780E4B1B78F3
:1080E0009A42F5D114F0B4FD0028F1D10B481BF0F1
:1080F00001FE0028ECD00A481BF0FCFD0028E7D068
:10810000084B1B78002BE3D10120FEF775FEE0E75A
:108110007A2D00208A2D0020902D0020862E002010
:10812000842E0020A42D00200020704708B50846AA
:1081300005F090FB002008BD104430B5054602B99B
:1081400030BD01F00F030A2B34BF30243724013A2D
:108150002344090905F8013DD2B2F0E7F0B519B39F
:10816000002820DA2D23B0F1004F137000D04042D8
:10817000012119E0801B8642ECB205F10105F9D915
:1081800014B9BCF1000F05D04FF0010C4D1C303478
:108190005454E9B2013B13F0FF0309D1303050547D
:1081A000481CC0B2F0BD002109234FF0000C024F63
:1081B000002557F8046BDEE7009803002DE9F04F27
:1081C000002495B02146029480461646A1464422DA
:1081D000274603A802AC9B46254631F0F8F80DF17E
:1081E000480A317881B9641BE4B22946224600204E
:1081F000C0470146002840F0B4803C44482228464D
:10820000E4B231F0E4F8ADE025291AD0B9F1000F5D
:108210001BD1204600F8011B04465445C0F0F780EE
:10822000641BE4B2294622460020C04701460028CC
:1082300040F09780274448222846FFB231F0C7F823
:10824000E4E0B9F1000F00D101363278782A06D87F
:10825000612A07D8252A5ED03AD8002AC3D04FF029
:108260000009DAE7A2F162011629F8D801A353F850
:1082700021F000BF23830000B783000013840000B7
:108280005F8200005F8200005F8200005F8200006A
:108290005F8200005F8200005F82000013840000A4
:1082A0005F8200005F8200005F820000C9830000DF
:1082B0005F8200005F820000C98300005F820000CF
:1082C000138400005F8200005F82000007830000CB
:1082D000392A16D82F2AC2D9717801F0DF0158291E
:1082E00040F0C480322A06F1010940F0AC805BF80E
:1082F000041B2046042289B2FFF71EFF04464E46A7
:10830000ADE7582AABD15BF8041B02222046C9B264
:10831000FFF712FF56E0214601F8022B62700C466F
:108320009DE74FF00009DBF800300193DBF80430E3
:108330000093009B994502D10BF1080B8FE7019B3D
:108340002046022213F80910FFF7F6FE50450446B6
:1083500013D3441BE4B2294622460020C0470146FD
:1083600020B10024204615B0BDE8F08F48222846F1
:10837000274431F02CF82C46FFB2009B5A1E4A4588
:1083800081BF2046202200F8012B044654450FD31C
:10839000641BE4B2294622460020C047014600285B
:1083A000DFD148222846274431F011F82C46FFB28D
:1083B00009F10109BDE75B4653F8042B20469B46B3
:1083C00000F8012B04464AE7621BD2B2294600207E
:1083D0005BF8049B0092C04704460028C1D1009A74
:1083E0000146174428464822FFB230F0F0FFE2B2BF
:1083F00019F8020001340028F9D149460092C0471B
:108400000028AED18146009A1744FFB22C460136AF
:10841000E7E66C2ADBF800000BF104090ED1737853
:10842000752B14BF0121002101D0642B00D101362E
:108430002246FFF793FECB46044410E7752A0CBF93
:1084400000210121F4E7342A10D15E4656F804BB1E
:1084500004224FEA1B412046FFF76EFE1FFA8BF104
:108460000422FFF769FEB346044648E74FF00109CE
:10847000D3E600BF08B5054813460A460021FFF7BA
:108480009DFEB0FA80F0400908BD00BF2D810000BC
:108490000EB403B503AA52F8041B00200192FFF7A3
:1084A000E9FF02B05DF804EB03B07047002001491A
:1084B000FFF7EEBF6E9703000EB417B505AA52F88A
:1084C000041B00200192FFF7D5FF04460020FFF7B0
:1084D000EDFF204603B0BDE8104003B07047000038
:1084E000034B1B78002B14BF01200220704700BFF4
:1084F000B82E00200329F8B598BF124B05460E464A
:108500008CBF00245C5C032805D8DFE800F002087B
:108510000B0E44F002040C4B1F684FB9F8BD44F039
:108520000804F8E744F02004F5E744F08004F2E79B
:108530007B681A68144203D0314628465B68984726
:108540003F68EAE724980300B42E002038B5104DA8
:108550002B78ABB10F4C23781BB100F0EDFA002360
:108560002370002000F00AFB0B4C50B100F010FB10
:108570000023012120782B70FFF7BCFF012323701B
:1085800038BD0122054B1A702278054B1A70F7E7A7
:10859000B22E0020AD2E0020A42E0020B12E0020EF
:1085A000C02E002010B5FDF75BF8064B04461B7883
:1085B0001BB1BDE81040FDF757B8FFF7C7FF2046D5
:1085C000F7E700BFAC2E0020002814BF0121FF21D7
:1085D000074A13780B44137008D0064B1B78012B05
:1085E00004D9054B1B780BB9FFF7B0BF704700BF2C
:1085F000B82E0020A42E0020B12E002070B5FDF76B
:108600002FF8114E054633788BB900F0D9FB04469C
:1086100020B12846FDF728F8204670BD00F0EAFC9E
:108620000A4B18600A48FCF717F90A4B1C6000F067
:10863000DBF900F0E1FA084B00241860012328461A
:108640003370FDF711F8E7E7AE2E0020BC2E0020B6
:10865000B42E0020C42E0020A82E002000292DE9D1
:10866000F34114BF0121FF21254A00F1FF30135CC3
:108670000B4413543AD0234E3278012A36D9FFF7EF
:108680002FFF0128044634D81F4FFCF7E9FF3B7841
:108690001BB31E4D2B781BB901222A701C4A137084
:1086A000DFF8708098F8003033B1019000F044FAA0
:1086B0000023019888F80030FCF7D6FF012000F075
:1086C0005DFAFCF7CDFF2B782BB1019000F060FA3A
:1086D000002301982B7000233B70FCF7C5FF307816
:1086E000A04203D02146FFF705FF347002B0BDE879
:1086F000F081032AF3D10228F1D100F097FAEEE7D6
:10870000B82E0020A42E0020B22E0020AC2E002077
:10871000B12E0020AD2E002068B5FCF7A1FF094B5B
:1087200006461B78012B04D8FCF79EFF002528463F
:1087300068BD054B1D6800F063FA05443046FCF740
:1087400093FFF4E7A42E0020C42E002007B5FCF709
:1087500087FF0190FFF7FAFE019803B05DF804EB84
:10876000FCF782BF38B541600446FCF779FF054647
:1087700021460448FCF773F82846BDE83840FCF76A
:1087800073BF00BFB42E0020054B1B685843054B38
:1087900000F5742000F23F20B0FBF3F0704700BFFB
:1087A000BC2E002040420F002DE9F04385B0FCF7BD
:1087B00057FF044600E000BFFBF740FE002800F032
:1087C0008A80654E654F337823B10020FFF7FCFEA9
:1087D00000233370FFF784FE0546002800F08380F5
:1087E000851EEDB2012D40F28680FFF779FE01284B
:1087F000804604D95A4B1B780BB900F05BF9594DF0
:10880000DFF880912878404507D099F8003013B9F7
:108810004146FFF76FFE85F80080B8F1010F0FD9D0
:10882000DFF83C8198F8003053B94F4B1B7823B9DF
:1088300000F07CF901224D4B1A70012388F80030BA
:10884000287800F0C3F999F8003013B1484B1B7831
:108850002B7000E000BF2046FCF706FFFCF700FF8E
:10886000444B04461A7852B100221A70404B2878C3
:108870001B78984203D101212970FFF73BFE38464F
:1088800000F0D8FAFBF7EFFD804600289BD1344F6B
:108890003B789BB189F80000DFF8D09099F8003060
:1088A0001BB100F049F989F80080002000F066F95A
:1088B000002846D000F06CF900233B70337823B1D8
:1088C0000020FFF781FE0023337000212878FFF796
:1088D00011FE00232B7000E000BF204605B0BDE86C
:1088E000F043FCF7C1BE3378002B3FF47EAFFFF7B7
:1088F0006BFE357079E7002003A900F01DFB0546EB
:1089000000287FF472AF1C4B039A1B689A4205D86B
:108910000120FFF759FE0123337066E7174BD3F8A8
:10892000008000F06DF9039940448842F0D20223A0
:10893000091ACDE9005338462B46114A00F0A2FA35
:1089400053E7012000F042F92046FCF78DFEFCF7CA
:1089500087FE0446A9E700BFBB2E0020882E00201A
:10896000B22E0020A42E0020BA2E0020AD2E002012
:10897000C02E0020B02E0020A82E0020C42E0020E3
:10898000A5850000B12E002010B5FCF769FE00227D
:10899000044B1C781A70FCF767FE00F035FC20438E
:1089A000C0B210BDAF2E002010B5094B1B786BB1C3
:1089B000084C237853B100F0EBF80023064A2370EB
:1089C00013700123054A1370054A137010BD00BFD0
:1089D000A42E0020B12E0020B22E0020AF2E0020A9
:1089E000B02E0020704700002C4A2D4B116F2D48EF
:1089F00001F0070170B51960D2F8203180690329B0
:108A000000F0020041D003F00703991E4B424B4196
:108A1000D2F88012244D01F001010B4323490B7061
:108A200060B33BB9D2F8003103F003035A1E53423E
:108A300053410B70194BD3F8003103F00303022BA1
:108A400025D0032B26D0012B18D1FBF799FEA8B116
:108A5000144B411EDC680023024608461946C4F345
:108A60000B04134E013404EB8404E4FB060130F0E4
:108A70009FFAFFF789FE2B68184428606420FFF7EF
:108A800083FE2B681844286070BD0123C0E7FBF704
:108A9000DDFEDCE7FBF78AFED9E700BF008000407F
:108AA000C82E002000C00140D02E0020CE2E002075
:108AB00040420F00FCF71ABE074B1A7852B1002251
:108AC0001A70064A136F23F0070343F0010313677C
:108AD000FBF740BE704700BFCC2E00200080004056
:108AE0000E4B10B51B7883B1022000F033FC60B14F
:108AF00000F054FA48B10A4B9A6DD20306D5DB6DEB
:108B00009B0703D50122074B9A6210BD0124064B37
:108B10001C70FDF73FFA034B9C62F6E7CE2E002057
:108B200000C0004000D00040CD2E00200122014BAB
:108B30001A707047CC2E002038B50C4B1B786BB1E7
:108B40000B4C23787BB90B4B0B4D9A6D12F4803F85
:108B500005D0DB6D9B0702D50123AB6238BDFDF765
:108B600019FA0123AB6200232370F7E7CE2E002011
:108B7000CD2E002000C0004000D00040034B1B78E9
:108B80000BB1FDF76DBA0120704700BFCE2E00205B
:108B900008B5FCF7ACFD094A0949136F096823F0D1
:108BA00007030B431367074B1B7813B10122064BD6
:108BB0009A62BDE80840FBF7CDBD00BF00800040D1
:108BC000C82E0020CE2E002000E0004002280AD04F
:108BD00003280BD001280CD1064A136923F00403A3
:108BE000136130BF70470020FCF754BD0020FCF734
:108BF00069BD704700ED00E04FF4C870FFF7C4BDD9
:108C000008B5054B187818B1FDF70AFA00EBD0004B
:108C1000024B1B68184408BDCE2E0020D02E002029
:108C20000122014B1A707047CE2E002070470000C1
:108C300010B500F02FFB0A4C0A4B19682368C31AC1
:108C400001B10BB9206010BD4A699A423ABF9B1A24
:108C50000022D21A4A6128BF00238968F0E700BFCA
:108C6000D82E0020EC2E0020C38870B504460D4697
:108C70003BB9FFF751FD8542064602D2FFF766FD7C
:108C800035460F4965610B68ABB90C60A36011E014
:108C9000AD1A9A68184665612AB113465A69AA4204
:108CA000F6D950B11A4613468460A36013B15969CE
:108CB000491B596170BD0020F0E70C60F5E700BF6B
:108CC000EC2E002038B5134D2B685B6993B1124A26
:108CD000022014681C4400F011FB204600F0E2FA68
:108CE00000230E492A680B70D088800709D501231C
:108CF0000B7038BD022000F001FB022000F022FBC7
:108D0000EEE79268002AF4D050690344012BEBD9B6
:108D1000EFE700BFEC2E0020D82E0020E02E002030
:108D200070B516469DF81420C0E903360271049A06
:108D3000BDF8183002600022C380826004460D46F0
:108D400000F0A8FA3044A0613DB9E368656113B151
:108D500020462168984796B13546FCF781FC0646C7
:108D6000FFF766FF29462046FFF77EFF054B1B688D
:108D7000A34201D1FFF7A6FF3046FCF775FC0020A7
:108D800070BD00BFEC2E002000220C490B687BB1A7
:108D900083420AD183687AB1936083681BB15A69B0
:108DA00041690A445A61002070471A469B68EEE701
:108DB0000028EFD0022070470B60EEE7EC2E002079
:108DC00070B5FCF75CFC144E05463478FCB9134BC7
:108DD0001C60134B1C60134B1C8000F021FA012017
:108DE00000F08CFA00F0E0FA0F4B0246186020B950
:108DF0002846FCF74AFC232070BD234640F2E731A9
:108E00000A4830F0D5F80A4B186001233370284621
:108E1000FCF73BFC0020EFE7D42E0020EC2E0020D6
:108E2000D82E0020E22E0020E82E002018FCFFFFA4
:108E3000DC2E00202DE9F0410546F8B1FCF710FCCE
:108E40000F4F0646FFF7F4FE2846D7F80080FFF7DD
:108E50009BFF044628B13046FCF706FC2046BDE8DF
:108E6000F081A8453B6803D123B1FFF72BFFF2E760
:108E7000002BF0D1022000F04DFAECE72224EDE7C0
:108E8000EC2E002070B586B015461E4604460591AE
:108E900080B1FFF7CFFFBDF82C30002202939DF880
:108EA00028302046CDE9006305992B46FFF738FFAF
:108EB00006B070BD2220FBE738B50C46054698B1D8
:108EC00091B100230B70FCF7DAFB0121074B1B6803
:108ED0000BB122781AB1FCF7D8FB002038BDAB42A9
:108EE00014BF9B682170F3E72220F7E7EC2E0020E7
:108EF000F0B51F46002387B00D46164604468DF890
:108F00001730A0B10DF11701FFF7D6FF9DF817201C
:108F10007AB9BDF83430294602939DF830302046A6
:108F2000CDE900733346FFF7FBFE07B0F0BD22200A
:108F3000FBE70320F9E700002DE9F04107468846EA
:108F4000FCF79DFB00260546124B1C6824B92846F9
:108F5000FCF79BFB1B2016E063691E44E388BB42C1
:108F600015D100F097F90C4C2368C01AB0420CD20E
:108F700000F090F922683244121A2846C8F80020FE
:108F8000FCF783FB0020BDE8F0810022F5E7A46830
:108F9000DCE700BFEC2E0020D82E0020014B187813
:108FA000704700BFE02E002038B5FCF768FB05468F
:108FB00000F070F904462846FCF767FB204638BDF0
:108FC00070B5FCF75CFB064600F064F9084B0446FC
:108FD0001D880120ADB200F0BDF918B100F05AF9BA
:108FE000044601353046FCF750FB2046294670BD4B
:108FF000E22E0020014B1868704700BFE82E0020C9
:109000000C4B70B51B680D46834211D340F2E7311B
:1090100000248C462146084B4FF47A721E680023C8
:10902000E0FB06C160462FF0C3FF2860204670BDFC
:109030002120FCE7DC2E0020E82E0020014B1868E0
:10904000704700BFDC2E00200F4B10B51A689AB194
:109050004FF47A71531E1342A0FB01010ED1B2FAF4
:1090600082F2C2F11F04531CD243E04001FA03F321
:10907000184321FA02F20243104610BD00232FF0DC
:1090800097FF0246F8E700BFE82E0020164B70B5A8
:109090008342164B15468B4124D3154B1A680AB3ED
:1090A0004FF47A76A0FB0603541E144006FB0131F0
:1090B00011D1B2FA82F3C3F11F025E1CDB4301FA45
:1090C00006F6D04021FA03F330431843D140C5E9F6
:1090D0000001204670BD00232FF06AFF0024C5E97F
:1090E0000001F6E72124F4E7EFA7C64B37894100DA
:1090F000E82E0020C2072DE9F34704460BD53F4A6E
:10910000138801339BB21380FFF792FD3C4B1B6821
:109110000BB1FFF7D7FDA3076DD5FCF7B0FA00261A
:1091200005463746FFF784FDB146DFF8D480D8F80E
:1091300000400CB163698BB10022324B012F1A70D1
:1091400002D1022E08BF1F70002C44D0FFF7BAFDD9
:10915000284602B0BDE8F047FCF797BA23461A79D3
:109160002179914288BF1C469B6813B15A69002A35
:10917000F5D02846FCF789FA256985B300F08AF80E
:10918000A269861AF317B54279EB030328DA23693B
:109190001344A3610123226982B17BB9A91B019108
:1091A000FCF76DFA824601992046FFF75DFDA36941
:1091B000226950461344A361FCF767FAE368E68826
:1091C000013713B1204621689847FCF758FA054645
:1091D000FFF72EFDABE7022000F09CF8B8E72E4623
:1091E000FCF74DFA82462046FFF7CEFD5046FCF7CD
:1091F0004CFA0023CFE702B0BDE8F087E22E002052
:10920000EC2E0020E42E002010B5FCF738FA034BBA
:109210001C78FCF73AFA204610BD00BFE42E00206F
:109220001FB50024184B18689A880290D3F80600DE
:109230009B7A009002A8ADF80C208DF804308DF8D0
:1092400008408DF80C40FCF71BFB694601208DF8A7
:109250000040FCF7D9FA4FF090431F219A6922F0A1
:109260001F029A61094A51619A6A12F00802FBD101
:109270001A620120FCF7E2FA4FF48062044BC3F853
:1092800080211A6004B010BD289803000020004817
:1092900000E100E04FF090439A6A1207FCD4186A8C
:1092A000704700004FF09042936A1907FCD4136A8C
:1092B000116C5269120704D4CA1A032A01D89942C0
:1092C0000ED1C21A022A98BFD81CB0F1FF3F38BF96
:1092D00001384FF0904318649A6942F008029A618D
:1092E000054A13783BB14FF09041CB6B43F002033A
:1092F000CB630023137070473C11002082074FF0AE
:10930000904200F00103916948BF43F008030B430A
:1093100093617047820700F001030AD50121084AD2
:1093200043F0080311704FF09041CA6B22F0030222
:10933000CA634FF090418A6922EA03038B61704748
:109340003C110020830742BF0822014B5A6170473D
:10935000001000484FF0904301285B6904D00228B8
:1093600005D1C3F3C000704703F00100704700202F
:109370007047000010B5FCF782F94FF090430446A7
:109380005B691A07074A03F0010003F00D0348BFA9
:1093900040F002005361FFF7ADFE2046BDE81040EB
:1093A000FCF773B9002000481C20FBF7DFBD08B5AF
:1093B000FAF748FFFAF7A0FFFAF7CEFFFAF7A3FF94
:1093C000BDE80840FAF7B2BF08B5FAF7B0FFFAF700
:1093D000AFFFFAF7AEFFBDE80840FAF7B3BF0000F1
:1093E00023282DE9F341054604D82C46204602B037
:1093F000BDE8F08100240B4E0B4FDFF830800023D6
:1094000038681A461946CDF8008006F0B3F9844250
:10941000EBD2242CE9D056F8043B9D42E6D001342F
:10942000EDE700BF789B0300D4100020FFFF0F0082
:10943000704700002DE9F04F634E644D3168286895
:1094400089B005F017FF0446002827D033680024B0
:10945000D3E900019A6912689047336804A89B69B0
:109460009B689847336802209B69DB68984732689D
:1094700005985368E7B2B3FBF0F3BB42916904F17E
:1094800001044CD8CB680020984733689B695B681F
:1094900098473168286805F0EDFE04460026DFF89D
:1094A0004891DFF848814A4FDFF844A1ECB9494BB5
:1094B000F35C002B00F082803968286802AB03AAB5
:1094C000009106F011F95045009907D068B9039B47
:1094D000012B0AD0286806F057F90099D9F8003016
:1094E00028681A6806F02EF804460136242E09F181
:1094F000040908F1010807F10407D7D1B4FA84F38D
:10950000354A5B0913702B681B7C23B14FF48B71B8
:109510003248FDF7A1FD204609B0BDE8F08F126882
:109520000B6907FB00209847A1E73B6803AA194491
:1095300002AB019106F0D8F8504501992DD028B31F
:109540000BF1010B009B5FFA8BF199422868ECD379
:10955000234BF35C002BC8D0DDF800B05FFA8BF32F
:109560007E2B2868C1D8396802AB594403AA009100
:1095700006F0BAF85045B8D00099286806F004F90A
:109580000BF1010B04460028E8D0AEE7039B7BB942
:1095900098F80030029A9A42D2D098F80030D9F860
:1095A0000020286805F036FF0028C9D00446CFE720
:1095B0002868019106F0E8F80199EEE7094BA34607
:1095C000F35C0093BEE700BFD8100020D410002049
:1095D000789B0300309B0300F02E00202C9C03009E
:1095E000549B03007C9A0300A09A0300089C03008C
:1095F0000BE000F0F7B50E4601931746FFF7F0FEBB
:1096000023280546019B1BD8164A147804B3164A32
:109610001068164A52F82510154A525D3AB13A467A
:1096200005F0DCFF044698B1FFF702FF10E07F2E43
:1096300008BF00263A4651FA86F105F035FFF1E7FA
:10964000FF2808D981B2F2B23846FDF7A4FE002403
:10965000204603B0F0BD4FF4A6710648FDF7FCFCB0
:10966000F5E700BFF02E0020D4100020789B030007
:10967000309B03002C9C030073B50E46CDE90032ED
:10968000FFF7AEFEDDE90031232805461CD8164A57
:10969000147804B3154A1068154A52F82540154A43
:1096A000525D42B10A68214605F04CFF044690B174
:1096B000FFF7BEFE0FE07F2E08BF00260A4654FAD1
:1096C00086F105F0A7FEF1E7FF2807D91A4680B218
:1096D000FDF76AFE0024204602B070BD4FF4DC7135
:1096E0000548FDF7B9FCF5E7F02E0020D410002066
:1096F000789B0300309B03002C9C030010B5FFF700
:109700006FFE084B1C785CB1074B002253F8201009
:10971000064B186805F0A2FF044608B1FFF788FE63
:10972000204610BDF02E0020789B0300D4100020AE
:10973000F7B504460F4616461D46002B73D04BF274
:109740003463984212D1082D28BF082537492A468C
:1097500030462FF015FE2A46304635492FF000FEE0
:1097600010B1002003B0F0BD41F2F0144BF23463AD
:10977000F9B27F29A4B208BF00219C4219D17F22EF
:1097800041F2020168460823FDF705FE08226846FB
:1097900027492FF0E5FD30B908237F2241F2F0116F
:1097A0006846FDF7F8FD0822694630462FF0E8FDCF
:1097B000D7E741F2F0139C421ED12A461D4B741E7E
:1097C000986CD96C2F1F013AAB1A974204F8010F1D
:1097D000DBB24FEA10200DD0002AF4D1002AC0D00D
:1097E000F1540133D8B207284FEA112102F1FF32B8
:1097F000F4D9B6E70423F1E704F47043B3F5805FCE
:1098000007D1C4F30B0404F17E642A4605FB014131
:10981000CBE704F46043B3F5005FA2D1C4F30B04BB
:1098200004F57E24F1E721209CE700BF0200E00F51
:10983000109D03000080E00FD307F7B505460F46E3
:1098400026D410F0030423D126465208B2420AD18E
:10985000FBF7AAFFA64205EB84000AD1FBF7B0FF95
:10986000002003B0F0BD55F8263001330CD101368D
:10987000ECE7042257F824300DEB020101932FF09E
:10988000A7FE18B1FBF79CFF4B20EAE70134E1E7A4
:109890000120E6E730B5134600F07E62B2F17E6F3C
:1098A00089B00DD10A46C0F30B01684602F0AAFC4C
:1098B00020B140F279110948FDF7CEFB09B030BD67
:1098C0005A08FFF7B9FF0028F8D04FF4B7710348E2
:1098D00009B0BDE83040FDF7BFBB00BF8C9C030062
:1098E0002DE9F7430446E0070F46154604D540F23C
:1098F000C9113748FDF7B0FBE90704D54FF4E5710E
:109900003348FDF7A9FB04F47043B3F5805F40D101
:10991000C4F30B0404F17E642E4A6B1E234493426D
:10992000264604D940F2CF112948FDF795FBDFF810
:10993000A09006EB050846453FD1A2070ED04FF692
:10994000FF7337F8022BA01E43EA024304220DEBFB
:1099500002010193FFF79EFF0234023DAB070ED0D8
:10996000023D25F00103FB5A04226FEA03436FEA2C
:1099700013430DEB020160190193FFF78BFF25B133
:109980002A4639462046FFF785FF002003B0BDE890
:10999000F08304F46043B3F5005F05D1C4F30B0416
:1099A00004F57E242646C2E74FF4EB710848FDF724
:1099B00053FB6FF00F060024B9E716F8013BFF2BAD
:1099C000B9D04FF4F0714846FDF746FBB3E700BF4E
:1099D0008C9C0300FF1FE00F1FB52A38062867D8AC
:1099E000DFE800F0040B2C4B50555C000DF07AF9C9
:1099F00013F064F9012004B010BD13F041F90446DE
:109A000013F03EF98DF8000013F03AF98DF80100DB
:109A100013F06EF9ADF8020013F032F90DF1050103
:109A20008DF80400082013F033F913F029F9694682
:109A30008DF80D0020460DF0B9FBD9E713F020F9A1
:109A400069460CF06DFF13F039F99DF8000013F032
:109A500035F99DF8010013F031F9BDF8020013F05B
:109A60003DF99DF8040013F029F908200DF10501D6
:109A700013F05CF99DF80D00BAE713F001F90DF051
:109A800097FBB5E713F0FCF822F086FEB0E713F081
:109A9000F7F80CF03FFF13F021F9ABE713F0F0F803
:109AA000044613F025F9014620460CF077FFA1E7A4
:109AB0000020A0E72DE9F043E228A1B02CD8DC2853
:109AC00008D8702800F0CD80C03883B2092B0AD99D
:109AD000002090E0DE38042800F29780DFE800F0F4
