:10000000001000200D02000009020000090200009B
:1000100009020000090200000902000009020000B4
:1000200009020000090200000902000009020000A4
:1000300009020000E8BA00000902000009020000FD
:100040000902000009020000090200000902000084
:100050000902000009020000090200000902000074
:100060000902000009020000090200000902000064
:100070000902000009020000090200000902000054
:100080000902000009020000090200000902000044
:100090000902000009020000090200000902000034
:1000A0000902000009020000090200000902000024
:1000B0000902000009020000090200000902000014
:1000C0000902000009020000090200000902000004
:1000D00009020000090200000902000009020000F4
:1000E00009020000090200000902000009020000E4
:1000F00009020000090200000902000009020000D4
:1001000009020000090200000902000009020000C3
:1001100009020000090200000902000009020000B3
:1001200009020000090200000902000009020000A3
:100130000902000010B5054C237833B9044B13B104
:10014000044800E000BF0123237010BD20120020EE
:1001500000000000C0BB000008B5034B1BB1034901
:10016000034800E000BF08BD00000000241200208A
:10017000C0BB0000154B002B08BF134B9D46A3F5D9
:10018000803A00218B460F461348144A121A00F099
:1001900034FC0F4B002B00D098470E4B002B00D0A7
:1001A00098470020002104000D000D48002802D0CF
:1001B0000C4800E000BF00F0EFFB2000290000F039
:1001C00057FB00F0D5FB00BF000008000010002026
:1001D000000000000000000020120020B81C0020D9
:1001E0000000000000000000054A0649136818449A
:1001F00088428CBF4FF0FF3310601846704700BF35
:100200000010002000800120FEE7000008B500F08B
:1002100013F8064B064A07498B4201D3FFF7AAFFA2
:1002200052F8040B43F8040BF6E700BF001000205F
:10023000C8BB000020120020044B054A9A60D3F886
:10024000882042F47002C3F88820704700ED00E077
:1002500000000000EFF3108072B6704700B962B67C
:100260007047000041F67132034B0121DA6342F21C
:100270000C029950704700BF0000034041F67132F4
:10028000044B0121DA6342F20C0299500022DA6336
:10029000704700BF00000340836813B98160704756
:1002A0005B685A68012AFBD159607047C369032B08
:1002B0009FBF00EB83020133D160C3617047C36904
:1002C000042B15D84FF09842116CC902FCD50433A9
:1002D0009B0013650168103B116041680C30116090
:1002E00050F8041C034411604FF09842984200D12A
:1002F000704750F8041B1160F8E7000010B5044681
:10030000FFF7A8FF024B1C60FFF7A8FF002010BDFD
:100310003C12002010B5FFF79DFF034B1C68FFF750
:100320009DFF204610BD00BF3C12002070B50C465A
:10033000154610B9FFF7EEFF38B143682BB12A46D6
:100340002146BDE8704000681847232070BDF7B50E
:100350000E4617461C4638B9FFF7DCFF04B901AC5E
:1003600020B9232003B0F0BD03B901AC8568002D8E
:10037000F7D023463A4631460068A847F2E7002006
:100380007047FEE74FF4005300204B607047012098
:1003900070470020704707B5002001AB0190FFF7C0
:1003A000D6FF0198002808BF4FF0FF3003B05DF87A
:1003B00004FB10B514460020FFF7B8FF204610BD1F
:1003C00010B500201C4600F0AFF9002820600CBFDB
:1003D0001B20002010BD08B5002000F0E7F9002820
:1003E0000CBF2F20002008BD07B500F02DFA022316
:1003F000009300231A461946184600F0F1F9034805
:10040000FFF77CFF002003B05DF804FB0410002020
:100410000020704700207047B0F5802F21D00FD802
:10042000B0F5803F1FD003D8002818BF01207047C7
:10043000B0F5003F19D0B0F5403F08BF2C20F4E7DD
:10044000B0F5202F13D004D8B0F5E02F08BF21203D
:10045000EBE7B0F5302F0CD0B0F57F0F08BF0620CA
:10046000E3E74B207047482070472A207047102050
:1004700070471120704708B570B1FFF720FF4FF0AB
:1004800098435A6CD202FCD5586D10F4702004D0F9
:10049000BDE80840FFF7C0BF212008BD08B528B15E
:1004A0002022002100F0A9FA002008BD2120FCE74D
:1004B00008B1FFF7F3BF21207047000010B50446D4
:1004C00068B161B10023074A8360C0E90023C361BA
:1004D000FFF7ECFE2046BDE81040FFF7CCBF21201F
:1004E00010BD00BF0000024310B5044668B161B101
:1004F0000023074A8360C0E90023C361FFF7D6FEEB
:100500002046BDE81040FFF7B6BF212010BD00BF58
:100510000000034370B50E4686B015460446D0B1C0
:10052000C9B1C2B100230D4A8360C0E90023C36191
:1005300001AB039301230493094B03A90593FFF730
:10054000ABFE2046FFF797FF18B9019B3360029B73
:100550002B6006B070BD2120FBE700BF0000044304
:10056000080000201FB5044698B191B100230A4A43
:100570008360C0E90023C361012301910293074B0B
:1005800001A90393FFF788FE2046FFF774FF04B02C
:1005900010BD2120FBE700BF00000843040000203D
:1005A0000369C1688B4297BF826803F1FF33D21899
:1005B00002F1FF3294BF501A581A70472DE9F041EA
:1005C000D0E9027405463E1B4068964220448846A6
:1005D000144404D900F004FAEC60BDE8F08132461E
:1005E000E41B00F0FDF9224608EB06016868F1E71C
:1005F0002DE9F8430646894617464FF00008C568BE
:100600003469B368A54228BFE418013C621B5C1B37
:10061000BC4228BF3C46944228BF144670684946F5
:100620002844224600F0DCF9B3682544AB4208BFF9
:1006300000253F1BA044A144F560E1D14046BDE840
:10064000F8830000032310B50F4C4FF48062C4E917
:1006500004330E4B0E49E3610023A16121660D496D
:10066000E01DC4E919120C49A3626362E3622367C7
:10067000E3666367226200F0E1F90849204600F072
:10068000DDF92023A37110BD001C002040160020BE
:10069000E818000040120020F1180000F5180000D2
:1006A0002DE9F84F1F4B16461A7881468A46984620
:1006B0000AB9FFF7C7FF182707FB09873D6FD7F86F
:1006C0006CB05D452BD9BC6E796E641BB44228BFFB
:1006D000344629445046224600F082F9BB6E254438
:1006E000AB4208BF0025A244361BABEB050B5E45B1
:1006F00028BF5E4656B1182303FB0983596E324664
:100700002944504600F06CF93444354424B1182390
:1007100003FB0988C8F870502046BDE8F88F002414
:10072000E3E700BF001C002010B50B46EFF3118477
:100730004FF0200181F311881946FFF7B1FF84F3D0
:10074000118810BDF8B51823174C00FB033503FBC7
:1007500000402544C46A0F46012C164611D024B12E
:10076000022C1BD000242046F8BD2846FFF718FFB6
:10077000B042F8D3324639462846FFF71FFF3446C9
:10078000F1E72846FFF70CFF8642344628BF0446AF
:10079000394622462846FFF711FFE4E72846BDE820
:1007A000F840FFF725BF00BF001C0020F8B50B4B39
:1007B00005461B780E4617460BB9FFF743FFEFF3CC
:1007C00011844FF0200181F311883A4631462846C2
:1007D000FFF7B8FF84F31188F8BD00BF001C0020AC
:1007E0002DE9F047174C98462378064689469246ED
:1007F0000BB9FFF727FF2369B3421FD9EFF3118726
:100800004FF0200181F3118876B1182106FB011504
:100810006319C3F804A0002301FB064144F80590C6
:10082000C1F820808B624B62182000FB0644089BB5
:10083000E36287F311880020BDE8F0874FF0FF30B6
:10084000FAE700BF001C0020FFF7FCBE4FF4005386
:1008500082B00193019B5A1E0192002BFAD1034AE8
:10086000136923F00403136130BFF9E700ED00E0E2
:1008700070B54FF0FF348CB02022002104A800F0A6
:10088000BCF80194FFF7B0FDFFF7C2FD04A8FFF725
:1008900005FE03AA02A904A8CDE90244FFF73AFE27
:1008A000DDE90212274800F0B1F801A904A8FFF71A
:1008B00059FE0199244800F0A9F8019B23F07F43D9
:1008C00023F0FF0323B9214800F0A0F8FFF7BEFF93
:1008D0001F4D2048EC68214600F098F8019B24F059
:1008E0007F4423F07F43A34201D31B48ECE71B4C1A
:1008F00023681B68013301D01948E5E704A8FFF716
:10090000CDFD294604A8FFF7D9FD06460146154846
:1009100000F07CF886B9FFF7A5FC04221249206894
:1009200000F0DAFFFFF7AAFC294604A8FFF7DCFD78
:1009300001460E4800F06AF804A8FFF7B9FDFFF77A
:1009400069FDC3E7A8B90000E7B90000FFB90000DE
:10095000FC18000042BA000062BA0000101000202B
:100960008DBA0000B2BA0000A4B90000CABA0000F3
:1009700008B5074B044613B1002100E000BF054B4A
:100980001868836A03B198472046FFF7FAFC00BF56
:100990000000000028BB000070B50D4D00260D4C76
:1009A000641BA410A64209D10B4D00260B4C00F08D
:1009B00085FF641BA410A64205D170BD55F8043B09
:1009C00001369847EEE755F8043B01369847F2E7C1
:1009D0001812002018120020181200201C120020EB
:1009E0000A44431E914200D1704710B511F8014BE3
:1009F000914203F8014FF9D110BD024403469342DE
:100A000000D1704703F8011BF9E700000FB40A4B4F
:100A100013B51C6824B1A36913B9204600F06EF821
:100A200005AB049AA1682046019300F08BF902B04F
:100A3000BDE8104004B0704714100020034611F8C0
:100A4000012B03F8012B002AF9D17047002310B5C0
:100A500004468360818119464366C281082283610E
:100A6000C0E90033C0E904335C30FFF7C6FF054B33
:100A700024626362044BA362044BE362044B23636E
:100A800010BD00BFCD120000EF12000027130000C0
:100A90004B130000014900F0AFB800BF2116000061
:100AA00070B54A1E68250E46554305F1740100F0E5
:100AB000C5F8044640B1002105F16802C0E90016FE
:100AC0000C30A060FFF799FF204670BD014800F090
:100AD000B2B800BFB01C0020014800F0ADB800BFA4
:100AE000B01C0020014800F0A6B800BFAB1C0020DD
:100AF000014800F0A1B800BFAB1C002010B50446AF
:100B0000FFF7F0FFA3691BB1BDE81040FFF7F0BF8E
:100B1000C4E9123323652046124B134A1B68A262B4
:100B2000A34204BF0123A36100F020F860602046C7
:100B300000F01CF8A060204600F018F80022E060E9
:100B400004216068FFF782FF01220921A068FFF7F6
:100B50007DFF02221221E068FFF778FF0123A361E5
:100B6000D2E700BF28BB0000950A0000F8B5074691
:100B7000FFF7ACFF1E4B1E68B36913B93046FFF791
:100B8000BDFF4836D6E90134013B03D533680BB3CA
:100B90003668F7E7B4F90C50D5B9164B04F1580094
:100BA0006566E36000F046F8FFF796FF2560A561F3
:100BB0000822294604F15C00C4E90155C4E9045542
:100BC000FFF71BFFC4E90D55C4E912552046F8BDD7
:100BD0006834D9E704213846FFF762FF04463060E5
:100BE0000028D5D1FFF778FF0C233B60EEE700BF6C
:100BF00028BB00000100FFFF2DE9F843804689462D
:100C000000F14804002614B93046BDE8F883D4E961
:100C10000175013F01D52468F5E7AB89012B07D9A0
:100C2000B5F90E30013303D029464046C847064384
:100C30006835EEE77047704770470000F8B5CD1C87
:100C4000064625F0030508350C2D38BF0C25002D70
:100C500001DBA94203D90C2333600020F8BD00F06A
:100C60009FFD21490A6814469CB9204F3B6823B96F
:100C70002146304600F01AFB38602946304600F025
:100C800015FB431C23D10C233046336000F08EFD4E
:100C9000E3E723685B1B17D40B2B03D923601C44A9
:100CA000256004E06368A2420CBF0B6053603046CD
:100CB00000F07CFD04F10B00231D20F00700C21A98
:100CC000CCD01B1AA350C9E722466468CCE7C41CE9
:100CD00024F00304A042E3D0211A304600F0E6FAE3
:100CE0000130DDD1CFE700BF401A0020441A0020B8
:100CF0009368013B002B936010B408DA9469A34217
:100D000001DB0A2903D15DF8044B00F023BB136813
:100D1000581C1060084619705DF8044B7047F8B510
:100D200006460F461446D518AC4201D1002007E014
:100D30003A4614F8011B3046FFF7DAFF431CF3D1A3
:100D4000F8BD00002DE9F04F0D469DB014461E463B
:100D5000074618B183690BB9FFF7D0FE854B9D425A
:100D60001BD17D686B6ED90705D4AB899A0502D477
:100D7000A86DFFF760FFAB891B0701D52B69EBB9A5
:100D80002946384600F04AFBC0B16B6ED8070ED535
:100D90004FF0FF301DB0BDE8F08F774B9D4201D181
:100DA000BD68DFE7754B9D4208BFFD68DAE7AB8998
:100DB0009905EDD4A86DFFF73FFFE9E70023DFF8C1
:100DC000C0914FF0010A0396099320238DF8293032
:100DD00030238DF82A3023461E4613F8012B0AB122
:100DE000252AF9D1B6EB040B0BD05B4622462946E7
:100DF0003846FFF794FF013000F0A380099B5B4465
:100E000009933378002B00F09C8000234FF0FF32D1
:100E10000136049307938DF853301A93CDE90523D7
:100E200034460522564814F8011B00F0ABFC049B25
:100E3000C0B9DA0644BF20228DF85320180744BFFA
:100E40002B228DF8532032782A2A13D03446079A61
:100E500000200A26214611F8013B303B092B4BD9D3
:100E600070B914E0A0EB090026460AFA00F0184316
:100E70000490D5E7039A111D1268002A039101DB43
:100E8000079204E0524243F002030792049323784E
:100E90002E2B0CD163782A2B33D1039B02341A1DDD
:100EA0001B68002B0392B8BF4FF0FF330593354EFC
:100EB00003222178304600F065FC38B14023801BC6
:100EC000013403FA00F0049B0343049314F8011B5C
:100ED00006222D488DF8281000F054FC00283FD041
:100EE0002A4B13BB039B073323F0070308330393F9
:100EF000099B434409936EE706FB023201200C462E
:100F0000A8E7002301340A2619460593204610F865
:100F1000012B303A092A03D9002BC8D00591C6E726
:100F200006FB012101230446F0E703AB2A4604A98E
:100F300038460093164B00E000BFB0F1FF3F8046FB
:100F4000D6D16B6ED90705D4AB899A0502D4A86DAA
:100F5000FFF772FEAB895B063FF51AAF099819E7F8
:100F600003AB2A4604A938460093094B00F08AF8DF
:100F7000E3E700BF4CBB00006CBB00002CBB0000D3
:100F80008CBB000092BB000096BB0000000000007C
:100F90001F0D00002DE9F04791461F468A6806465E
:100FA0000B690C46DDF820809342B8BF1346C9F8A0
:100FB000003091F8432012B10133C9F800302368A2
:100FC000990642BFD9F800300233C9F800302568CD
:100FD00015F0060507D104F1190AE368D9F80020D5
:100FE0009B1AAB422BDC94F843302268003318BFC5
:100FF0000123920630D404F1430239463046C047FB
:10100000013023D023681A3454F80E5C03F0060331
:10101000D9F800204FF00009042B54F8123C08BF07
:10102000AD1A54F80A2C14BF002525EAE575934241
:10103000C4BF9B1AED184D451AD1002008E00123CA
:10104000524639463046C047013003D14FF0FF3099
:10105000BDE8F0870135C0E7E1185A1C30200233A3
:10106000224481F8430094F8451082F84310C2E707
:101070000123224639463046C0470130E6D009F107
:101080000109D8E72DE9F04306460C4601F143007B
:10109000097E85B098466E2917460C9B00F0BA80F1
:1010A00024D8632939D00AD8002900F0C3805829F0
:1010B00000F0918004F1420584F8421035E0642983
:1010C00001D06929F6D125681A6815F0800F02F160
:1010D00004012CD012681960002A03DA2D23524231
:1010E00084F84330DFF8BCC10A233FE0732900F0E5
:1010F000A58008D86F2921D07029DBD1226842F061
:101100002002226003E0752918D07829D2D17822F4
:10111000DFF894C184F8452061E01A6804F14205C3
:10112000111D1960136884F84230012393E012689E
:1011300015F0400F196018BF12B2CDE7D4F800C007
:101140001A681CF0800F02F104051D6001D01268BE
:1011500003E01CF0400FFAD012886F29DFF844C179
:101160000CBF08230A23002184F843106568002D72
:10117000A560A2BF216821F0040121600AB9002DF9
:1011800046D005469342B2FBF3F103FB112E1CF847
:101190000EE005F801ED39D9082B0BD12368DA07E9
:1011A00008D5236962689A42DEBF302305F8013C06
:1011B00005F1FF35401B2061CDF800803B4603AAB6
:1011C00021463046FFF7E6FE013049D14FF0FF30AF
:1011D00005B0BDE8F083DFF8CCC084F845101D6889
:1011E000216855F8042B1D600D060BD5CD0744BFB3
:1011F00041F0200121601AB9236823F02003236005
:101200001023B0E74B0648BF92B2EFE70A46B9E7B2
:101210000546C1E71A68D4F800C0151D61691CF0C5
:10122000800F1D60136801D0196003E01CF0400FAF
:10123000FAD01980002305462361BDE71A68111D05
:101240001960002115686268284600F09BFA08B111
:10125000401B606063682361002384F84330ABE780
:1012600023692A4639463046C0470130AED023684C
:101270009B0713D4E068039B9842B8BF1846A7E7C2
:1012800001234A4639463046C04701309ED00135D9
:10129000E368039A9B1AAB42F2DCEBE7002504F10A
:1012A0001909F5E79DBB0000AEBB000038B500236F
:1012B000054C054608462360FEF796FF431C02D105
:1012C000236803B12B6038BDB41C002010B50C4658
:1012D000B1F90E1000F0BEFA0028ABBF636DA38910
:1012E0001B1823F48053ACBF6365A38110BD2DE9A7
:1012F000F0411F468B8905460C46DB05164605D591
:1013000002230022B1F90E1000F0C6F9A38932467B
:10131000B4F90E10284623F48053A3813B46BDE860
:10132000F04100F069B810B50C46B1F90E1000F0AC
:10133000B3F9431CA38915BF606523F4805343F4BC
:101340008053A38118BFA38110BDB1F90E1000F026
:10135000D3B80000F8B50E461446054618B18369A7
:101360000BB9FFF7CBFB214B9C422BD16C68A369D7
:10137000A360A3891A072FD523696BB32369F6B23B
:1013800020683746C01A6369834204DC2146284638
:1013900000F046F930BBA3680130013BA36023682D
:1013A0005A1C22601E706369834204D0A389DB0744
:1013B00006D50A2E04D12146284600F031F988B915
:1013C0003846F8BD0A4B9C4201D1AC68CFE7094BC7
:1013D0009C4208BFEC68CAE72146284600F01EF888
:1013E0000028CBD04FF0FF37EAE700BF4CBB00002E
:1013F0006CBB00002CBB000038B50546064C084607
:101400001146002222601A46FEF7D3FF431C02D188
:10141000236803B12B6038BDB41C0020324B70B57B
:101420001D6806460C4625B1AB6913B92846FFF77F
:1014300065FB2E4B9C420FD16C68B4F90C309AB20C
:1014400015072CD4D00611D40922326043F0400392
:101450004FF0FF30A3813EE0254B9C4201D1AC68A8
:10146000EBE7244B9C4208BFEC68E6E7510712D536
:10147000616B41B104F14403994202D0304600F05F
:101480009BF900236363A38923F02403A381002332
:10149000636023692360A38943F00803A381236960
:1014A0004BB9A38903F42073B3F5007F03D0214621
:1014B000304600F027F9A28912F001030CD0002376
:1014C000A36063695B42A361236953B9B4F90C302B
:1014D00013F08000BAD170BD920758BF6369A36052
:1014E000F2E70020F7E700BF141000204CBB00001B
:1014F0006CBB00002CBB000038B50023054C054632
:1015000008462360FEF73BFF431C02D1236803B16A
:101510002B6038BDB41C00208A892DE9F0410546B6
:1015200010070C4658D44B68002B05DC0B6C002BC5
:1015300002DC0020BDE8F081E66A002EF9D000232D
:1015400012F480522F682B6032D0606DA3895A0745
:1015500005D56368C01A636B0BB1236CC01A0023F6
:101560000246E66A2846216AB047431CA38906D191
:1015700029681D292CD8294ACA40D60728D5002217
:10158000D90462602269226004D5421C01D12B6813
:1015900003B96065616B2F600029CAD004F1440370
:1015A000994202D0284600F007F900206063C1E7A5
:1015B000216A01232846B047411CC7D12B68002B64
:1015C000C4D01D2B01D0162B01D12F60B1E7A38908
:1015D00043F04003A381ADE70F69002FA9D0930723
:1015E0000E680F600CBF4B690023A6EB07088B60E9
:1015F000B8F1000F9DDD43463A46216A2846A66AA7
:10160000B047002806DCA3894FF0FF3043F04003C9
:10161000A3818FE70744A8EB0008E9E70100402019
:1016200038B50B6905460C4613B90025284638BD68
:1016300018B183690BB9FFF761FA144B9C421BD1B7
:101640006C68B4F90C30002BEFD0626ED00704D474
:10165000990502D4A06DFFF7EEFA28462146FFF760
:101660005BFF636E0546DA07E0D4A3899B05DDD4F2
:10167000A06DFFF7E1FAD9E7054B9C4201D1AC68B8
:10168000DFE7044B9C4208BFEC68DAE74CBB000084
:101690006CBB00002CBB000038B50546064C084664
:1016A0001146002222601A46FEF773FE431C02D147
:1016B000236803B12B6038BDB41C002070B50E4602
:1016C000B1F90E1096B0144600291D4607DA002322
:1016D0002B60B3891A0610D44FF480630EE06A467B
:1016E00000F0CAF80028F2DB019A02F47042A2F579
:1016F00000535A425A412A60EEE7402300202360FB
:1017000016B070BD8B8973B59D0706460C4607D58C
:1017100004F14703236023610123636102B070BDBC
:1017200001AB6A46FFF7CAFF009905463046FFF74E
:1017300085FA48B9B4F90C309A05EFD423F00303C5
:1017400043F00203A381E3E70D4BB362A38920605A
:1017500043F080032061A381009B6361019B5BB127
:10176000B4F90E10304600F099F828B1A38923F09F
:10177000030343F00103A381A3891D43A581CDE7A2
:10178000950A0000C9B2024410B59042034601D147
:10179000002303E01C7801308C42F6D1184610BDBE
:1017A0000148FFF748BA00BFAC1C00200148FFF712
:1017B00043BA00BFAC1C002038B50546002945D00F
:1017C00051F8043C0C1F002BB8BFE418FFF7E8FFEA
:1017D0001F4A1368104633B9636014602846BDE899
:1017E0003840FFF7E3BFA3420CD921686218934247
:1017F00002BF1A685B685218636008BF2260046009
:10180000ECE713465A680AB1A242FAD91968581887
:10181000A0420BD120680144581819608242DDD1E2
:101820001068526801445A601960D7E702D90C2346
:101830002B60D3E7206821188A4202BF11685268E2
:101840000918626008BF21605C60C7E738BD00BF4F
:10185000401A002038B50546064C084611460022BD
:1018600022601A46FEF797FD431C02D1236803B19C
:101870002B6038BDB41C002038B50023064C05464B
:10188000084611462360FEF77DFD431C02D1236804
:1018900003B12B6038BD00BFB41C002038B5002355
:1018A000054C054608462360FEF771FD431C02D136
:1018B000236803B12B6038BDB41C0020F8B500BF0D
:1018C000F8BC08BC9E467047F8B500BFF8BC08BC21
:1018D0009E4670470000000001B40248844601BCE7
:1018E000604700BFAD1100205465726D696E616C78
:1018F000005254540053454747455200EB17A65E2B
:101900009DA0000000A000000B02010001010000EA
:10191000E8D5C57773C64C57222A771CE1D92BB579
:101920001840B4D0FF1B8575430BEC58ADF2CCBA10
:101930007D5CDAF53A9C049A6BB3914B2F971AA70A
:10194000012B37A3665A518F202712F427E9CB00C9
:10195000FC7DBAF42D2861276BCB4752BCB3815D67
:1019600000B371BDB1CB5BE6388A60D2261E70969B
:1019700063CF5157D73B52DB3866DF85AF3E0FD37D
:1019800082BC99BBA11A91D750AEFAE060143D3ADF
:101990009A31FC4263652DE91591859394AB4BAF69
:1019A00008BBFCA90EF1A9C094DA18E6C01DEABC78
:1019B00048E4553A3A927EEB0105629E35DA93BED1
:1019C000DF98DBB36E5F7E7F63DB83DB7BAE1C1156
:1019D00045467715F45E0173D2357FACC3A171E93A
:1019E000E0E24D24379B56663CB34F891C5FDACD4D
:1019F000CF7ED3B9EC051E5314F53254A4D3435D06
:101A0000EF6DB4F7D77326343C34C1B1974D24330E
:101A1000794AE3DF5E194F4AF9027F16422530E426
:101A2000E2BA029B4E62E140890EA9B90B154E1431
:101A30005217ECCB0148EB688B107278B17FF83FFE
:101A4000B1709FA6E7B289A7F1CA60622F004D501E
:101A50003270F2682D9D8A6EF2AD05A42F0C8E2394
:101A60004914C51135FF3C20EA04D7129E54F18871
:101A7000C966B13EFDE95B2EEBB7834F86A82161B5
:101A80004C5F6550FCB85BC1DC4CDF4CE04BE3BC09
:101A9000A62DBDE571403081F72718A09CD7FC9D8D
:101AA000F83380337C69519EC18611DF07C2E95C3F
:101AB00029B999184BB59F424A51D6AD34D730ADAC
:101AC00012EF0F27D31631B6805283F1711B3D41BF
:101AD0008768C611FCC664658DA4117B3F1E0CBDD2
:101AE00029E7EACD7AFF9BCFAAC6D7B75B3A807BBE
:101AF0008E6D80F85F96605598F61690FF0BC77B49
:101B0000871D3013B5C1A872FF2EAA785C966B872B
:101B1000AF429DB5B488005A85EDD8E558ECF45332
:101B20004B1592486CAF892C0C8BBD465364780CD6
:101B300035F87CC4A1D74ACDF82FF746F8B0C29A41
:101B40005A1346246C730371BF0D80A934D985EEF6
:101B50006D27E9D41F3D697B646FE3D47E6C5F1B06
:101B60009D9A330FF5AE8CDDCF96A9AFF3DEF34827
:101B7000337FA8E73BFE051A91DB84E56498147770
:101B8000F98F162C4EEC090270D34E3C39FB0D1C1C
:101B9000BB424C96831DD1264F569A520F08A3A0E4
:101BA000B646C07ADC878B5EA72FD0C295108FBB5C
:101BB00067E3F59CCA337C46A9343E2733AECC5448
:101BC000BB340FA68388037F3FE73306CD767F972C
:101BD00014A625751C445E0C75244F927E3D0B485F
:101BE000DE247EF0DE3F792EC3B7985DC7B61707B7
:101BF000C34164F2BF2C53F12063E7B4833498658A
:101C00005EF106DE139C984580E5B7EE42BE4D02BC
:101C100093663ADEAAD5367AFC98E30702CC3363A2
:101C20003358259AB8395766D34D3C0BC920FF1C51
:101C3000A262440F7F31BC7A39D4C3285F4827ACF5
:101C4000D72C535D1497BDDC1A77A6B44510537397
:101C50006A629A8A782A7C28E86ADEB5F083DC8892
:101C6000FA1622A0AD1C9C692F34F51B8079A87B45
:101C700067766ABB1970508C9B18F04F6246F75F0D
:101C800003FB6F258C8A15AEF498DBE0F96F87941F
:101C9000155F862FB7AC1262F86094FD415148C4BD
:101CA000AD74D3E02616886281D99690BBBAA0ECB9
:101CB0000D35E08E99D60C4A97A2173465F0F96479
:101CC000DB63B91DBC9EE2518550100D01C4CBDB16
:101CD000502A8F8F772B932184FDD5402C35054DCD
:101CE000F281D682A105347181477AF33A777CA5D7
:101CF0003D2F0640858C510A06AF538F14A3A0BB1D
:101D0000E50FFA554B125C31EB4AC2FD838B5FBC89
:101D1000126CE6C807BF932BAD2C49C8EED2AD5D5F
:101D200093822EF84B96D0721B6F0CF93D33F3570C
:101D30009D35D22FB128C882F5C71E93789874F1CB
:101D4000742B334772AE5713163BF60DC3DD2BC110
:101D5000EDEFF1EE39E0B6BF6C53156D2B8547956D
:101D60007022A3F020DA0A260C66C0D38A6FD5B0A1
:101D70001CED73AA4728059D0CA7A3502CD42BBAA1
:101D80004A4EA0396391928D25E195E6C290702567
:101D90008A39C52C80E0ADC4586B56867733E9A8E4
:101DA000F8C2876591F271ACA03FA2B123B4B457D9
:101DB000027D03008458D46F3C35E36CD459C203D0
:101DC0004EA8B03E10913787E4526B95DA2C681715
:101DD00068778D3D536E391B2AD2B60B4D29098287
:101DE000E982F793BE555B8F1FAD6EAF5EB62D5A7D
:101DF000BAF7BFB08633F09469F4D1C8B928AB62A2
:101E0000E03A93B8A2DC82FCF7C07B0E1E2DFA8F5D
:101E100053AB68EB1D7DABFD70E84AC9F0AEC12540
:101E200060FC1EF0AF17ED4DCBCC4A83B07F31B7CD
:101E30004D311726E96CB405C77D2A0E6D31EE854C
:101E4000964518E91349BE49A11C065285A914A854
:101E5000B1C457B863335866B779C29D2FB9545A85
:101E600058567F633762F3F9DBC7A643C1950A8CE6
:101E70001BFEC74381BC6112F42FCD77D3CD9E8169
:101E8000A02C46411ECCC680D902C58CAF3C1A4B53
:101E9000ED2B46B302E0405CABA951D26B223C571C
:101EA0003DE537C7AF49693F23EC63D1E2C5C66062
:101EB000B8B13934D405C8991DED67B7AE4C35F1CA
:101EC00048F0B28485CB96440E11363816D96D7F12
:101ED0003670E9C9C12DE1D80A977F2779B9F0DDBD
:101EE00042FCC1088B40E97A23840D18B2FF84A913
:101EF0006A73970D659D6A964C96482258D1DEC349
:101F00004F727807F6CAF2BA63F4335CF9B2F2B0F2
:101F10005C0E7E75B35BCE5101728687D0DC2F3AA2
:101F2000F651DF74FDAA87E4B3C7F05C48F567B4E7
:101F30000947B034DF4269CAB252A9F2050D3687AB
:101F40001326124F482CBE896E55FC0A645ED30BD3
:101F5000A7428586C97BE866354725D02F0074A047
:101F6000A7BCDB986AA05EF375A663F78CF088AE19
:101F7000D31887E3766E41D2BE7F9945016B320656
:101F80008924BAE89B20228FE045F80CE56922AB52
:101F9000A2A9CC9CFE43FB6F1BDC09BAB0D0AB2BD3
:101FA0001422309CF79BFB4A5F256702F958715E4B
:101FB0006F116D1C0CD9435034F2780447371EB1B1
:101FC0001E454CA1ABB4CDCD512F9AF0CC8AB3B7FE
:101FD000EB3D73B4794DBE774CDFEE386676FB6C23
:101FE0000FE5E3EDB6A231FF275BBBE8655F37A3E2
:101FF000D8068AEB273C8A9804707BD81E24707917
:10200000959FC94561536CA4B99A712B55AD1B5B63
:102010002BDF28C787730E44FA0BCB468A00EDFFEF
:10202000CEAA37FF8B3E0EE33544F99B1C7C5E83C2
:1020300006EB019F78EE5AC27E8A06AFFB5C7ACC33
:10204000C4976BD3B8226C6F19F4D61A314A2F3764
:1020500027322E3B998ADF034F98B8A24DA940AE94
:102060007A027B5EB9B6E8B9560150ECE30A84689F
:10207000957EAB3218DF9513EB526B6C41E0F25B4F
:10208000BEDD9B20D08BB07CA4D599C19DCAA99DF3
:102090001DB98E5A0E36680BF9445D0CBBFD03B6B4
:1020A00060793174BA0F31096F5F13498B88C0A909
:1020B000F6B142C77A8A7F1DFEBED5690D40254C18
:1020C000E78B099A7E45CFB2735CBDB355F68D9A06
:1020D00036CB7C2D3C574C90B426E74D953E86156B
:1020E000DC0A60F3413626E14A5131784EB4CBBA6E
:1020F0007199B204AA6D1F6C92F86D88CDA92479EC
:102100003D0EA123CF2473EF1D5878830FA9F00350
:102110004DC5FDB64039535236390E1E49C8D0EC74
:102120003B02DC48E2D26013FCA2D567C4F0A002F7
:1021300097674220042260965B05DDC8225FBBE101
:102140009D6FDC86EAD1EFFD5EE8A6268A9A811FA4
:102150000806B674317AACB9A941B830533E3D1285
:1021600029ABB3F7B71F92876C029EF4AE443D14BF
:1021700072EF1C398D5BE54940E6F7125F1104B33D
:102180000C617FEDB47918726A3887F11B6DB475F4
:1021900072C7AA16CA725A7282AD8341E19FB79D77
:1021A000B1B6FC1BDD2511358B8CB077CEA9C29161
:1021B0008724CF05F2C3BF932ECF36C9B83C4DEC70
:1021C000B3B6060DBE1E9A424165956E9CF8B27577
:1021D00010223934382FAE96F06185A773D50B9C49
:1021E0001CA983A3C412A42B751BDC52147B651E8F
:1021F00004AD378EFB2AC17E2A529A59D32D81CA4B
:10220000C4D722808E754DA5AFA6A62F15AA7854E7
:10221000AE7742AB29BA2247688DDD18775F9246C8
:102220004BC47377F90914445DEB1E1DE2DE6FA009
:10223000BE5BAAA219711C0DC83BEC85EE6C58DF81
:10224000A16A0EA5184A9A6CE95C0C3D0AD2742268
:10225000056738671C97B543BAE0FD9ECC0A6C83CE
:10226000B03997F0A19B13C3F3A19FB71A66960BE1
:10227000D1482289027F940A0F0BC08A1833BB7D94
:10228000B2BDEC096C48503DFECEE3CB828CE00D34
:1022900090DC7D157747A4C35DC480205CF73A7657
:1022A000A96115DD3894D0EA2375D3D3AD8C7AC7F4
:1022B000C323502E07709943ADB27D25A39331F807
:1022C00076879F68B2A5473E371D47EE85F8C2C1A5
:1022D0006885F19A8AE57EAAC6AA025158AA7EBEEE
:1022E00066749D0226FDB0E4EAB26F4C694CCF5192
:1022F000B011A2AD2EFADA4FA1BD65EC659404EAE7
:10230000B515DB7A93D441EA6EC3A071CC9F7113EB
:102310001FD7C9FDCCB81DAA760E40D0B8763BD2E7
:10232000272D59CCC2241B223F24C7E4E64F746BEF
:10233000FAF4AFF3BF3DBD9592B72668243F5DA880
:1023400017D41892407AD0E6FBAA484BC03EA97B2E
:10235000323DCF00F1EAE731CD559ABAE121FA1CBE
:10236000A938A3127A2A7636367772227B2FB0F3F9
:102370003ADC839B4B51DE89E86F4E17266C231F96
:1023800098D02BFDFADC043EB94C74563AC6476728
:10239000934F4EC0ED523DC96E3A9F698D91CB2C43
:1023A000F48C6919622A2F512C90670534BD8A80FC
:1023B000232F7B1F220D92942B19F9CC7E4D26D210
:1023C00039750001F108F7CF7335D7155338BC0BB9
:1023D000D348DFEAC5B57F8727B7B9099352F4B16F
:1023E00033411FF3E749A5933FEAC8C6A47EC60B55
:1023F000254556756F2A74AE7485C10E6D94DA3614
:10240000D7D394869BB5F4CB56D01C234F8B034176
:102410006386A8DDEE8B6877486716F544DCF040EC
:10242000F80107ECB324912D46BA6B4B273C2BE502
:10243000EBFFE438E1B1E768B0194A37054F95AAD8
:1024400017B1BFF401743E1DC84C83DA994D546135
:102450007A9A5F6B6174F6BEFE3A1EEED1D9171CF4
:102460005E47E0F3C26A95C3F29FA3242FA3EB0457
:10247000C9427D4370D40FAA9439E0AF69B34B14BD
:10248000B808307A744DF73FAE42F6F1A8524B715E
:1024900026169D6ACB43F71864E75314D3F1F66808
:1024A000CA45E1096ED6D75EF00F5A67750F974996
:1024B0007A6E001A510DB2308F693AEEDB285699C8
:1024C000CC9DB56EFEEFD443B50B1A71B9A8E5B03B
:1024D000CD8DF5FA04D65DE55D3C080A626E2346B3
:1024E000F57BFEEF363FFE5371556DFE2FBCB8D91C
:1024F0004D775E9B5631CF9D2FCD5A15B233EB4BA6
:102500001240D82B8571E5C94027FC1D803834E581
:10251000E2357FAFC43C505747E4017D470F48D7B1
:102520005628884312289B6CE7FD65C19A02D8BCE7
:1025300019590F80D944FB15A131DA4EF40099A244
:10254000A6D96865613224BBD4ED9A87DCB83E3ADF
:102550002E399D833DDAC5510E426EB5BEB4C452CC
:1025600090DA59B0AB92958C815508CEBE29E6170A
:102570005C7E021BEAC968A4181FDC6D4E7E29F13F
:102580002C7EBBB42EFF0582738D76C284E0804919
:10259000E9D06E1D4257DB33FB0B141D434228303C
:1025A0009CF15300D1D4106DE6604B027D2B8692D6
:1025B000F814520854E5C5ABB8D479B1FDBE5D9BA3
:1025C0006C2F1EA4E42B4F0D7E5D541B0CE0AD3F21
:1025D0007DE26689D8077859415F5BD0B2A66AD39D
:1025E0003C6F47C73AC1332A9600B8F7AC1B0E5769
:1025F0001F27224DF512E8BD14B6B9432B45D8E28A
:102600001A91A9697B904BDFD00E82366D086FE27C
:102610002809074B2BA4DAD02167DA2AD3C12F77F8
:10262000F07E834F1A60F50089EB8C331F37F1770A
:102630002101B9517D211FC995BC5CB5546997230F
:102640005F5B73D22430E660BF2128B18BF6A957B7
:10265000EC6D513F76D3F53A3941656BE8AF051A19
:10266000F16F0345E1A7CFE3CDD940D3E70E136166
:10267000F1FCF3187E1496C910D846104B18C931D6
:10268000A582DB3BFCE2534BB02E96EB98FF4FAE9E
:102690007A13B55CAF913A5193F21559D418188951
:1026A000D6068447DD750B1FE3C932E1BDB5EDD514
:1026B000168AF0F86B37FCA14FF63BB6126709702B
:1026C000B8206F1B816203A17BCA4E9875D6A910F2
:1026D0006219E041A3600C033464A449AB46FFECEB
:1026E0001BDF26D0F28DB31025485B8EDF2268AD4C
:1026F0005B2DCE4C166160F25B5ECABA61DB2FAA1D
:10270000AE3F780406ED302AAD96B7382677C2037F
:10271000BA4C22A8739FB11010E76EC7D514FFF30F
:1027200076A05EEE03545DC016EC4A2AD56907A375
:102730008DE279601C958C1EE9FE2A880E0627D151
:10274000112AC6715900070EEDE8E2B235D79E8214
:10275000812C9CD7DD81112AF83BE24138C46F946B
:102760000E6D182F3706A16A5DF6FB59CF5E4B2A16
:102770009CF1DE1E4FAD83CE42A5C4D73D65F53238
:102780006EAD82F8166A7FF46B78FBD62302FF8C5D
:10279000D3944FB68BD1912828F464CB12BAFE940F
:1027A000CFA77DFE2EE973846A2884B4799962D715
:1027B000E34C97E53E0C83BA15C1E54410A6958F0E
:1027C0008BA5AFE76C393789331473616FCC25A9BA
:1027D000345B084EDBD6ECA414859BA718982F1900
:1027E000909BC312D43F9070DABBE52F0C2F54C2DC
:1027F000B1DCFC126D0C270EDA877EC5A7DF49120B
:10280000E8234DF9D2DFF11786FE0C4908486B61C9
:102810008649102270050C8D84230C41675904B938
:10282000CB2A9BF860997B9FD2CD089DD2B2AA900B
:102830005D0BA50140C632C611EB581E9AF46F34E9
:10284000C53E8CD12C28C1E4C29BF194C1DBF4AA13
:10285000178FF7597AAFFC41E6A3059878870B7478
:10286000DDB3F6361DFC94CD4F5C18B639F24BAD96
:10287000F58C17BAD0B17ACAF89E5F6F4D6069D0F7
:10288000B974436C593C0747F3763709B50B0F3BD6
:102890008D2D15CA72A9C9DD3CFF2222BCD60E605F
:1028A0005D0164E5D91D33E677D31AE2ABE8BD0FCD
:1028B00072D209D1F4DC3154DD3580AA8A90CB671D
:1028C000C45817D15A69A77166D105D2CDFBC597F7
:1028D0006E0812972303AF8C167DE9FDB279E728C5
:1028E0008257BE01644FD726A7BE0B8DCE7F9DA514
:1028F0009901E41C4DD458A6C40E74C25B84ED1833
:1029000066E38EC88E48247C369AAD1895158EE302
:102910000487C4A33C1F13EDBDB3EDF4B75655AB0C
:1029200030487A5D4736D5B994ED1B278672DC2F87
:10293000E6735843D5AC1EBD66DD977BC09FD8D9E2
:102940003700F192BB6C079F7F0221871C79A100A1
:10295000786E3B40020150B400423A6FA05DC168FE
:10296000BF3B85F7FC1E1728D21542F37BAD4172A1
:10297000AA7676473AD45D6208314A361012C763A8
:10298000E5A146BD53894DB33860D0B1D5EA0BD52A
:1029900074C66D42827D56974B6253CF5A1837FDED
:1029A0006B428D71E52824D030029E9C47DAFF5B94
:1029B000CE99AAE3B851E38BCDE8445BA0860C2FF7
:1029C000FD7770797E610D089436286270687D0B02
:1029D000B886944FB2D22160C057EEC37F087422EC
:1029E000201BC39044DA34FC39885828BCE9C22340
:1029F0008EEAD9E4051217EC27C7D03F2B567C0886
:102A000044E557A46349B61C25A91CFE5B0A4B3953
:102A1000962ED22CF22C12CBC97C8D3CAB7A1D8227
:102A200047E80A48BD135B5E6361737E6DD2D35580
:102A30009D910F962F4C0E4EF4A1DBC1D408FDD30F
:102A4000C002BC65B9794F241616F795273A48128B
:102A500054A7DDC2E6E2EC3C81C4A8452DDD86BD6D
:102A6000A178F1CB09EDF7670E232688A56064A84D
:102A7000513424430F4D0757054407F0D07B6D3187
:102A800076E3B75DE7CDC1B8E259F62F7458C9A017
:102A9000D509C4399B8D037F533B174ACD34E34698
:102AA000B5BE21B128DA42391B6A1E5F2ACD70F506
:102AB000937B56BC286E80AE81124AEB39F37C9C26
:102AC000C450A376C33F30BCE55613BA564A517F73
:102AD000BF8EFF615472967B7B817BFA277A6F1ED3
:102AE000A96A993000103BBA1CC36F676F4D4CE167
:102AF00052D19B46E42D58EBC62CFA4636A9ECC9B8
:102B0000BDB6EBA6C26E3AF15B8D42378C995CF094
:102B1000E5ACB85A41BC822FFEE80FF6239DF1398F
:102B2000E53D1BBDB214D4DD69D813D4904BA23A55
:102B3000865F175772B377FB147904C375CF6C2B7C
:102B40004AF8CB0C99060AA025BAE6C46DF88E3770
:102B5000A8253384B02CDFDD0ED83BB01B1533879E
:102B60005ECBC108732A21CEB3EE36DF9F69703A7F
:102B70009696FFC7F7719A8DBF0C720B76BD07F65C
:102B80002EFF3D01D324135D8339C5D192AA18AA23
:102B9000DCABDAF8F0E09023CC8268F74A27897939
:102BA0002746A92832010A6B6947B608C0E0EE81C2
:102BB000A8D77483F516BE2B0D3ED9C4C69E8A5382
:102BC0008BB99B88FE95C4F7663CDED936A3DDDE63
:102BD00095F1B17769F11E24571BAA48A1F730C8B7
:102BE000A47E60AB979283414AB5F0635B51864601
:102BF000F275C83F82E75A86FDEA9F37609F27B685
:102C00006ADBD42EC3A360E99769EB49B70EA1999B
:102C1000A5514AF577B07A8FCE666E39C8392E0A3B
:102C20001F2C40074368824CA75C795D408E6CFC8A
:102C300001C03456C8BABEC22FF02F559900FECB42
:102C4000EB2727EE6AB7CC3B55AAAA426C740A99C7
:102C50006E12173296717B130BC6142D781C163D1D
:102C6000B2F7128211F803D01344E0B90FF2E7165D
:102C70005C8BA69CD7651DCBDEB6E3D001C43E9429
:102C8000753A55E25800A61B9278105B9972207332
:102C9000AC8C44B07C737486A4BFB2739451D625B7
:102CA00096B448182E8E325CEAF433EB0732D92CF6
:102CB000E5D1942A8E6CC8DFC66CE79213BC07CBB3
:102CC00058059D70B3DE92E51E34C6A607C4143DB8
:102CD000EE28B2FD04CC1B73AB0F671CE8914C0BC4
:102CE000D717B6814D46EF956DBEBF0BFB9CF3F534
:102CF000E7B3D497232C26C0243C92F17F57544647
:102D00006BE7B2F0898C8E3D6B8BC06E893DE7FE20
:102D10001AB8E0D7B5B4CF828D741418C3FFB49F2E
:102D20000FB0827C2886F4E9AF387772882139A405
:102D30001334D00DA220DCB3B3501AF860FF51E277
:102D4000BFAF409D50CBAF4D4A28DDDA7292EFE91C
:102D500062C61C268DAA3EADA94049A79083F02AE1
:102D6000329B06068B2E6422EDA39E8306C8BAA66C
:102D700008D1EBC1944519A49EEE55FD7B318DA27F
:102D80006C01E1ED3B429958EEBEECEAA1B9714D00
:102D9000E451A85CF53B9C19F7A1A55DEA9D3DD8DF
:102DA000110255D9A072E2A531BFB392B0D7E5D4D4
:102DB000630DCFB421B51B636ED812F9A9D0E59D80
:102DC0002ADBE53F30848B9A26B200A8743451D4B4
:102DD000BB0180220BA10A0894FC5F426380E526B8
:102DE0003B1098045755A179753A0789E377052B6D
:102DF000E080742DDBB95E18C2A3A84C24ED0F87C8
:102E0000417EFC99C3EC1ACFC9A05A822099C90807
:102E1000951DAE1FBF543006737DBD3ABB40B4094B
:102E2000D183B37CD8C648F416B3EB191FADC543A4
:102E3000405165F7291C8575102C72FA9FEA578C52
:102E4000BBE6F33332BD895AC2D73F9FA9321D3644
:102E5000F6848E363691AE1B47544270B93D170D3D
:102E6000303ECE5764508394928D93EBA9030B2E82
:102E7000BC90E28B2C66C980B68628FE3E2724D6FD
:102E8000A3F84E403AD68E062C743F650E3FA17EC5
:102E900047DC526AC039CFDD8F137F6AACADCCE519
:102EA000FBB8BA9B8C0D7BA4026FD50EC692AAFB11
:102EB0008A8588A5598886C87DFE415D7B7A148302
:102EC0003024EDCB4DABCE677522A0D39D966F72AB
:102ED000C4DF16677789A0215B8F66AA8808B99935
:102EE00010CD1E5D5CD694DE3C7D0D8250F3DD3B43
:102EF0007A4FA9F7F82D22D56A973935131AFC07AE
:102F000082D11DD3D8156CC158B210F2957D42B450
:102F100058B3EEACF5197EF2CDE3D61A518D2322CB
:102F20007D532CB89582393815CEFA2CBFF4FAB4FB
:102F3000571E9E1208B14A0F893A657A958CEA5954
:102F4000D6E7A6ABEBC33CD108E92992C5E65B0DF9
:102F5000234DFD0A030CE75D61FEC84DAF71EE4BDA
:102F6000D46B9DB23A71414060DD689E193C89D0B6
:102F70004D4265771F041B898CC10CCE17DFC19AA7
:102F80002FA93725E4B2B71BE219679F8A8D2789DD
:102F9000C3297030CE699D2DAC0D22E31A87CDE395
:102FA000CB9182494C4C304698F00411CF4A7B6952
:102FB0004B1BD385A206A38A9804E1BE0A0AC3CCA0
:102FC0008C47A11BA668863FFB86DABDAA25545E06
:102FD0005D04622BFA62A022BD78F31D44EAE44549
:102FE000A42910F29FB9AC13FD502C609703ADEAF1
:102FF0006D8FAEDC9D74C00AB807C86F9A0025506B
:10300000EE05EE96033CB7F331B128DC10C7E09C27
:1030100068FEFA2FF2FCC5909FB564B1B6BF193BAC
:103020006B89B01F7CBD54F762F56FC5F47E41E338
:103030009CAA3A025C04B4CA61789B89865C35DD3F
:103040002B741D99730B119661065691A7602D166E
:10305000C66BD575519B2BA5549499E75727414FC3
:103060008C287A3D09AE3E45F8CE6E6750937CCEF3
:103070007B093C2FDAB58ADBC3216A7CEE556956A1
:103080003A563C5F3FAB23EC38C7066F673C106293
:10309000F77DE5C30B4DEC8987BE1E2BDB53EDC8D6
:1030A0007B4086ED1D66473BAF84F5F0F6951569CC
:1030B000F3887EA570D729FBF34796161871EF3A6F
:1030C000D70F6F59B6B152EE1E05DD15CEF47F60F5
:1030D000B5298B8D4AB3BEAE3CAB21566C17B85E9A
:1030E000A17C19A272E30015C3564226C195C2E81D
:1030F00099DE8D6A834DC6018AB1BB689812CE6293
:10310000BA7569957812D5711E6BA895F396FB4C2C
:103110002422888C2594ADA1CA6709011EC175407F
:10312000A6299279942E5196F8ABF0E35AEE6B9F54
:103130009C390128F863812163D1AF47BFE2643C29
:10314000DC736492BB03438FF23CED910C2C0FF2C5
:10315000E7ED0AEEC45D2AFD50C34CE1BD5211C13A
:10316000B9D4EE10A148060707D1174EF329F994F8
:10317000C7522F765A23B04551D9D8BF907895E3DE
:1031800056E72A87DB74A6C7E4D5A997728E9F5BA2
:10319000CE24B4E44660A851F3E566604869B97787
:1031A0002DF613473F9AB428707AC0DA331ABE6DF1
:1031B000458BE7E2C2354EFFA6A86CFFF290E626EB
:1031C00028F2F43D559C190054E7DD823FC7FD63AA
:1031D000FCDECF5556D7956AA37086374105CF1EC2
:1031E0001F5691DA55C871E80E047A959DC538725C
:1031F000ACD8E835E265C2C511CB4059913C2F19D6
:10320000043489D12EA1505013E414659C77ADBCD1
:10321000901DDC3D09B7BC09E5C7113D499C5B1D0C
:103220001A692DFF8EE5165391D9883945C8835800
:10323000AAB88B93FACA9D169C01654666E0C8DB66
:1032400087CB24DB80479141650A0D9C56A51CA9BC
:103250001953D7536BCECB9CC9F9D73436945F132F
:103260005BB75AC0DEA571187855BF8D634D2692A5
:10327000933BDA5D181587E7814CB1822FFBC0982C
:10328000893C8E1F5716605C8C05EA2717CD7CA4FD
:10329000A918F58EB2B671713649CCFFEB3310CE5A
:1032A0002A5D266F135F56AAC4C16E458ED947CCDE
:1032B00081A6C78160A72533FCDE34BCDF8CB12535
:1032C0007C35897DF0FCFCD765D19D2D7D7F4A9FA3
:1032D000B2C5D63DF6E5A2535AC2863BBD59EA8E29
:1032E00010643EF78FB2A872834F8162CDA3F38F33
:1032F00032F8E3C24761E4287251E18FE33235BE10
:1033000080894C110394E8FB623E416366E19CC6F0
:103310003760512EA2BF106E1E4254089BA5BFAD50
:10332000C438C7506C24CED4A120362925D8B2F396
:10333000BF6ACEA9E0A24690B1734FE0F430B29DCF
:103340002BC41C84A25D5BB169F2963380C5998958
:10335000FEDDA1BCD2CB891903B11785308A3E7F2F
:10336000CC2D0D130C121293F2E42A24CD25EA423F
:10337000E60F109EDD0248B991F2F5A298C8A2901E
:1033800090CB8605EC84E1D33E3F94421E3B6CF229
:103390000D8E0D26784B31F41D2CCE2D2017C751E4
:1033A000813142FD7E74A64E40A968DBE103CFC2A5
:1033B00085F58CFFF4C7DCE0F808D6CB4673E58AC8
:1033C000FADC92F0B54F30872C79BB7FF8545D80E2
:1033D000C4EB751F1D50C90B9EA46C1CE27F27C255
:1033E0007C0D62DD9D74523239B9A4BCDA9630533B
:1033F000D42A7FFF2600D1CF84B7940C12D0FA9A3A
:10340000FBA0393E48DA3F7EF344FC55CD0FE4EE95
:103410009CBCCC3875861AB9334A562D56DD0C80C3
:1034200018287202CDB0BFC229705DA5F64688A1EA
:103430005F6993A5695E0ADEABF895457196C88110
:103440001FD8727A88EBECB8BE236EB304337D606C
:10345000D6F0FFEFF34342577B2401911E4851B948
:10346000157D267869DA41B04AFF30B6C199D35547
:10347000717740C4684AF6A8F330DDD02A18911756
:10348000C5ED350CC2D5D7B2EDFF588BE5E51E7200
:10349000290D9E7C3860AE62C1B1E9D01689606AA0
:1034A0008536914167627F40AC31E8F681FD349EFC
:1034B0000F5C39417D8C2A80CF6C615428201C3AE6
:1034C0009D8FAD3C227EBF3A164957F682908D27DC
:1034D000B607270431F254836B2B3918D42352AF2B
:1034E000530508C81C893BDC42DC1545561E3AC50D
:1034F0005841876ACF790012C9912F04DA9B44EDB5
:103500002C970BC48E86946AB5882100FFA714847B
:10351000F510BE4E4F4E1C15643D8458C1745A7050
:1035200023072F411A246CF5C605301456C8CDD98F
:103530004EFB6224FBDDA6E92BC137C20BD1422D25
:10354000F83B508285102D96661196BBCD3930F12F
:10355000AF78B14D0E3786EC28A5BA24F5D51939C8
:10356000B9D0C43E627AB38643815733A5A0F9F837
:10357000ED591B66E721B53502B7DCF7B57FB236EA
:10358000E2C6FE94DFDCED3C88039A7A8B983E011C
:103590005B09F5B737AFAE9C2AB7E9BD3E714B3E2C
:1035A00049958A36F2FE65BECDA3E5F684F41D0387
:1035B00016C2620C6515DE1D48F68F72E8B73DD85D
:1035C0008CF3A448B1F321F0516EC8501D6B070E67
:1035D0006B6F9D9925669F334C77DBE2BEDFF25F10
:1035E000C72530B11DC1F1D55B047C76A387CFFB25
:1035F00006BDBD529F6C1BA0A0B4868A765FC0BA80
:10360000F370228494D1E2DC8DE4D2347648C0ECAD
:10361000812B769AF4ECC77F7E02485BCA9891654D
:103620005CCA8D081ED1C2530FC15615162CD71374
:1036300069EBC4B1B6B8AD98F2605DC55F9A643904
:10364000F50A06D9E2325F946D6816B8C708DA1B2E
:103650001011138E5C48E8A5B5D43356AD56F71754
:103660008CFDDC6F7C8FE94231265A94F4E1A5CAC7
:10367000AC186A810734B42A90D449EBDA45976DC7
:103680006EF986C5627B5F426AA28EA77A705F9EE2
:10369000937C5C557E62CF2E57CC852D51B5C8BD2D
:1036A000071DDB554C783CA62DFB8AD4CD3D9429D3
:1036B00041CEFDE8EF2BE7FFC037D6B7DA50C9D2CD
:1036C00081D1E5C812BC52752C90E57227789C8D8B
:1036D0005996278CEAD888C7F735EB921CF79CF0EF
:1036E000EDB0324940380B577E126BEC63365F1DEC
:1036F000CB16734452474590BEA353B143E72C7C8D
:10370000B6728C48571231FA72202068467D345CBC
:103710009BEC90C62478EAC049FCC639C08FF4956A
:10372000E967E718903D66C35E0E66105968208908
:103730002EAC5FA04FAC0E4CA3FA348170BA20A31C
:10374000FC5B02D4A163E498F60E9F76F5F40BD7E8
:103750001B5C4B92723732CC94C5D763C8EA2858A9
:1037600006B51927AD16BC7F4F1AD9E5E012775977
:10377000D8D662F79C0C1CFA68DCBB2982A76CB512
:10378000EDA0F47685145C91C2309E2932DE0238B9
:10379000101E1CCF7146ABC4CB8DE3DC74858065F5
:1037A000FB3EC94BDFE48BDC976DE15CDF6691C7C4
:1037B0004629D5A8ED0E64EB46E5583C42E07CA3D3
:1037C000A048C98DC7ACDD11A2A465C1626B9C1F66
:1037D000A1047ADBE5CB30406455DF686662209156
:1037E0002C5F704A087B8117C5456ABFE03B46FAEB
:1037F0005EFB56967712889DA25A909BFB4EA1E6DF
:1038000095F89811E5A0DD56BB817D7590C727C658
:10381000E2CE6BA56E31ABF71E075EEDE41E017CB8
:1038200037E13532A877911CA4F8AAD027491D6C3E
:103830000F4D84B2EF590ED90572DAD0333540BA44
:10384000B95784A31D2BB480D6DEBDBE9AEEF2DF3D
:10385000949D96030306E86B7834CDA8C4FA37BC70
:10386000605D361D16803A299275DDF3413553EAC5
:10387000D6C11485BE0E1E0789CFD55AE9939F2560
:10388000067572C376F916B0EA10E847EFB701275C
:10389000A2334BBA19E25F14A47979EBFACD32D393
:1038A000956425C82BD9D0C62BC089945EDA9E7A40
:1038B0004C9D050A3582292099763CFACB04BDA09F
:1038C000A06F64D2E3DB44A6C25C9B31371B60F976
:1038D0003186CD9764852C1447027A2DE46662DE2A
:1038E0001E5C2403628BD6E2A5A2855D9BE8EF35C2
:1038F000181342A19CFFC3CEB5D6A4DA2707F075F2
:103900006769AC01676DB4FD47466731730E8F5E22
:10391000FA9E190E12A19F19C9CAED951B2ED06DE2
:1039200000816CA5D76AF20DE0D1E99081E87DA60F
:10393000C89D130137F02C4D01352E5B4ED2BC1BB8
:103940005B1C5A651286B238D8AC0684A0D9723195
:103950005361B3998F5EBE48C8CE6399696214E122
:10396000ADD20698412CD650FFCA3BFAC0CBDDB091
:10397000748A73F002E0F2BB1C9B63FC289F65DA3B
:10398000EFA19AB0C73322C6A3474D3252E882BA9C
:10399000DDBEAAC6D8BC28F2C873C30FAA6A292DF7
:1039A000434180368B26EB161795AFA1B5152456EB
:1039B0008CB8E4AC5831E4D778A1CE07E31408DB27
:1039C000B5DF6B7D85DCE8D599A1DD7DD4B0E9005C
:1039D00001980CBD06C8573489E09C5397A5263240
:1039E000174248B15DE8E6D4B7C6AEE1660FF2C350
:1039F0007D8C801E8D0E6C636D1C62271495024DAC
:103A0000328D58C4838E37CCFA890A89DF8F3D4CBA
:103A1000D15FADD0AA48682B64826342D68E8FB145
:103A2000A1157622922EBF57C157954B6DE8DC4009
:103A3000611B948845AAA0CC4FD17C7ED15FD8B8B9
:103A40008912557EBE744FB27C23D52EF8910CFF9F
:103A5000BF3E9138CA46EC62E495FF4EEDD65FB1A9
:103A60002DDE643A6988AA22A6AC7229B4FE23E44A
:103A700045170BB20198650C1AA8707EA6E45F5436
:103A80004CDF219370E2EF3E63E294E88C94D3D054
:103A9000AE3DE62A7870794D3AFE7F036792ACE13D
:103AA000B5C0EF8C4614A9915CA64FA9E30A17C9CB
:103AB00012072093581CD7C722137D516502C6BD3B
:103AC0008B1CCD30F198BF2BB1062F836C34C7DB34
:103AD000F610ED00862FB10715E23CD757FC3FE802
:103AE0008B49F65216DB55D4119AA467736037F8E8
:103AF0008A4884C4A7499ED7D4E9CAFA075696B41F
:103B0000B36D9B5BA9DA6DA858A97430A7D58868F6
:103B1000B1E4D54867F7F92727D12DA1A2DD872C7D
:103B2000EDA920D445B7B7749EEBFD9AC6C5EDA5A7
:103B30005B094E4A4DC38EDBAC0D3B880FD134215F
:103B4000DB316BFCBEAA1C2EB3C88A888451441595
:103B50009B900C068C314C4B2D4E796435DC0392D6
:103B600017603C296068A59E1D6487FF7EB4C7E18D
:103B7000C83E3E1DC0253BD7382B3F15ADA94E6032
:103B80005815F4E9A769574B8CFBB418BB21DDC16C
:103B900076666B052C696700F812CE778584391735
:103BA00025D4A45A4AA679C5AAF50C7D532ECCD8A3
:103BB00007733E71537D339F498191B84535255335
:103BC000E569DBBDF07324BD8A3DDA738951B462C7
:103BD00047C50BFB5DF746C6518ED19EC1DD1F1157
:103BE0005BD9DBA774C706BCB755B8E292B1B8255C
:103BF00001C407AB614C0282C5A4F836DCEC2DE6AB
:103C000004866AD70C76459ACB3AE475B0A9D3916D
:103C10002389B6490A1FEA9165DE32288DC8AE3580
:103C2000CBD7383D076563F36AB3605ACCED9C800F
:103C30009926F588612BF46E85EF23A6AAA5E87F67
:103C40009CD68C9E90A9A4D66130BAAD4015ECEA02
:103C5000D845F28A2C6BB1A3927EFBBDDD3D3F4E71
:103C6000C304C07894F86207FD28AA9D1FD01529C7
:103C7000A2E74788AA4688524E12A424658A0AF50C
:103C80009CDDFA2B954ED11A39B73E808003D66A57
:103C900043C1861723A901CC7817D50E20BCC8A82C
:103CA0005DC242B83F96EFC2D667DB48F0B06FE71F
:103CB000E4FD5A2815C712202D7283BF624F5F6D35
:103CC000878EFF1134052A18E51A1B58083D81F12B
:103CD00043C6722E3720A8AB6010F8FAEB7D15C3EF
:103CE0002C4C2C08CC7BC54AD5682754CB89221490
:103CF000F29DA8ECDC24731BE2924C87F95E7603FC
:103D0000C358DC17119FD040D59B05CED1D27EFC85
:103D1000CF39591AFD32CD302312AD99F7184ABB6D
:103D2000A937D8064AD0DEB5770AB9088E38BFED74
:103D30006869535C774F3912856233BDF2F54FF6EF
:103D400001069E23A7191C6BB7B59DE3D384CCE174
:103D5000D18F4C223FACE7F2754BB5F0C46AD54425
:103D60002792CC45EBC00A81D723E713CC21B1A021
:103D7000DD6F52AE95818A17301E93702EBB7E7E0A
:103D800086C179CD77A8C2CAC51825C5F8EF6C1EC3
:103D9000101DA5BB23C3CA703C1C4ADFC0FFB686FA
:103DA000C5918FD383C8B825556AF810D7A6259436
:103DB000FA443E4E9B0403255C514DEBB720BFED0A
:103DC0002518D67D72C7A0E702EE770903F013AC81
:103DD000E65CAB81591F9149D30097D6EDEC33884F
:103DE000D62FAAF2B05447EB3CCD953AE6264DCB00
:103DF000FCEFDACCB2085386D2DEFC203DB0B22C08
:103E0000177DC8D815C533907F07DA934A009E3FC7
:103E10003F7E3239CDAE5FEA40C9DBE3733B7E0DB6
:103E2000047563D2A9E3555CB3B8795DAF29DE555B
:103E300077D5566153C03BC58021D447869D126F0C
:103E4000A90D390EF5EA5631345F25F5690DDD7D92
:103E50003BEFAF8DACF569B14B633AFAE8DAFDECB4
:103E60009C81B6FA83AAF2E9DA0A09A6CDF02736D0
:103E700034D16FF85A3A67553FEB305C3B739E750F
:103E8000E8730E3D3AE7123C075A4A178AF0650E6E
:103E9000C49F09750A6163896008FD16E33E2B3BE8
:103EA000C73D11CE7D85E59ECC9713BAECFB410E44
:103EB0002DD0C110187DF93E139C5824CBB04B9DDA
:103EC000742563CAFA087A1F91BF80400B1801E875
:103ED0008D2C348E45FE2D3B9E3BFB20CECD12BB60
:103EE0000DFD1C8120E7C60AAF96659A2932F4C001
:103EF0007CDAC79558100C1946C2DBBAD940443A4F
:103F00002F7BD5D3FFEF4CEA8EAF82A0DB6B6193A2
:103F1000A381C54817E8FF96F85A6FEB906B0058DD
:103F2000E8314A62D595C1F76FF6B682CF03CD6D01
:103F300014448C74FEB8BAF15376148B155663E0B2
:103F400040FD32B11FC6965D1F69901793278A49BD
:103F5000F325E0D4585118571FA1B7BC87B76F0F8E
:103F600001DBE19C3DCC9C58DC71803D1975EA0B6E
:103F70000A96047EC54BAA2707C469612784B9C481
:103F800075C2A859E47EF50230AF6FA0149DF522EA
:103F9000E093FF9FFFA500767EC3A3C5D7E83EDF71
:103FA000E52E7AAF60A8604F564B7D1350C4E51BD9
:103FB000D601D92851B736A534BBE267E8CC337CAB
:103FC0005ADB4535E9529CB371F1A356960C2D3E50
:103FD000ABFF4A49F2CE004E93540EC90614DE0AD6
:103FE000229C622F84B9D4BA5AF7CEE4E486857B4A
:103FF00005DA31DCC478C2DB133BE349657876919E
:104000005B07377B0BA008F4B39E153FBEDBC17581
:104010003AC454436FE07E4D16F3F8BB7E1008B5EA
:10402000F656FA4B7D75B56F973F94329009D2AA38
:1040300091D8043B443E294C073D10DACD4D62FE39
:104040009E92C0945C08D3047D3AF5886EF0F71414
:1040500078FC731E21C971F384971A630202ECC5C0
:10406000672BF992234ECA82EA0518FB0AB820B9D9
:104070007869A0EE91CFF0F925E4F1F5D4D72C09B9
:10408000A451AAEDDA23F5030080A7D159B6E8FBC5
:10409000797316597FDD86D53386A9452C0CB3D0AC
:1040A000CF9CD65C65534CA88408C6EDB32BC020CA
:1040B000E8667814422279001E969CE92FEF6F740F
:1040C000282B21FA659A0522226E4B992428B821C3
:1040D0007E05342E04889FB3F67E050A7FFCED76BC
:1040E000A9A1E3B63189C1B7D7E0AEC69AB1A87B22
:1040F0006DA25029163460BE6E273CF68D280ACF7B
:10410000D8370160E5A3ACB4081897A07C1BA39A2C
:104110009E59DFEE06496C13C7C5F2AD447C010918
:10412000956CEEE9855D51C444121BA8C7A405EC4B
:10413000988BD9B0BDDB9861021C7E136F95084344
:10414000F0913B0739AC943B4E6ABB17B64B61FE0E
:10415000A48617269EE0EECA5663EB002CE9FC6BA2
:1041600016303F10D8079474FC706E566C5327A21B
:10417000A23A5684E2C690987BD1B872FF7D33C3D1
:10418000F1DF22832FD63C30E7DF5258A3DB476DA7
:1041900001656411FA1D62D5F8603CC2A2B1958D2B
:1041A000D54EF0B0F8E1062BB84EB5B6FDA359E9EF
:1041B000E7A2A0026D9C92C2FAFD0161C85D118068
:1041C000EF2F50AC6D45AC5AC4B06881F75AF16B13
:1041D0000DF68D0D7EA7883E378C7148519438B806
:1041E000F87871D68155F44B50F18C07DD22E4DB71
:1041F000FDF06344C40039B71487BE98018DF2D82E
:10420000A2BE2E79632892EF5C32A8D447DBAB1AAA
:104210002D9E2CFAE123B89B8AF3B2325BB120AF1A
:10422000DEFD09CECE1455CD135435B866F6D3E075
:10423000EB1CEC347A7CB47A34545417D075A8193A
:104240005E10BA4AE715AC8B44D4B7412891BC60E4
:104250003C959AABEE09D26F5D245CC7BD7EB580FC
:10426000215967093F721118488C6B27978D895423
:10427000BFEA3CB261A9D965A572E50E7AEF555542
:1042800010E29D69D05A6E4BFB901B5F58854D899B
:104290005D040033A40D3140B3B293687835B2EEBB
:1042A000D2A1B4A05EA140CC93AAB958E629640378
:1042B000BAC7D15D67AE55E86D9B537B3540496009
:1042C000A36D0310F3B6F52141CADDF35A848AAB1E
:1042D000573CAFF53F3ECA7B755BB9A5DBB645F7EA
:1042E0009B81989D0570919196E817971A80EA0432
:1042F000A765D5AADF1AE21C7A5165BF621EE7CC1A
:104300005CE5D944DBAA325E3C0FC6D78B830E5BDB
:104310006FD84817F3C5FF5CD438AFBC48BA7932C0
:104320008845CFA4735A9EC4EF08D65369698009A3
:10433000B9043DB9C9C83EA1ED9ABC116071981A83
:10434000F66D029E5AB7014C9DABD063D7E428D3DB
:104350003FFA1BA997A973E3E3FA53119856FF7527
:104360002F14428744D87E1393B5C5BBEF903BC44E
:1043700046E1F4691F0CAE651403F15D78E82DC2C7
:1043800082526278C7D5D4509319EF0AF7F454AF2C
:10439000667429CFA5A10FC622E371997918EF4061
:1043A00081F2A081394FA8C09A5B3DD6C36C856D60
:1043B0008B091D76A6B661531711709B6C9C8FD12B
:1043C000A33BB17FF7D5327BC6AFD7C295CE1FE9ED
:1043D00082DBFDC4D0802C8414D183CE7CDE63A329
:1043E000ED49DDD2D6111C7F08F82A53F2D6420DD2
:1043F0008C7368CD925AA8B9F0A9F2EFE239EBA814
:104400003817C6C18FC2053ECC5670BDC09F037918
:104410005C044D9C9BBA3D15B98F6B7FBA2893ED18
:10442000A5282E671EBAB68F496F5D552351806B44
:1044300059254150E9F464AA6539FE5FC5B8B46FE7
:104440002B21CDDDE1ECF10321D744B80CF8D9EDF7
:104450006269AE14489B15A3560F8CB2584112D115
:10446000800A333C0118AD74EA10BDB3C26F0ED0A0
:10447000C68F99C20CE8D566FE9E692029BC5B6E8A
:104480004956B5B9F2B46F1CB60212109DCD9E8884
:104490000BDB1779BAD9F11725F23923F29B7B5E32
:1044A000B54DCAF602B16766F36281C52E57FCC6E8
:1044B000B28BA0E49731E91EFAEB199E1B148DB361
:1044C000E218E02ADC890782F372C0D32D2DC434B0
:1044D000E8E02C0B043B9792B729514772701BCA36
:1044E000A36650877F37F43BAA05291DC68BA0EC35
:1044F0004BAF1DE7A22415320C9FCFC009D0F11499
:10450000D070EFB3FC080AF8EE7B4EC49C68F65FEF
:10451000004770894EAEA10D43956CC406E6959791
:1045200027698899287D73906622B00E8FC4696EC2
:104530004347286DBA6FD5D4D2C3143CF83FC5F4B5
:10454000D2126E74291A80210984657FF873A3A1A1
:10455000A226DCF398F9DCCEB323B856AAB857C527
:104560006EDE18A7E6DEF6CAA839F0C4D65099B2B6
:104570006414599319D65241F9D631C98A43A40912
:10458000C6545C6207013ED11128156B8252788BAC
:10459000126F4E9B312D00571828580DE02A60AF3E
:1045A000CCDC4772CB639EB16C29DABB73BD9A52E7
:1045B0001D1500703012BE7F6999F5EDCFFEA3C5C1
:1045C0002E101A986C0F69FBB189520B7C24784B22
:1045D000907B561C85A211667E8B5D30235421F2A0
:1045E000DA2008030C4DE62C77477420AB35F931FF
:1045F0006EA10A5CF71E98F27CFAAEC2D722E80ED2
:10460000874F551347D1F82BBE17C314088302FCFC
:1046100064DE5109A89BA807EAE0F117455B10CFBB
:104620008FF15C72963A8A60D670713F4E661605BD
:104630001B6B873517BAAB9173FC5B90230706E9B8
:10464000D497AE7E939F06D89F527ABF3A2659B62A
:104650009F3B68583A5D3F95214080D90BFDB45887
:10466000A9863557078D89996A99140D55FDD44649
:104670006A670DD22A187B2CA848C48DCC8F8298EB
:1046800073B841F94E5798DA835423DD5C39958D20
:10469000064406EEA38DC6A01D63D523EC3BAA7E7F
:1046A000C8FBB4FF1E3B8BCC7C048DA911268780F0
:1046B000A9E7A285A17918E8A7F4F75EF8C75771B2
:1046C00000201E1145F49E260CCA1A9C84DAFB08B1
:1046D00060A7D9C79C7DB0F3269C65DBED564A2CBC
:1046E0001E771386EFF42F7ADE110863AB33EB16D7
:1046F00060F64EF58555CEAA2633B4EF8BE4BC3771
:1047000090F7183137C3E68DE794E8AF1055438D25
:10471000E12362B23F44FA4176A88313791B15CC9A
:104720004C5DDFB31AACA1EC4F8B474F66A0AEF0E7
:10473000DF509AF8EF67CC57B477D483D7D9465374
:104740003699008D312BDB705B970D52AB52C04810
:104750006363256BAF6F4BF5710DE350B4CD64B857
:104760009B16D8EEFDB4BDA74938B4FA68B7779365
:104770000939F7605B20E475CC87C49539D723E607
:10478000441CF3DA3019EFADB2EFC3489D452FB3A7
:104790009397863675D91304E3633AE29898338881
:1047A000F3F4344409804F949D024D41C65750A8FC
:1047B0007067FCC2CAD8BCF8CEB83201A9DE9FC46B
:1047C00008EB25A08406B6BA26BF70B068055AEF7C
:1047D000DCA4849EB96A0B5D5DB105F98AD46F656E
:1047E000EC34D2178F43A01AAF0D62E888A4691881
:1047F0007C43D886D861F32E54DFC42E8930ED5B1C
:1048000025B7F2EE655E85FFED13F585F1D22C80BC
:10481000E37C447DC68F5B1095A6D52AB7BBE444E4
:10482000260A8B9F38944F510D63095887A7098B2F
:10483000BD4E082B8C34C756AAC4016D983EECD6E9
:10484000B39DA850547E8BCD68AF4EB16E2579D9FB
:104850008C4325642A8E470C5F4B07989BD9A8D1BF
:10486000392E9189EEFAE8DD58F5F98145BBEC84E3
:10487000ADE33B674EE6A3F7C21F768C0542483591
:10488000F6E36C5F09430ED02E2C094B3399F63AB0
:10489000F8B21268255F344959812CF251EF0D109E
:1048A000C8F29874F71E52F00DAA725CDFB3AD67C0
:1048B00012568ECD1135E3AEEFC267533AFDBDA857
:1048C000B8D5CE652B3FB0E3E5460815DB9114F76C
:1048D000DFBB3B3C80EB124B89C01F28D80A4794B2
:1048E000DD592801AF48CC64BC2BF34C0048FAEEEC
:1048F0001C4FB85D69F20EA98F5D1C4BC3F65F3784
:10490000AA9321BC933A4694AC434B7E4900295D5F
:10491000B10FCDD4A75802FFD4B8C47B07CF7A60BB
:1049200047BF66B34068BBC0C62578E7A7987D98A7
:10493000014AAF0A74AFE707CC18A652BBAF1A10F2
:1049400089DF621026BFB67BAE5B37F58F11FC7A2C
:10495000849061F5CEBE5592857D32DA39B94FF932
:104960007951FDB58A84D783FEBE649A23CE6160F7
:104970008AD2106495A19DF75660949442714CB50B
:104980000C25BE9D17E0D6864D1F76CB823B2E6050
:10499000ED2A8FCAFBF2A12382ED8DF9B4C586F111
:1049A000358196662BAA49E725108B4D5610F010DD
:1049B000E8AB201157A101C75199398BCF2D145263
:1049C0008BF59948EDCD2D67F8670B109920FE8B7C
:1049D00040337E4F8ACDB5666954CA801038A932FB
:1049E00029011A03D6CEA42C4F83DF2AC9844A6238
:1049F000F11273A6D580566E6A807BE05DFA0C9545
:104A0000DEE4636A770FF8A4E2E51767F7C140BBFD
:104A1000B417F72332925ABDEA447423D0909C6AAB
:104A200029FFBE36890E629FA8F30FBD5AB16B0FE6
:104A300036B03C3D1586185BB9F3D272A7230C0340
:104A40001783E8263D544D2F69768B2096887696FD
:104A500032A140BAB4A4B68105AB42DA7FAE8E5023
:104A60000EC88D702A41117CD657ACE4DBD8C00E3D
:104A7000FB4AF4C47063244329E7280A9921AFB89C
:104A8000A44F28C5EBDDB4B1CC9ECB8697F1F4CF13
:104A9000E73893365A4CECC5D4E8011F4CDC67026A
:104AA00098EDBC457CED04E1EBAB2B662DB9FB5FCB
:104AB000A603B0874719B9073FC95186D2B803B8D2
:104AC0000690CEF42F6540436054B78D4E55844810
:104AD000857474AB3EF642FF16719B3136DAEC28D2
:104AE0005CDD51DC89F14ACE7C38DE56E099538C8E
:104AF0002C51FEA97A5C4D3584CE662CB14F72558F
:104B0000A3E795D1D6CA23F04CF257D61B144A1608
:104B100013D693B63780DB7D3D3A26C10A2940C9BA
:104B20009DDF966ACE6ED35AD420AD9374A046E52D
:104B30007C72435F298589D41593A0C7338515F806
:104B40005FC4648FBEF59EC0E8888F81F5783A2FE8
:104B5000E34B09D5C4133F54522136872F1073D02D
:104B6000DB35C309116EEC5EA90C8A143B3571AEBE
:104B7000086FBFAB985A800533564294FE1E550C01
:104B80008B509032B3C7D0DA4332F84EF0297571AA
:104B9000F9193BE9B23506CDDE4496D12EF30EC8A5
:104BA00007035BC0EE6B9EBA6ADECF90C50C6AB796
:104BB000EB11A7A96A60165C97352CFB890FE111F0
:104BC0000E22E3D9E3C50AF7BEAD9857DA0FB84F06
:104BD0005A5F74EA99317CFD4D21DE4ADBFB4F7749
:104BE0003162F1D7ACDAFD95B38E8A44CBB79A2EF9
:104BF0004EA1BBB4ED115799884B798A1A026ED435
:104C000099D7B3208D61245165A23081F7FE2BA086
:104C10002B79D9747F9B1609F6D3D63838AC2DA9D9
:104C20000EB9B5E7C66959150AB3F4EFDA07FD0501
:104C3000EA5BD759D2DC4B5EA896F13186BE58B7F5
:104C4000825C8AE609EA31D53A5D973A38ADB0C45C
:104C500057DD5CD94C0F99CFF65CF45E95169B3608
:104C600017F002A8954517E3F9004DE73639F2CD64
:104C7000A003E567F67FBCE002268F906C2AC20D88
:104C80009FDCA3D02B98488B10FF6093CE1E9E41D3
:104C90000888AFBB622008AF4211C55FD991636835
:104CA00037D8E4C5EC22FFEDF8227A42C33403BFC3
:104CB000A0BAB56E0CF95E8FE4AF31D29C1A49D719
:104CC000DE7E7AE3ACD336A55939FCB5AA8BAABEF1
:104CD000592D9EB75B92199B922D068C34A4B3EF8D
:104CE0001F590D5DA7AE2E08E6630C182114450F61
:104CF000BC2A3832E88C7FABA6D0AE19AF48569BA1
:104D0000A7F76D1CF7C5F382C66CA2B6F51BC06988
:104D10001037AA9DE683B3AECEA7D2D471C5E9F011
:104D2000FB5846DED85EDE46B60D3B68DA85E316F4
:104D300095F8499A5CB86DAC6DC12B393BB74B46C1
:104D4000C2A641291EFC16452E13F88C9935708A8F
:104D50007E2CE7787EAE83A40FFE798E65C99C3BDE
:104D60002EFDAB8138D183985F2FE4DED75B84942E
:104D700007910A0873D01D2F7A58A014B139174C27
:104D8000B3469B34428AAD58A3D6A7EB5E08A48EE7
:104D90002F0F1A4C54D8F912170147C773DA6CB8A1
:104DA0005F12295E8CD30A4654BB919DD9313F7660
:104DB000F86966E2A3D0CB66B96DB0502E108DBDF8
:104DC0008380B00B0A8EB17344BA1C39EF20E7F12F
:104DD0009C83D4DA99DEDD1F7BB9F182A108BF89FB
:104DE00075A17CD233BD5AD40F2837C0E24C7FB7AF
:104DF000B055F1A1A53864663A53F3FEFBAA589D5D
:104E00000573A78D3864D43C5763A5592D85D6808A
:104E1000798E0B9EC7150B08303856418D04334AE6
:104E200067466A1111A6A7FBE848C23A0472E3D9A3
:104E300009915BECB4524732F85384A3A62B6F75EB
:104E4000EEE61D7AAC8BE6DCF7B84C38083045E866
:104E50001DDC95BF8EED170F22DDEEF802186740BE
:104E60001C22C3E48FC235745CF0AB441C90D19F0C
:104E7000AC0DE39F4071C2D7F7A5BDD1F2AD52C1D1
:104E800042E2DF3183BF4059CCC87018E9EF86E9B0
:104E90001A45B5679CFC0BC9904458E69489E6DF37
:104EA0001083581E215A17DB2A1A42F83C56A0FFDD
:104EB000FCA6E95250698CB1D0DFCAFE53DF9714CB
:104EC0008C2DB12B33B897CA396B93180C7D752391
:104ED00082475E6B984BB80FDB27BEAF8C444A1EEF
:104EE00040FCB0B566D7F3EA8B05809A0EC3225416
:104EF000162C688D05A1AFEBA7C174978EF908CB6E
:104F000099530CDB10B1CB7705EB67891B27EAEAD5
:104F100002E8AF74C8BE3C244777AC6F5E7484AAC5
:104F200037AF3A6AC979F7B89EC2279352E6CB9A4F
:104F30009B4024AC040CAF9F83D1C42AE2DC15BA99
:104F40006D0DFEA4EFD0B06C48ED5D301ED665014E
:104F50004C1C61424C37E0E36B5DC6BE266A4E973F
:104F600036CDC41DADB5AFC4020DD2822D5292BE56
:104F7000D1A7B079BDEB6C68796EFA24453706F09D
:104F8000A15805EA56E0789B8256918399933FCBCE
:104F90002D7A91BAFEFB5964AAA652E41637A1F6FF
:104FA0000A98A342F3800D5FC824CE0864B420267B
:104FB000A6951C980F98212250423EAD44DA311636
:104FC0002AD0A008542520386024A90F118829462A
:104FD000214A00A69018C9CEE99DD2C87CBCF3E74F
:104FE0000CF46EE0F64275D5A9E366F9CE8084A88C
:104FF00015EF9E9836B2435FE17696FBE9B8F7FF6E
:10500000D071DA8E3A2733D5C4BD7EE46348119659
:10501000875FF375BB0530C580D547D424E2B3BFA5
:1050200039D5878180CBD86FFFA288A2AF245BFFE0
:1050300026007150F4299690FA11D9ABC318B81E06
:1050400003EBADAA837AF7E34E3451155D9F8A8551
:10505000FF63614B867C15FFFD8E928E31D788AC45
:10506000DC434E2FD5784620D66E416A4F67E41157
:105070000B7D0E550E2939B60B62449EFD6CF16214
:10508000AA2025A4B71C37EBFEBCF1F4D621DCD74F
:105090005E65D829DBB501F53B6F7B242864D6CC4F
:1050A00072F6A9F4AD1A5B1856FD2359A98F2D2B62
:1050B000F9D7E6DC9844A41EC506ABBB4FB8C77E43
:1050C000665662C9A006E16EE4225DF0F9AD7FF993
:1050D0007EC05E72BF3F3B31D4980675C1917D7C26
:1050E000582705A57D119D11DE6C6A723925ED0CDE
:1050F000BEDFB28F925EC58D367DA9354CA58E8BF5
:1051000019381A8C66BC2D62A302FD336568607A7B
:105110003D8D9EEFD8FD06C1A5D2FDDE2356852527
:105120007D1B49CADFCDAA228A1F4C6A65745F289D
:10513000A4A9DCDA611300D46769FDB844161CE544
:10514000074051F197D48D5173CF2A24A532E5B28F
:10515000380847051E143533DDBC60F547DE3519C8
:1051600054D0FB913250615A5C29975412DEC482AC
:10517000E352B9E28974C90C1AE42B9C4CBD3A4144
:10518000B0593031FA2320031595DF60C5C9D650D8
:1051900090870BFDAE62E2906FB54F48F83EB1B616
:1051A000CD1CB799B9CDCD3E594253963AE767A188
:1051B00082DEBB768C41ABBE8D71DB63FA9F31B66C
:1051C000A0DF5E764130849DB36E912E23C78BF1B4
:1051D00011608AB3B150FEAC00542CE3F67B86A775
:1051E00099137635050EA8CC12870F72737739158F
:1051F000F633E41F303DB6576281A52C15BEE7DFBC
:105200000901AA56C9EF4975C0760B1CFB6C5F3FBC
:105210001D053028B0162C2CD972F7E88E0A5F8055
:1052200065EDA76C1189E7574605B39D041DC701BD
:10523000AF8D5EBCDC4B6EE1B6EB3451E225CA6645
:1052400091CD92D7E9047C24211F7715DE896D2941
:10525000B42E0FA8EE9BB4D0FE9EE368AEF3B7F277
:10526000CBD247CACE899BB6D1367238081A0337DB
:10527000CAC24411B896E1E09F0DC5E0C060A89B8A
:10528000109DBE691B3DF78716B7AB43F6258C44CE
:10529000BCD2FDECF3ECDE43B3D3E1A1CAA0F69B94
:1052A0007C3740D5830F62FF99218A3041A15F612D
:1052B0009D46CAE7E2D270126132FC1B464AF16495
:1052C000E0C2C125FC0361ED054CA13B0749E73075
:1052D000929F6EED6D2E931918944E21B77AB69D5C
:1052E00057B26D84ECA800D94C33C37DE8035966EE
:1052F000881F7A3DB6EDE5B9F79C5AB62750DA0912
:105300007AA2F666D4449383AAA08A63213C0F70E4
:1053100061261A0152416940D6745E21D8B5138DB9
:1053200063E331549EED20E0B6A24D0506CB5DDA75
:10533000B2C0ECBB97939DDAC833AF3F6E89555B23
:105340009575ED6C6FC5ECE0D0DD0F8E6AEA437A9F
:105350007EF40284D7AC22F63EB7489F49F2DF09BB
:1053600016F1B86F50E2A89E5CC8455BB1E35104EA
:10537000D4D678202CEE1ED7FA79044B59134ABAAA
:105380001302DCB8CCDADB175E5C923EE54E736B41
:10539000D8B39A70D7AB96B271ADA07B7F78F6F296
:1053A000EA19915C6A3CC13422FC1FD191BC139A6A
:1053B00052B61344CD28A46F1798CB6435DE643001
:1053C0007679835F8968519609205B9D2D938D3A8C
:1053D000E297B9889A406D78985C071F66716A4AAF
:1053E000A0463FAE4F7C2A21D5C7896001DD6053BE
:1053F0008DDAA9A97042FA354703716224FD47642A
:105400005390059FEC9385A01A7854BB889DF3793F
:105410001D96692835AD1A90D05D5550D5000BED1D
:105420004A2ED2A853CA718918C3930DD7917EF31F
:105430006745261534AECF9CA0412DD64A998326C8
:10544000B50213EAD84EBC2ED7C140B1EB32F538C5
:10545000925F7FB79A462164BF173A0A09C756522E
:105460006D7E624EB6A8DAA94E79EAC0621EDCE80B
:1054700054201E26F04AB958DE339CDDBCE799FB68
:10548000A39C3159FF5FB3DDC569125274A933FC87
:105490004D4353BB59DD93CAAB15178C82BD0A7CB3
:1054A000B77FD68530AB73F1C19CB91BE79240ED55
:1054B0002E1ED066A7AD2AC1691ED27761761BE782
:1054C0004ADB071AE4140E7DEAC21BAC54D0D7ABFA
:1054D0007705C76CE7BE863E62E10B93ADBDB95C54
:1054E00064FB4915F32399433DDE416FDCF47510ED
:1054F000736573D93B89D2FBFCF011BEEC8AEC3E9C
:1055000083961ACB19FF028AEDD4046B251A474BF8
:105510007D082802902D28E47E389ECCF123B6DF4A
:10552000DAD1C130D47C2B91B140C4A65E70CFB328
:105530000C5858DAF407483D45DB335A68455F128A
:105540005450715874DBCAFBEA7863F3864BFA2730
:1055500079BAE53FE06DF19441001E6754D9817C32
:10556000E44EC2D1F61F7B20D02500F9116B312209
:10557000E0AD607EAEA6A61DADE43B95588F13BC92
:10558000331EEEE5A77F5111FB7117E9BFEBBE2D6E
:10559000719B5BAF47EB443057225ACC8D419D073E
:1055A000D0C1590B187E74661A773F43A823489FD1
:1055B000A870A06BED5FFA57F8DC6DDC83327B14CA
:1055C0002A64BB14E61D52369285EC3F6F23CF3A16
:1055D0003686EA0595F4BC85E4F14AD9425C21D8C7
:1055E00036005A313B5549E40A429CC380C6665D89
:1055F000E00E84D9C14C52CBA5D2358A3C996A8A37
:105600008B9611AF10A327636DF25734B38005FD5D
:10561000918081038E0DD7B4C522ED553F0286C817
:105620002D0356D7CE16EAF41F9DFDAAFE3DDF8658
:1056300010F8F9F5CFA3B1A0649E9F748685591820
:1056400094111B9FD87470063C53E4F104B51028E4
:10565000E3B0BA5598C9271ECA2A480687C6B9D6E4
:10566000668E957583B44F5B882888CA08A96A3E00
:10567000650C4984F3EEAD3BAD476383816EEE1E4E
:105680009F49B9BBD64EB141B1547904B1DFE99716
:105690000632B031860DF714153B6C3E9E7C6B20B4
:1056A0008DA97B88D4225B353201456A982AD3457F
:1056B0001B6570EA6BD94B6A4E196AA4B03D6472DF
:1056C0002B72573077AEF61CEF8CA615687E38909B
:1056D000B1C1B057460B5C54D692E506BE6FBC16FE
:1056E00097B519B54468C78856602A5F92E134635C
:1056F000C134A14E7E432FA1C642F79B6AA8FC6A23
:10570000FE3B64AD72AA37723553521610270796C6
:10571000108BAC59F84EAC8361064C0B87E2BB187A
:10572000F6F267A0C0506E890C122C5FFF2D6BC380
:10573000A274416A9EE27331AB91142D5A26164D24
:10574000BB83BA39680A31DD4E6ADFA305F010C5A4
:10575000E063C2B18A2C3B2661C0DBFB37F948FA13
:10576000326732C1C513CB179B26B0437638898E7A
:10577000E26F0E8D0F063E1825D333233947A2A2C0
:10578000231830E984AE4B355AA5819BCE3E73CCAD
:10579000929FB244783971D345C6528E446A21959E
:1057A0006A334D0F7EA0327E29B9687CDC792EEBFE
:1057B000FA96FE7BE8DC2918F3E8EE0B3163B8BEFD
:1057C0006A8916F5DC478509AFD42223F4BB261E6F
:1057D000EB804A40103D8E34D481289643C55D232A
:1057E000E75173B5169F5DCC66574AE7E7D6E66585
:1057F0006EF1DD2DBE2DA8395E579389FE5DAAB1ED
:10580000FEC2EBB0C64023E111910CD1CA8326E55C
:10581000F92926FC79EDFED55B045760C05AB1DB4F
:10582000DCD39D7B7BA6A2DD2A49F0352608C6A6DF
:105830005F124F354A1F06016215D01CD873E375FD
:1058400053B4C729CF28B6626044058BF29C65F239
:10585000078A0967BC02DF85F0B18E461DA2717A06
:105860009AA014F7CA41FC885AF3898A611FE02084
:10587000198C811C5E68A084BFB11C6DC19D82C85B
:1058800026A2A3E23EE24512E7BE3F173DFBF6D457
:10589000DE73C272C795177B8D9FEE2FE751673479
:1058A000911DFFF9BCEDA9A7F62E19E0B3D344DA98
:1058B000EC0639FA919724672D079257C700A21D6D
:1058C000A65797628917E7B31DE106A3EB084F8C33
:1058D000074E4F1429957E4F1746612C7358C338D5
:1058E000CBFF1F356B06617CAED879E5BFD240BADD
:1058F000FA255EFE75A5D20DDD6326F300EEEC6E93
:105900000131D55499B72FA25D8F4F474DF7A34C66
:10591000BF1890FD070603A7599C7143FF7BC0C0C9
:10592000AB799B4687D9AF5445FF079F072A57CAD3
:10593000BCEA819ECB5D5D10394C81DD6AD7823433
:10594000802178FF4131EB62BEEFC52F91E997DFEF
:1059500013AF0DB0A2AB7DF07A610048F4F066ABF6
:1059600034B141239AF733699B3C4F4F378A398BC7
:105970001E074A8AB9648380A868618156E49DEA5B
:1059800056787691A5666F32975451EB71722AB2B0
:105990009CC266D905BF21160D879BD8B14CFA1C55
:1059A0001AE3447959F5B0CFDFA34D6C0B72D99F40
:1059B000C7ADEA0804ADEC3ADCB3885BE1E6EED4AF
:1059C0007B55649F8D61DAFB0462D9B920DDAABCE6
:1059D000FFDE022E8CE7A610156FE5C381F5DF18F8
:1059E000EAEA36D27C827D90F0FAA439631EE08127
:1059F000EDFB0653DBD6DE1D9C59530C1453FB7F85
:105A0000609BC1217E15004A45FEF053FDC9EE8C16
:105A100036F818C0E3B7BE9BDAAA8E1FC2645919C4
:105A20000B4EE90BBBAF64EDCD675C7C62AE2832F8
:105A300010C4C2DD29CCE5799787603D4B4086EAEA
:105A40009089B1B41002C7B349EAFCF2C3E4110073
:105A50007C69D8254D1EF9AF30B23DB9AA4338BD97
:105A6000B9B6F792EA5576F75F12948AACB527512A
:105A7000AC42A898B61186E4E56EB4A79340126CC8
:105A80002060FD292D75E70ABEB0AF28F999BAA6A6
:105A90000327DC109DF58649B27764C1B1B22306B5
:105AA0002E8526EB7A6F13FDD929C9542D64FD503C
:105AB0003AFB5C7388B144A9E97CBCD4E49EBE0A7D
:105AC000D8A34F6FB02BE387EC6BFAE25F0F10099E
:105AD000CBBC4499AE1B6DFAE7E71E6696F22E8F9B
