:1000000000100020910700008D0700008D07000000
:100010008D0700008D0700008D0700008D07000090
:100020008D0700008D0700008D0700008D07000080
:100030008D0700008D0700008D0700008D07000070
:100040008D0700008D0700008D0700008D07000060
:100050008D0700008D0700008D0700008D07000050
:100060008D0700008D0700008D0700007D07000050
:100070006D0700008D0700008D0700008D07000050
:100080008D0700008D0700008D0700008D07000020
:100090008D0700008D0700008D0700008D07000010
:1000A0008D0700008D0700008D0700008D07000000
:1000B0008D0700008D0700008D0700008D070000F0
:1000C0008D0700008D0700008D0700008D070000E0
:1000D0008D0700008D0700008D0700008D070000D0
:1000E0008D0700008D0700008D0700008D070000C0
:1000F0008D0700008D0700008D0700008D070000B0
:100100008D0700008D0700008D0700008D0700009F
:100110008D0700008D0700008D0700008D0700008F
:100120008D0700008D0700008D0700008D0700007F
:100130008D07000010B5054C237833B9044B13B17B
:10014000044800E000BF0123237010BDE01500202B
:1001500000000000EC4D000008B5034B1BB1034943
:10016000034800E000BF08BD00000000E4150020C7
:10017000EC4D0000A3F5803A704700BF174B002BF1
:1001800008BF134B9D46FFF7F5FF00218B460F4636
:100190001348144A121A04F0ABF80E4B002B00D08F
:1001A00098470D4B002B00D09847002000210400F9
:1001B0000D000D48002802D00C4800E000BF04F0FC
:1001C00073F82000290000F003FA04F059F800BF8A
:1001D00000000800000000000000000000100020E7
:1001E000E015002094160020000000000000000030
:1001F000064AD2F8FC3043F08073C2F8FC30A2F516
:100200005D42136843F001031360704700ED00E0A6
:1002100038B53D4B1B78013B032B50D8DFE803F08A
:10022000021B406B0F2000F09BFE384AA2FB0032FD
:1002300092093749374803F0D9F9374803F0D6F91E
:1002400000F07EF818B9304B02221A7037E02E4BBE
:1002500000221A7033E02C4B04221A702F4803F04E
:10026000C5F900F015F9044648BB2D4803F0BEF966
:1002700000E00134FF2C09D8A30003F17E631B6862
:10028000B3F1FF3FF5D0274803F0B0F9B4F5807F14
:1002900015D1254803F0AAF91B4B03221A700EE072
:1002A0004FF48071214803F0A1F94FF480610020E0
:1002B00000F03AF9044618B1134B04221A7038BD05
:1002C0001B4803F093F900E00134FF2C0CD8A30085
:1002D00003F17E631D6800F02FF850F824309D4232
:1002E000F2D0104803F082F9B4F5807FE4D10E48D3
:1002F00003F07CF9E0E70F4803F078F900F074F8B8
:10030000014B00221A70DAE700100020D34D621072
:100310000410002018430000384300005C43000034
:1003200080430000B8430000C0430000C443000005
:10033000E8430000204400000048704724100020DB
:1003400070B5214C0023636001F0F1FF646805463D
:1003500010B34FF6FF73B3EB104F21D000F010FB3A
:100360000F2000F0FDFD194BA3FB0030B4EBD00FC4
:100370001BD204EB840676000F2000F0F1FD420949
:100380001348A0FB0232D209B6FBF2F22146114813
:1003900003F02CF9284670BD0F4803F027F9DFE77A
:1003A00001460E4803F022F9DAE70F2000F0D8FDED
:1003B0000B4AA2FB00329209B4FBF2F22146094833
:1003C00003F014F9E6E700BF001000E0CDCCCCCC80
:1003D000C55A7C0A6C4400004844000058440000A0
:1003E000D34D62108C44000070B5214C0023636033
:1003F00001F09FFF6468054610B34FF6FF73B3EB3F
:10040000104F21D000F0BCFA0F2000F0A9FD194BCD
:10041000A3FB0030B4EBD00F1BD204EB84067600B4
:100420000F2000F09DFD42091348A0FB0232D209C3
:10043000B6FBF2F22146114803F0D8F8284670BD09
:100440000F4803F0D3F8DFE701460E4803F0CEF87B
:10045000DAE70F2000F084FD0B4AA2FB003292097C
:10046000B4FBF2F22146094803F0C0F8E6E700BF0A
:10047000001000E0CDCCCCCCC55A7C0A6C44000006
:100480004844000058440000D34D62108C440000E2
:1004900070B51E4E304601F0B2FF1D4D00236B605B
:1004A000304601F0F3FF04466D68304601F0BAFFB4
:1004B000204600F065FA0F2000F052FD154BA3FB1B
:1004C0000023B5EBD30F12D205EB850676000F2083
:1004D00000F046FD42091048A0FB0232D209B6FBEB
:1004E000F2F229460D4803F081F8204670BD0F2036
:1004F00000F036FD0A4AA2FB00329209B5FBF2F287
:100500002946084803F072F8EFE700BFFC15002009
:10051000001000E0CDCCCCCCC55A7C0A6C44000065
:10052000D34D62108C440000F8B504460D46204EB1
:10053000304601F064FF1F4F00237B602B461E4AAC
:1005400002EB84022146304601F074FF04467D68C8
:10055000304601F067FF204600F012FA0F2000F04D
:10056000FFFC164BA3FB0023B5EBD30F12D205EB18
:10057000850676000F2000F0F3FC42091048A0FB2E
:100580000232D209B6FBF2F229460E4803F02EF8E9
:100590002046F8BD0F2000F0E3FC0B4AA2FB00321E
:1005A0009209B5FBF2F22946084803F01FF8EFE77D
:1005B000FC150020001000E024100020CDCCCCCC95
:1005C000C55A7C0A6C440000D34D62108C44000074
:1005D00008B501F096FEFFF70BFE01F09EFEFFF757
:1005E00017FEFAE708B50421002000F02BFE0421D5
:1005F000062000F027FE0821072000F023FE082136
:10060000084600F01FFE08211C2000F01BFE0821F8
:10061000242000F017FE0821252000F013FE002002
:1006200008BD000000B583B001A801F08BF99DF86A
:100630000530012B15D09DF80530012B2CD01E4A1A
:10064000D2F8803043F00303C2F8803001F05CFB45
:1006500001F052FBFFF7C6FF01F03AFB03B05DF873
:1006600004FB164B9B6D13F4803FE4D1134A536B8C
:1006700023F4FF0323F4FE4343F4BC1343F4A063C9
:100680005363136B23F4704343F440431363136BBE
:1006900043F4E0631363CEE79DF80430002BCED122
:1006A00000234FF0005203E0116802F5804201334D
:1006B000052BF9D9C3E700BF0080005000C00050EF
:1006C000704770477047704770477047704708B56C
:1006D00000F048F808BD08B5FFF7F9FF08BD0000B5
:1006E00010B592B01A4C0DF12C0CA646BEE80F00C6
:1006F000ACE80F009EE807008CE807000023079392
:10070000089309930A93134B079321238DF8203004
:1007100005238DF8223006238DF824300DF10C0CC2
:1007200004F11C030FCB8CE80F000B4B009307ABBD
:100730000BAA6146094801F007FD044610B920469E
:1007400012B010BD8721064800F018F9F7E700BF86
:10075000DC440000008005501C16002078160020A4
:10076000AC44000008B5FFF7BBFF08BD08B5024B5D
:10077000186801F0ADFD08BD7816002008B5024BE1
:10078000186801F0A5FD08BD78160020FEE70000FE
:1007900008B500F02DF8124A0AE01068516850F8C8
:1007A000230041F82300013391688B42F5D30C32CA
:1007B0000C4B9A4201D20023F6E70B4A08E011687D
:1007C000002041F82300013351688B42F7D30832EF
:1007D000064B9A4201D20023F6E7FFF7CFFC00BF99
:1007E000F44D0000004E0000004E0000004E0000DE
:1007F00010B4124B124A9A60D3F8882042F4700267
:10080000C3F888200F4901F500526FF0010010660F
:1008100041F2FF7050660220C3F8D000BFF34F8F43
:10082000BFF36F8F08480824C0F880414FF440336D
:10083000D36004600B615DF8044B704700ED00E08D
:10084000000000000080004400E100E0014B186857
:10085000704700BF28140020014B1860704700BF8C
:100860002814002008B5094B1B6F03F00703022B67
:1008700004D0032B05D0012B06D0FEE7FFF7E6FFDF
:1008800003E0034B186800E0024808BD00800050F8
:100890002C140020002D310108B5FFF7E3FF054BB4
:1008A0001B6FC3F301330133B0FBF3F0024B18604D
:1008B00008BD00BF0080005024140020004870478D
:1008C00000B4C404014B1868704700BF2C1400200A
:1008D0000020704700487047002D3101174B986881
:1008E000C0F304400C2808D8DFE800F00907070728
:1008F0000707211719071B1D1F00002070470F4B0A
:100900009B6803F04073B3F1807F12D0B3F1007F96
:1009100011D003B170470A4870470A4870470A4827
:1009200070470A4870470A4870470A4870470A48A3
:1009300070470A4870470A48ECE700BF0040015A78
:1009400000093D000024F400C0EA210180BA8C01B6
:100950000048E801005A6202405DC60080841E0023
:1009600040420F004FF4004070474FF47A707047D8
:10097000014B1868704700BF30140020FEE70000EC
:1009800038B5C0F30723132B0AD8050AC2B2EDB25B
:10099000114B53F8253023B11049495D914206D2DD
:1009A00038BD82B20E490F4802F020FEF8E7C4B20B
:1009B00053F8240000F01CF80028F1D1064B53F83E
:1009C000253053F82430084A52F8252004490748B6
:1009D00002F00CFEE4E700BF4C4A0000EC4A0000C5
:1009E00008450000144500009C4A00002045000016
:1009F00018B103781BB9012070470120704700200F
:100A00007047000010B41E4BDC6904F4803441F6DA
:100A10007132DA639B6823F44013D9B9194A9042C2
:100A200015D800221343164A9360174B98421ED9DB
:100A300002F59822D2F8183243F00203C2F81832B5
:100A400014B10F4B0022DA635DF8044B70474FF48A
:100A50008012E7E7002907DD0A4A904201D8002208
:100A6000E0E74FF48012DDE74FF44012DAE7074A7F
:100A7000D2F8183223F00203C2F81832E0E700BFC0
:100A800000000350005A620280F0FA0200C00750D2
:100A900008B5344B98424DD010D9334B984251D0C1
:100AA00031D9324B984251D003F5740303F51053FA
:100AB00098424FD12E4BD3F898001DE02D4B984211
:100AC00032D00BD92C4B984231D003F5371303F5B4
:100AD000D86398423ED1264B986F0DE0274B984241
:100AE0000ED008D9264B98420AD0264B984231D1D5
:100AF0001F4B586E00E000B908BD234B984229D126
:100B00001B4B986DF8E7214B984217D0204B984229
:100B100003D1174BD3F88C00EEE71E4B984219D146
:100B2000134BD3F88400E7E7114B186FE4E7104B41
:100B3000586FE1E70E4BD3F88000DDE70C4BD3F89C
:100B40008800D9E70A4BD3F89000D5E7084BD3F8D3
:100B50009400D1E741F24D110F48FFF70FFF00203D
:100B6000CAE700BF80BA8C01007E56030090D00314
:100B70000080E00F405DC6000024F40080841E0069
:100B800000093D00C0CF6A0040420F0080D54302FB
:100B9000006CDC020048E801004B000008B5FFF7DC
:100BA0008DFE0021FFF72EFF08BD000038B5054679
:100BB0000C460E4BD3F8803003F00303022B09D010
:100BC000032B0FD040F6B2710948FFF7D7FE002380
:100BD000184602E0FFF760FE0B2305B1286004B160
:100BE000236038BDFFF77AFE0523F6E7008000504A
:100BF000004B000038B505460C46144BD3F82031A5
:100C000003F00703013B032B17D8DFE803F0020AC8
:100C10000E12FFF71BFE042305B1286004B1236008
:100C200038BDFFF74FFE0323F6E7FFF757FE052316
:100C3000F2E7FFF74FFE0223EEE741F22B010448F3
:100C4000FFF79CFE00231846E6E700BF0080005037
:100C5000004B000030B583B005460C4600230193DD
:100C6000134BD3F8803103F00303022B16D0032B70
:100C700019D0012B06D041F278110E48FFF77EFE05
:100C8000002304E0002101A8FFF7B4FF0D230DB1FC
:100C9000019A2A6004B1236003B030BDFFF71EFE45
:100CA00001900523F3E7FFF715FE01900223EEE71D
:100CB00000800050004B000038B505460C46114B33
:100CC000D3F8403103F00303022B13D0032B15D0CC
:100CD000012B07D041F259010B48FFF74FFE0023CB
:100CE000184602E0FFF73EFE082305B1286004B174
:100CF000236038BDFFF73CFE0723F6E7FFF735FE1C
:100D00000923F2E700800050004B000030B583B0AB
:100D100005460C46002301934FF0E0231B6913F0B6
:100D2000040F0CD0FFF7B8FD01900B2300930DB119
:100D3000019B2B600CB1009B236003B030BD694662
:100D400001A8FFF7B9FFF2E738B505460C46114B8D
:100D5000D3F8603103F00303022B13D0032B15D01B
:100D6000012B07D041F287010B48FFF707FE002354
:100D7000184602E0FFF7F6FD082305B1286004B12C
:100D8000236038BDFFF7F4FD0723F6E7FFF7EDFD1D
:100D90000923F2E700800050004B000038B50546FB
:100DA0000C46144BD3F8003203F00703013B032B2E
:100DB00018D8DFE803F0020A0E12FFF7D3FD08236C
:100DC00005B1286004B1236038BDFFF7D1FD0723CA
:100DD000F6E7FFF7CAFD0923F2E7FFF75DFD800A9A
:100DE0000C23EDE741F22E210348FFF7C7FD002356
:100DF0001846E5E700800050004B000038B5054676
:100E00000C46144BD3F8083203F00703013B032BC5
:100E100018D8DFE803F0020A0E12FFF7A3FD08233B
:100E200005B1286004B1236038BDFFF7A1FD072399
:100E3000F6E7FFF79AFD0923F2E7FFF72DFD800A99
:100E40000C23EDE741F262210348FFF797FD0023F1
:100E50001846E5E700800050004B000038B5054615
:100E60000C46114BD3F8403203F00303022B13D08E
:100E7000032B15D0012B07D041F2C1110B48FFF70E
:100E80007DFD0023184602E0FFF76CFD082305B145
:100E9000286004B1236038BDFFF76AFD0723F6E739
:100EA000FFF763FD0923F2E700800050004B0000CC
:100EB00038B505460C46124BD3F8000100F003008C
:100EC00003280FD8DFE800F01602060AFFF7FAFC45
:100ED000032310E0FFF74CFD07230CE0FFF7F8FCBD
:100EE000062308E040F6E8710648FFF747FD0023B7
:100EF000184600E0012305B1286004B1236038BD25
:100F000000800050004B000010B501380E2820D89A
:100F1000DFE800F008141A1F1F1F1F1F1F1F1F1FCD
:100F20001F1F08000C4B1C6FC4F30134022C11D19D
:100F300040F269210948FFF721FD0BE0064BD3F889
:100F40009040C4F3046405E0034B1C6FC4F3802499
:100F500000E00024601C10BD00800050004B000029
:100F600010B582B00023019325286FD8DFE800F088
:100F700013191D27313C414B50555A5F64696E1956
:100F8000466E6E50192731273C194B276941414164
:100F900041272727555AFFF765FC0190019802B0B9
:100FA00010BDFFF779FC0190F8E7FFF75BFC044602
:100FB0000220FFF7A9FFB4FBF0F40194EEE7FFF77E
:100FC0006BFC04460320FFF79FFFB4FBF0F4019491
:100FD000E4E7FFF761FC04460320FFF795FFB4FB4D
:100FE000F0F464080194D9E7002101A8FFF732FE6C
:100FF000D4E7002101A8FFF7FDFDCFE7002101A8FC
:10100000FFF784FECAE7002101A8FFF755FEC5E7F8
:10101000002101A8FFF798FEC0E7002101A8FFF713
:10102000BDFEBBE7002101A8FFF7E8FEB6E70021FF
:1010300001A8FFF73DFFB1E7002101A8FFF7B6FDCA
:10104000ACE7002101A8FFF709FFA7E740F28F31C5
:101050000148FFF793FCA1E7004B000000B583B007
:1010600000230193252866D8DFE800F01365656545
:1010700065303842474C51565B6065653D65654754
:101080006565656530654265603838383865656521
:101090004C512C4B1B6F03F00703013B032B0FD864
:1010A000DFE803F00B0205080423019312E0032399
:1010B00001930FE0062301930CE00223019309E062
:1010C00040F29F412048FFF759FC03E001A90020AE
:1010D000FFF7C0FD019803B05DF804FB01A90020F3
:1010E000FFF788FDF6E701A90020FFF70FFEF1E703
:1010F00001A90020FFF7E0FDECE701A90020FFF7C0
:1011000023FEE7E701A90020FFF748FEE2E701A977
:101110000020FFF773FEDDE701A90020FFF7C8FEFE
:10112000D8E701A90020FFF741FDD3E701A900207E
:10113000FFF794FECEE740F24B510348FFF71EFC49
:10114000C8E700BF00800050004B000008B5002930
:1011500003DD0121FFF756FC08BD0021FFF752FC1B
:10116000FAE7000010B501380E284BD8DFE800F090
:101170000826394A4A4A4A4A4A4A4A4A4A4A0800D2
:101180004C1E012C01D9042912D1FFF707FD00F0F4
:1011900043F81F4A136F23F4405343EA04331367A1
:1011A000FFF77AFB0021FFF7D1FF00F03BF810BDFD
:1011B0004FF42C711748FFF7E1FBE6E74C1E1F2C9C
:1011C00009D8134BD3F8901021F0F85141EA04618B
:1011D000C3F89010EBE740F2ED210E48FFF7CEFB8D
:1011E000EFE74C1E012C07D8094B196F21F48061E1
:1011F00041EA84211967DAE740F2F3210548FFF755
:10120000BDFBF1E740F2F9210248FFF7B7FBCEE75B
:1012100000800050004B000008B502210320FFF7BA
:10122000A1FF08BD08B50120FFF79AFE044B9842C4
:1012300004D902210320FFF795FF08BD0121F9E73A
:1012400080F0FA0270B50C46252800F29181DFE8A3
:1012500010F026008F018F018F018F0160007B004D
:10126000BF00DA00F5001401330153016A018F0158
:101270008F0199008F018F01DA008F018F018F019B
:101280008F0160008F01BF008F016A017B007B002E
:101290007B007B008F018F018F01F50014018B1EF5
:1012A000042B14D8DFE803F0100603131B000025FD
:1012B000022616E0A34B9D6AC5F3400503F5805353
:1012C00001229A620E460CE00025012609E040F258
:1012D0008D519D48FFF752FB00252E4601E0002569
:1012E0000426FFF75BFCFFF797FF984A136F23F084
:1012F000070333431367FFF7CFFA0021FFF726FFF9
:10130000FFF790FF85BB032C2ED1914B01229A62EF
:101310002AE005290AD00D290AD0022912D040F26C
:10132000D2518948FFF72AFB002102E0022100E0A8
:101330000121864AD2F8803123F003030B43C2F81F
:10134000803111E00321F4E78C1E032C11D8DFE873
:1013500004F00E17020C01217C4AD2F8203123F050
:1013600007030B43C2F8203170BD0321F4E70421C9
:10137000F2E740F209617448FFF700FB0021EBE758
:101380000221E9E70B2917D007D90E2908D040F22E
:1013900031616D48FFF7F2FAE6E7CC1F022CF6D870
:1013A0006C4A536A43F0010353624FF0E022136921
:1013B00023F004031361D7E7664A536A23F001035D
:1013C00053624FF0E022136943F004031361CBE74B
:1013D00008290AD009290AD0072912D040F24D6104
:1013E0005948FFF7CBFA002102E0012100E0032178
:1013F000564AD2F8403123F003030B43C2F8403180
:10140000B2E70221F4E708290AD009290AD00729FE
:1014100012D04FF4CD614C48FFF7B0FA002102E042
:10142000012100E00321494AD2F8603123F003038F
:101430000B43C2F8603197E70221F4E7CC1F052C7B
:1014400012D8DFE804F018030511110F012100E0A4
:1014500003213E4AD2F8003223F007030B43C2F8BF
:10146000003281E70421F4E740F2AD613648FFF72E
:1014700085FA0021EDE70221EBE7CC1F052C12D8FD
:10148000DFE804F018030511110F012100E003212A
:101490002E4AD2F8083223F007030B43C2F8083271
:1014A00062E70421F4E740F2CD612748FFF766FACE
:1014B0000021EDE70221EBE74C1E062C13D8DFE8F4
:1014C00004F01012041212061900012100E0032199
:1014D0001E4AD2F8003123F003030B43C2F8003157
:1014E00042E70021F4E740F2E9611748FFF746FAC6
:1014F0000021EDE70221EBE7052908D00B2908D0F0
:1015000040F216711048FFF739FA002102E003217A
:1015100000E002210D4AD2F8803023F003030B4390
:10152000C2F8803020E708290AD0092914D00729F9
:101530001CD040F2B5710448FFF720FA00210CE0FE
:1015400001210AE000C00050004B00000080005064
:1015500000E0005000C007500321084AD2F8403292
:1015600023F003030B43C2F84032FDE60221F4E707
:1015700040F667010248FFF701FAF5E600800050E7
:10158000004B0000F8B50546FFF782FA0446431EFB
:1015900013F1030F29D8304B5B68012B2BD00020AF
:1015A000FFF75CFD04282FD024F040742B4B9D42A4
:1015B0002FD02B4B9D422FD02A4BDB6813F0060F08
:1015C000FAD1284B9F689C6004F4F8149E6806F4D6
:1015D000F816B44223D1B44227D0224B9F6000209A
:1015E000FFF73CFD042824D0F8BD40F6C7011E4893
:1015F000FFF7C4F9CFE71D4B01225A60164B9B69D8
:1016000013F0030FFAD1CAE7FFF7C8FAFFF704FE99
:10161000CAE744F00074CFE744F08074CCE740F6AA
:101620000F111148FFF7AAF9D5E72846FFF714F97B
:10163000D5E7FFF731F90446854206D3002120465D
:10164000FFF784FDFFF7EEFDCEE74FF41261064889
:10165000FFF794F9F2E700BF00C0015040420F00CD
:1016600080841E0000000150004B000000E001508B
:10167000EFF3108072B6704700B962B67047EFF3AF
:101680001180302383F31188704780F311887047ED
:10169000034AD36E23F0300301790B43D3667047BE
:1016A000004000502DE9F0470D4616469846044686
:1016B00048B1012819D0022819D0032801D00023ED
:1016C00002E01F2300E07F23EB4013F0010F10D056
:1016D00046B3B8F1000F5AD09CB1012C4DD0022C6A
:1016E0004DD0032C0BD000230CE00323ECE73F2369
:1016F000EAE74FF4B0716C48FFF740F9E8E71F23C1
:1017000000E07F23EB4013F0010F3AD00122AA4002
:1017100004EB44031B0103F1A04303F5703341F2D2
:1017200010015A50072D59D804EB44031B01DFF870
:1017300080919944AB004FF00F0A0AFA03FA06FAB7
:1017400003F7FFF795FFD9F8002087EA020303EAC1
:101750000A035340C9F80030FFF78EFF002E6CD10A
:10176000B8F1000F75D0002C55D0012C67D0022C99
:1017700067D0032C50D11F264EE00323C2E73F233E
:10178000C0E740F22D414948FFF7F8F8BEE74CB1F9
:10179000012C19D0022C19D0032C01D0434602E0B1
:1017A0001F2300E07F23EB4013F0010F10D0012234
:1017B000AA4004EB44031B0103F1A04303F570337B
:1017C00042F210015A50ADE70323ECE73F23EAE76A
:1017D00040F2FE313548FFF7D1F8E8E704EB440367
:1017E0001B01DFF8D0909944A5F1080292004FF058
:1017F0000F0A0AFA02FA06FA02F7FFF739FFD9F8D8
:10180000003087EA030202EA0A025A40C9F80020BF
:10181000FFF732FFA2E77F26EE4016F0010F12D04D
:10182000012101FA05F504EB4404240104F1A0446C
:1018300004F5703441F21003E550BDE8F08703264B
:10184000EAE73F26E8E740F22D411848FFF796F80F
:10185000E6E744B1012C1BD0022C1CD0032C04D190
:101860004FF01F0801E04FF07F0828FA05F818F044
:10187000010F13D0012101FA05F504EB4404240102
:1018800004F1A04404F5703442F21003E550D4E7AB
:101890004FF00308E9E74FF03F08E6E740F2FE317A
:1018A0000248FFF76BF8E5E7484B0000D84B000013
:1018B00004C003500CC00350436813B94160704723
:1018C0005B685A68012AFBD15960704708B5C36943
:1018D000032B06D89A1C00EB820251600133C361CE
:1018E00008BDEC210148FFF749F8F9E7204C00005A
:1018F00008B5C269042A1DD84FF098431B6C13F435
:10190000801FF9D0043292004FF098431A650268A4
:101910001A6042681A6082681A600023C2699A429B
:101920000DD99A1C00EB820251684FF09842116069
:101930000133F3E740F205110148FFF71FF808BD36
:10194000204C0000054B5B69C3F38512827003F0E5
:101950003F0242701B0B0370704700BF00C007506E
:101960000E4B98420AD00E4B98420CD00D4B984229
:101970000ED0C36D43F08003C3657047A3F50033F9
:10198000C3F88411F5E7A3F51033C3F89411F0E719
:10199000A3F52033C3F8A411EBE700BF0080055086
:1019A00000C0055000000650F8B505460E461C461E
:1019B00017465AB186B1402C44D012D8C4B1202C5D
:1019C00056D1B7EBD60F36D8082315E04FF4A171E6
:1019D0002D48FEF7D3FFEDE70320FFF7C1FA0646D7
:1019E000E9E7602C44D1B7EB960F3AD8042303E023
:1019F000B7EB161F18D8102307FB03F14B0803EBB6
:101A00004613B3FBF1F3203BDE00204AB2EBC30FD9
:101A100034D31E4A3240AB6823F06003AB60AB683E
:101A20001C43AC60EA61F8BD4FF4BA711648FEF78A
:101A3000A5FF1023E0E740F279111348FEF79EFF5F
:101A40000823D9E7124BA3FB0623B7EB930F01D86A
:101A50000623D1E74FF4BF710B48FEF78FFF062333
:101A6000CAE740F283110848FEF788FF0423C3E762
:101A700040F289110448FEF781FFD4E74FF4D0719A
:101A80000148FEF77BFFC4E7684C0000F8FF7F00C9
:101A9000ABAAAAAA38B504460D460F4B98420CD003
:101AA00003F58043984208D003F58043984204D060
:101AB0004FF433710948FEF761FF04F580530122AA
:101AC0005A60EB43934003F00A036361656115B903
:101AD00004F50054626038BD00800550684C000079
:101AE00010B50446214B98420CD003F58043984230
:101AF00008D003F58043984204D040F242411C488C
:101B0000FEF73CFF04F5805301225A6040F6AA63B9
:101B100063610023A360E36541F20502E260236193
:101B2000E361E36404F5005212499164A3650F4B2D
:101B30009C4207D003F580439C4203D003F58043C9
:101B40009C4201D100232365084B9C4207D003F53A
:101B500080439C4203D003F580439C4201D1002383
:101B6000636504F500540123636010BD00800550D7
:101B7000684C0000FFFF010038B505460C464B4B92
:101B800098420CD003F58043984208D003F5804377
:101B9000984204D040F2FD214548FEF7EFFE28466A
:101BA000FFF79EFF05F5805301225A60A37C1BB10D
:101BB000AB6843F08043AB60E37C002B46D1637B92
:101BC000228A1343E2891343EB60237BA268616896
:101BD0002846FFF7E9FE637D1BB1AB6843F4803311
:101BE000AB60A37D1BB1AB6843F40043AB60E37D06
:101BF0001B0703F0E043227E120502F4E0021343C8
:101C0000AB65637E023BDBB2012B24D9274B9D429F
:101C100040D003F580439D423ED003F580439D4272
:101C200036D04FF0FF335B0103F1A04303F570336F
:101C300042F2AC5202219950637E012B2ED0032B2D
:101C40002CD005F500530422DA652BE0217D2846CF
:101C5000FFF786FEB3E7154B9D4215D003F5804391
:101C60009D4213D003F580439D420BD04FF0FF33CC
:101C70005B0103F1A04303F5703341F2AC52022142
:101C80009950D9E70223F3E70023F1E70123EFE7B7
:101C90000223C8E70023C6E70123C4E705F5805304
:101CA0000422DA6523786B6138BD00BF00800550DF
:101CB000684C0000836913F0800FFBD0406AC0B20B
:101CC0007047836913F0400FFBD0C1637047000079
:101CD00010B582B0074A536F43F0010353670024E5
:101CE00000948DF804406846FFF7D2FC204602B00D
:101CF00010BD00BF0040005008B50248FFF742FC8D
:101D0000002008BD80D543026FF0040308E003F112
:101D1000604202F56142502182F8001301335BB248
:101D20003C2B08DC002BF2DA03F00F01034A0A44D3
:101D300050211176F2E70020704700BFFCEC00E074
:101D400010B50446FFF794FC024B1C60FFF794FCAF
:101D5000002010BD9016002010B5FFF789FC034B42
:101D60001C68FFF789FC204610BD00BF90160020BC
:101D700070B50C461546034638B153B15E6856B18E
:101D80002A4621461868B04770BDFFF7E5FF0346B5
:101D9000F3E72320F8E72320F6E700B583B08DF8BA
:101DA000071001220DF10701FFF7E2FF03B05DF814
:101DB00004FBFEE780F82410704790F82400704779
:101DC000F8B504460F46154690F82430A3B900260E
:101DD0000120AE4222D294F82630002BF9D023689D
:101DE000397820469847C8B901370136F1E72368AA
:101DF0000D21204698470AE000260120AE420DD270
:101E000094F82630002BF9D03B780A2BEFD02368CA
:101E100017F8011B204698470136EFE7F8BD08B5D3
:101E2000FFF7CEFF002008BD38B504460568FFF770
:101E300093FF844227D095F92830002B08DB03F06C
:101E40001F015B0901228A406033114941F82320B8
:101E500095F92830002B0CDB03F01F015B090122F0
:101E60008A4020330A4941F82320BFF34F8FBFF344
:101E70006F8F002323606360A36023616361EB685D
:101E80002846984738BD0020FFF75AFFD3E700BF28
:101E900000E100E070B504460D46FFF7F0FBA669CF
:101EA0009EB1E2692369D35C2B70236901332361FE
:101EB000226A93420CD0A369013BA361FFF7E5FBC3
:101EC000A36820469847304670BDFFF7DEFBFAE76F
:101ED00000232361EFE72DE9F04182B007460E466B
:101EE00090461D4600232B6003E001362C68013428
:101EF0002C602B68434505D231463846FFF7CAFFB0
:101F00000028F2D197F827302BB12B6883B100203D
:101F100002B0BDE8F08111238DF8073001220DF1E8
:101F200007013846FFF77BFF012387F82730ECE7EE
:101F30001B20EDE7F8B515465268002A4DD006463D
:101F40000C461F46AB68002B49D02C2200212046AE
:101F500002F0CEF96B68E361AB6823622B7B84F8F7
:101F60002430AB7B84F82530012384F8263084F8B4
:101F700027302760069B6360079BA360089BE36094
:101F800095F9003084F828303460164B7360164B96
:101F9000B360164B3361164B7361164BF36095F9C2
:101FA0000030002B08DB03F01F015B0901228A408F
:101FB0006033114941F8232095F90030002B07DBED
:101FC00003F01F015B0901228A400B4941F82320DD
:101FD0003046FFF7B5FE0020F8BD2220FCE72120A7
:101FE000FAE700BF1F1E0000D71E0000B51D00004D
:101FF000BB1D0000291E000000E100E010B50446F2
:10200000FFF73DFBA269236A9A4203D3FFF73DFB2A
:10201000002010BDFFF739FB0120FAE770B582B050
:1020200004460D4600E000BFFFF729FB064694F882
:1020300025301BB1132D1DD0112D21D0A269236A8B
:102040009A4223D2E2696369D554636901336361BB
:10205000A2690132A261226A93421DD03046FFF785
:1020600014FB94F825301BB1A269236A9A4216D05A
:1020700002B070BD002384F82630FFF706FBF7E7B7
:10208000012384F82630FFF700FBF1E740F26911E5
:102090000948FEF773FCD5E700236361DEE71323ED
:1020A0008DF8073001220DF107012046FFF788FE69
:1020B000002384F82730DBE7B04C0000C26AD36C01
:1020C00043F00403D364704710B50446E36A9B6988
:1020D00013F0400FFAD000231A4694F8321094F807
:1020E0003100FFF7DFFA00231A4694F8341094F811
:1020F0003300FFF7D7FA94F8393013F0010F0AD103
:1021000094F8393013F0020F0ED10021E06AFFF786
:10211000C1FC002010BD00231A4694F8361094F834
:102120003500FFF7BFFAEBE700231A4694F83810A2
:1021300094F83700FFF7B6FAE7E708B5C06AFFF78B
:10214000C0FD002008BD00002DE9F04186B0164614
:102150001C460C9D012304930393594B0293594B46
:10216000019300230093584B0A462946FFF7E2FEED
:10217000074618B1384606B0BDE8F0812368EB6227
:10218000237985F83030A37985F83230637985F882
:102190003130237A85F83430E37985F83330A37A07
:1021A00085F83630637A85F83530237B85F838300A
:1021B000E37A85F8373001230422A1796079FFF7AB
:1021C00071FA01230222217AE079FFF76BFA4FF0CE
:1021D000000886F8008031462068FFF7CDFC627B5E
:1021E0003A4B03EB42121421C2F8AC156179A07985
:1021F000627B41EA00412E3203EB42125160E279E8
:10220000207A617B42EA004203EB4113C3F8BC250C
:1022100085F83980737E032B4FD8DFE803F0330253
:10222000292E012385F83930002500230222A17AC6
:10223000607AFFF737FA627AA17A637B42EA014259
:102240005B0103F1A04303F5703341F2B4515A50DE
:10225000236803F580530422DA65ADB92268D36C94
:1022600043F00403D36405212068FFF713FC81E7E2
:10227000022385F839300125EFE7032385F839304B
:102280000125D2E70025E8E700230422217BE07A3C
:10229000FFF708FA627B0D4B03EB421241F2AC519F
:1022A00002205050E27A207B617B42EA004203EB3D
:1022B000411341F2B8515A50D0E723275AE700BFE3
:1022C000C9200000BD2000003B21000000C00350D9
:1022D000C36A9B6913F0800F00D1704710B50446A4
:1022E000FFF78CFE28B9E26AD36C23F00403D364B1
:1022F00010BDE06AFFF7DEFC01462046FFF78EFEC8
:10230000F6E708B5FEF78EF9FEF7DAF9FEF7E3F91E
:10231000FEF7D7F9FEF7D6F908BD08B5FEF7D3F9F1
:10232000FEF7D2F9FEF7D1F9FEF7D0F908BD00208B
:102330007047002070470000B0F5A02F2DD00BD9BA
:10234000B0F5202F2FD019D9B0F5302F2FD0B0F500
:102350007F0F1BD106207047B0F5003F1FD007D973
:10236000B0F5403F1DD0B0F5802F0FD14B20704706
:10237000F8B1B0F5803F09D148207047B0F5C02FC3
:1023800013D0B0F5E02F01D12120704708B5EF211F
:102390000848FEF7F3FA012008BD012070472A2003
:1023A00070472C2070471020704701207047112083
:1023B000704770470C4D00000020704700207047A8
:1023C000D8B110B50446FFF7F7FF00B110BD2046A5
:1023D000FFF78EFA4FF098435B6C13F4801FF9D02F
:1023E0004FF098435C6D04F47024FFF7E7FF002C76
:1023F000ECD02046FFF7A0FFE8E72120704710B59A
:1024000088B0044620220021684601F071FF3CB1EB
:1024100020220021204601F06BFF002008B010BDF3
:102420002120FBE718B108B5FFF7E9FF08BD21201F
:102430007047000030B370B584B00E461D460446A8
:10244000E2B101920123029345F0005303930E4B36
:10245000236000236360A360E36101A92046FFF7C6
:102460002BFA31462046FFF731FA29462046FFF77E
:102470002DFA2046FFF7A4FF04B070BD002BE0D07A
:102480002120F9E7212070470000094370B110B501
:102490000446074B0360002343608360C361054922
:1024A000FFF714FA2046FFF78BFF10BD212070477D
:1024B00000000A43AD7E1EDE70470146002007E0A3
:1024C00000EB8000531C0B60137803EB40003038A6
:1024D0000A681378303BDBB2092BF1D970472DE93C
:1024E000F04F83B005460E4693461F46DDF830A0F8
:1024F0000D9CDDF838900F9B13F0030F19D1A04607
:102500000192C84509D202F1010B3B463146202019
:10251000A84708F101085A46F3E7DDF804B008E0DF
:10252000013C02F101083B4631461AF80400A84775
:102530004246002CF4D10F9B13F0020F03D110463A
:1025400003B0BDE8F08FA2EB0B034B45F7D2541C50
:102550003B4631462020A8472246F4E72DE9F043C8
:1025600085B00C9D0D9C9DF83890DDF83C80DDF821
:1025700040E0119F129E16F0020F21D17FB116F09C
:10258000010F0CD0B9F1000F02D116F00C0F06D0DC
:10259000013F04E04FF0300C05F804C001347445ED
:1025A00001D21F2CF6D916F0010F09D0BC4207D278
:1025B0001F2C05D84FF0300C05F804C00134F2E7A9
:1025C00016F0100F17D016F4806F04D11CB17445AB
:1025D00024D0BC4222D0B8F1100F2BD0B8F1100F8C
:1025E00033D0B8F1020F3BD01F2C04D84FF0300C81
:1025F00005F804C001341F2C07D8B9F1000F37D0FB
:102600004FF02D0C05F804C0013403960297019495
:102610000095FFF764FF05B0BDE8F083B4F1010C4D
:1026200006D0B8F1100F01D06446D4E7023CD2E7DF
:102630006446D0E716F0200FD0D11F2CCED84FF033
:10264000780C05F804C00134CEE716F0200FC8D08E
:102650001F2CC6D84FF0580C05F804C00134C3E74E
:102660001F2CC1D84FF0620C05F804C00134BBE741
:1026700016F0040F05D04FF02B0C05F804C0013400
:10268000C3E716F0080FC0D04FF0200C05F804C0C7
:102690000134BAE72DE9F04190B0169C189D1B9EBD
:1026A0000CB926F0100616F4806E16D064B34FF005
:1026B000000E12E00CF1300C5FFA8CFC0EF10107F9
:1026C0000DF14008C6440EF820CCB4FBF5FCAC423A
:1026D0001BD31F2F19D8BE466446B4FBF5FC05FB7F
:1026E0001C4C5FFA8CFCBCF1090FE3D916F0200FEB
:1026F00008D04127BC445FFA8CFCACF10A0C5FFAAD
:102700008CFCDBE76127F5E7274606961A9C0594C3
:10271000199C049403959DF85C400294019708ACC1
:102720000094FFF71BFF10B0BDE8F0812DE9F04FDA
:1027300095B009900A910B929B461E9D1F9E229F69
:10274000DDF88C80DDF898A055EA060301D12AF067
:10275000100A1AF480641DD055EA06032ED0002416
:1027600018E003F13002D2B204F1010914AB1C44A9
:1027700004F8202C3A4643462846314601F0F0FB47
:10278000BD4276EB08031BD3B9F11F0F18D84C4696
:1027900005460E463A4643462846314601F0E0FBE0
:1027A000D3B2092BDDD91AF0200F05D041221A44EB
:1027B000D2B20A3AD2B2D7E76122F8E74FF0000965
:1027C000CDF818A0259B0593249B049303979DF8AF
:1027D00080300293CDF804900CAB00935B460B9ACB
:1027E0000A990998FFF7BAFE15B0BDE8F08F00000E
:1027F0002DE9F04F2DED028B91B082460C469346A9
:102800001D46DDE91C231046194601F02FFB002868
:1028100000F007814FF0FF32B14BDDE91C0101F000
:102820004DFB002840F0FD804FF0FF326FF4801325
:10283000DDE91C0101F024FB002840F0F2800022B9
:102840000023DDE91C0101F01BFB002840F0FE80A5
:102850009DED1C7B8DED067B209B13F480630F9315
:1028600001D106231E93DDE906010246C1F30A5099
:10287000C1F31303904643F07F5949F44019A0F285
:10288000FF3001F021F884A3D3E9002301F086F89A
:1028900083A3D3E9002300F0CBFE06460F460022B7
:1028A000904B4046494600F0C1FE7FA3D3E9002388
:1028B00001F074F802460B463046394600F0B8FE87
:1028C00001F006FB064600F0FFFF8046894678A32C
:1028D000D3E9002301F062F80022834B00F0A8FE48
:1028E00001F0F6FA074674A3D3E9002340464946AF
:1028F00001F054F880468946384600F0E5FF70A3A1
:10290000D3E9002301F04AF802460B464046494607
:1029100000F08CFE8046894602460B4601F03EF8E8
:10292000CDE90A0107F2FF3700210022CDE90812A4
:102930003B0509930023089342464B4640464946CF
:1029400000F076FECDE90C0142464B4600204FF0E8
:10295000804100F06BFE804689460022634BDDE932
:102960000A0101F045F90022614B00F061FE0246C8
:102970000B46DDE90A0101F03BF900225D4B00F056
:1029800057FE02460B46DDE90A0101F031F9024625
:102990000B464046494600F04BFE02460B46DDE939
:1029A0000C0101F025F90022534B00F041FEDDE956
:1029B000082300F0F3FF8046894649EC188BDDE9D7
:1029C000062301F07BFA40B1013E0022484B40460D
:1029D000494601F00DF941EC180B06F16303C62BD3
:1029E0003FD80427209B13F4006F44D036A3D3E9CB
:1029F0000023DDE906894046494601F055FA0028E2
:102A00003FD033A3D3E900234046494601F038FACA
:102A1000002836D01E9BB34225DD9E1B731E1E93DD
:102A200023E0209B04931F9B03931E9B02939DED29
:102A30001C7B8DED007B2B465A462146504600F00C
:102A4000CFF811B0BDEC028BBDE8F08F9FED227B7B
:102A50008DED067B1C9B06931D9B03F100430793A2
:102A6000FAE60527BEE700231E93209B43F480630C
:102A7000209300273E461F9B9F423FD2A3EB0708AF
:102A80003EE01E9B002BF6D00F9B002BF3D01E9B2D
:102A9000013B1E93EFE700BFFB799F501344D33FE8
:102AA000B3C8608B288AC63F61436F63A787D23F54
:102AB00071A379094F930A401655B5BBB16B02401B
:102AC000EF39FAFE422EE63F2D431CEBE2361A3F69
:102AD0000000000080842E41000000000000000083
:102AE000FFFFEF7F0000F83F0000E03F00002C40B8
:102AF00000002440000018400000F03F4FF00008A4
:102B0000209B13F0020902D00FB14FF000083EB134
:102B100053EC182BDDE9060101F06AF8CDE9060156
:102B200000220023DDE91C0101F0AAF900283DD1B3
:102B3000209B23F400630493CDF80C801E9B02932A
:102B40009DED067B8DED007B2B465A462146504677
:102B500000F046F8002F3FF474AF209B13F0200FD5
:102B60002CD04FF0450C00F101082B4602462146BF
:102B70006046D04786EAE673A3EBE673052205922A
:102B8000013F0497002203920A220292F00F019063
:102B900000932B46424621465046FFF77BFDB9F194
:102BA000000F3FF44EAF02461F9F10E0DDE9060123
:102BB000024601F10043CDE90623B9E74FF0650C69
:102BC000D1E7561C2B4621462020D0473246A2EBA7
:102BD0000B03BB42F5D3104633E700BF00000000F3
:102BE0002DE9F04F2DED028B95B007900A9192469A
:102BF0009B46DDE92089229D42464B464046494698
:102C000001F034F900283FD04FF0FF326FF4801309
:102C10004046494601F034F9002844D14FF0FF32D4
:102C2000AD4B4046494601F049F900284AD1A6A3D8
:102C3000D3E900234046494601F040F9002859D124
:102C4000A3A3D3E900234046494601F019F900281F
:102C500050D1002200234046494601F011F90028D6
:102C600056D100230B93249B13F4806F5BD0002478
:102C70001F2C5AD8092D58D914AB2344302203F8FD
:102C8000202C013D0134F3E7249B0393239B029303
:102C900003230193914B00935B4652460A99079890
:102CA000FFF71DFC09E1249B0393239B029304235C
:102CB00001938B4B00935B4652460A990798FFF7A6
:102CC0000EFCFAE0249B13F004030FD0854A7BB17D
:102CD00004232499039123990291019300925B4666
:102CE00052460A990798FFF7FAFBE6E07E4AEEE7BC
:102CF0000323EEE7249B0493239B03930295CDE9E2
:102D000000895B4652460A990798FFF771FDD4E0A7
:102D100042464B460020002100F088FC8046894650
:102D200001230B939FE70625A1E74046494601F0A2
:102D3000CFF8064600F0C8FD02460B46404649461D
:102D400000F074FC694B03EBC50393ED008B53EC6F
:102D5000182B00F023FE02460B46CDE9082301F0B4
:102D6000DFF8074600F0A0FD02460B46DDE908014A
:102D700000F05CFC02460B46CDE9082300225C4BC8
:102D800001F09CF850B30137384600F08DFD024643
:102D90000B4651EC180B01F07DF808B10136002705
:102DA00055BB304600F090FD02460B464046494672
:102DB00000F03CFC0746884600224D4B01F060F8CD
:102DC00038B100224A4B3846414601F077F80028D6
:102DD0003ED016F0010F3BD0013639E00022444BC3
:102DE000DDE9080101F04CF80028D9D117B117F03E
:102DF000010FD5D00137D3E71F2C15D8013D3D4B2E
:102E0000A3FB0723DB08194603EB8303A7EB43036C
:102E1000621C303314A8044404F8203C092F02D962
:102E20000F461446E8E714461F2C09D86B1E3DB127
:102E300014AA2244302102F8201C1D460134F3E775
:102E40001F2C05D814AB23442E2203F8202C013468
:102E50001F2C15D8284A82FB0632F317C3EBA203B6
:102E60001A4603EB8303A6EB4303611C303314A81B
:102E7000044404F8203C16460AB10C46E8E70C4628
:102E8000249B03F00303012B38D01F2C08D80B9B85
:102E9000002B4FD014AB23442D2203F8202C0134F7
:102EA000249B0393239B029301940CAB00935B46FA
:102EB00052460A990798FFF712FB15B0BDEC028B3A
:102EC000BDE8F08FAFF300800000000065CDCD417C
:102ED0000000000065CDCDC1FFFFEF7F884D0000F1
:102EE0008C4D0000804D00007C4D0000984D00008E
:102EF0000000E03FCDCCCCCC67666666239BABB1CF
:102F00000B9B1BB9249B13F00C0F11D0239B013B8F
:102F10002393194605E014AB2344302203F8202CF8
:102F200001348C42B1D21F2CF5D9AEE72399F8E7D2
:102F30002399F6E7249B13F0040F06D014AB234427
:102F40002B2203F8202C0134AAE7249B13F0080F4E
:102F5000A6D014AB2344202203F8202C01349FE791
:102F60002DE9F04F8FB0074616460D93884600298D
:102F700000F0248300240D9B1878002800F02083A3
:102F8000252809D0651C334622464146B8470D9B8B
:102F900001330D932C46EEE701330D9300250D9B75
:102FA0001978A1F12002102A0AD8DFE802F03809C6
:102FB000093D0909090909090933092E09092900E7
:102FC000A1F13003DBB2092B33D92A2936D00023F3
:102FD0000A930D9B1A782E2A40D04FF0000B0D9AC1
:102FE0001378683B122B77D8DFE803F06476D3764A
:102FF0005676767676767676727676767676D800A9
:1030000045F0010501330D93C9E745F00205013391
:103010000D93C4E745F0040501330D93BFE745F078
:10302000080501330D93BAE745F0100501330D9300
:10303000B5E70DA8FFF741FA0A90CAE7189B1A1DD9
:1030400018921868002804DB0A900D9B01330D9339
:10305000BFE745F0020543420A93F6E745F4806571
:103060005A1C0D925A78A2F13003DBB2092B04D915
:103070002A2A07D04FF0000BB1E70DA8FFF71DFA81
:103080008346ACE7189B1A1D18921B6823EAE37B62
:103090000D9B01330D93A2E745F48071531C0D93F2
:1030A00052786C2A01D00D4616E045F44075013384
:1030B0000D9311E045F08001531C0D935278682A5E
:1030C00001D00D4608E045F0C00501330D9303E043
:1030D00045F4807501320D920D9B1878A0F12503FF
:1030E000532B00F26182DFE813F054025F025F02AB
:1030F0005F025F025F025F025F025F025F025F02C8
:103100005F025F025F025F025F025F025F025F02B7
:103110005F025F025F025F025F025F025F025F02A7
:103120005F025F025F025F025F027401540174017B
:103130005F025F025F025F025F025F025F025F0287
:103140005F025F025F025F025F025F025F025F0277
:103150005E005F025F025F025F025F025F025F026A
:103160005F025F025E009B015E0074015401740106
:103170005F025E005F025F025F025F025F025E004D
:1031800039025F025F02D4015F025E005F025F02EC
:103190005E0045F4007501320D929DE745F480759F
:1031A00001320D9298E7782809D058283AD06F2834
:1031B0003AD062283AD025F010050A2300E0102307
:1031C000582835D0692803D0642801D025F00C0593
:1031D00015F4806F01D025F0010569282BD06428F3
:1031E00029D015F4007F40F0968015F4807F40F0E0
:1031F000AE8015F0400F00F0BF80189A111D189195
:10320000127805950A990491CDF80CB00293002329
:10321000019300923346224641463846FFF73AFA78
:10322000044629E01023CBE70823C9E70223C7E7B8
:1032300045F02005C6E715F4007F21D115F4807F05
:1032400042D115F0400F58D0189A111D18911278DC
:1032500082EAE271A1EBE27105950A980490CDF83B
:103260000CB00293D20F01920091334622464146A0
:103270003846FFF70FFA04460D9B01330D937AE6AB
:10328000189A073222F0070202F1080118915168DA
:1032900012680846002913DB08950A9D0795CDF8AA
:1032A00018B0049300230593C90F02910092019076
:1032B0003346224641463846FFF738FA0446DBE7F4
:1032C000524261EB4100E7E7189A111D189112680C
:1032D00082EAE271A1EBE27105950A980490CDF8BB
:1032E0000CB00293D20F0192009133462246414620
:1032F0003846FFF7CFF90446BEE715F0800F05D03A
:10330000189A111D1891B2F90020A1E7189A111D01
:10331000189112689CE7189A073222F0070202F10E
:103320000801189108950A990791CDF818B0002165
:10333000049305910291D2E90023CDE9002333469D
:10334000224641463846FFF7F1F9044694E7189AB9
:10335000111D189105950A990491CDF80CB00293AE
:1033600000230193136800933346224641463846B2
:10337000FFF790F904467FE715F0800F04D0189A04
:10338000111D189112883CE7189A111D18911268A6
:1033900037E746281AD0189B073323F0070303F1B9
:1033A0000802189204950A9A0392CDF808B0D3E95E
:1033B0000023CDE900233346224641463846FFF735
:1033C0000FFC04460D9B01330D93D4E545F0200519
:1033D000E1E7672801D0472801D145F40065452879
:1033E00001D0472801D145F02005189B073323F071
:1033F000070303F10802189204950A9A0392CDF884
:1034000008B0D3E90023CDE90023334622464146E4
:103410003846FFF7EDF904460D9B01330D93AAE5FD
:1034200015F002051FD04FF001091898031D1893DD
:1034300004F1010A3346224641460078B847BDB937
:103440000D9B01330D93544695E502F1010A334675
:1034500041462020B8474B46524603F101099B459F
:10346000F3D81446E1E70123DDF828B02246F4E75B
:103470005246DDF828A006E0551C33464146202080
:10348000B847A1462A4609F10104CA45F4D8924634
:10349000D6E7189B1A1D1892D3F800A0BBF1000FB5
:1034A0001ED14FF0FF33D14602E009F10109134666
:1034B00099F8002012B15A1E002BF6D1A9EB0A0987
:1034C00015F480630B9302D0D94528BFD94615F077
:1034D00002030C9306D022465C46B3460B9E1DE0C9
:1034E0005B46E0E722460A9C4B4607E002F10109F1
:1034F000334641462020B8472B464A465D1C9C4235
:10350000F4D8A9465C46B3460B9E07E01C460AF178
:10351000010A551C5B464146B8472A469AF8000006
:1035200020B1002EF3D0631E002CEFD114465E466E
:103530000C9B1BB90D9B01330D931CE5DDF828A0F6
:1035400006E0551C334641462020B847A1462A468E
:1035500009F10104CA45F4D81446EBE745F021050A
:10356000189B1A1D18921B68059508220492CDF825
:103570000CB01022029200220192009333462246A0
:1035800041463846FFF786F804460D9B01330D93FC
:10359000F1E4651C3346224641462520B8470D9B81
:1035A00001330D932C46E6E4651C33462246414622
:1035B000B8470D9B01330D932C46DCE4074FD9E44B
:1035C000B44201D3721E00E0224633464146002039
:1035D000B84720460FB0BDE8F08F00BFB924000007
:1035E00000B9704708B500F017F808BD0FB400B572
:1035F00085B006AA52F8043B039200924FF0FF32C6
:1036000002A90448FFF7ACFC05B05DF804EB04B078
:10361000704700BFE135000008B501460020FEF705
:10362000BCFB08BD81F0004102E000BF83F0004315
:1036300030B54FEA41044FEA430594EA050F08BF4D
:1036400090EA020F1FBF54EA000C55EA020C7FEA11
:10365000645C7FEA655C00F0E2804FEA5454D4EB8E
:103660005555B8BF6D420CDD2C4480EA020281EA58
:10367000030382EA000083EA010180EA020281EA90
:103680000303362D88BF30BD11F0004F4FEA0131E2
:103690004FF4801C4CEA113102D0404261EB4101F1
:1036A00013F0004F4FEA03334CEA133302D0524277
:1036B00063EB430394EA050F00F0A780A4F1010433
:1036C000D5F1200E0DDB02FA0EFC22FA05F280186D
:1036D00041F1000103FA0EF2801843FA05F3594153
:1036E0000EE0A5F120050EF1200E012A03FA0EFCD2
:1036F00028BF4CF0020C43FA05F3C01851EBE371FC
:1037000001F0004507D54FF0000EDCF1000C7EEB18
:1037100000006EEB0101B1F5801F1BD3B1F5001F56
:103720000CD349085FEA30004FEA3C0C04F1010475
:103730004FEA445212F5800F80F09A80BCF1004F9E
:1037400008BF5FEA500C50F1000041EB045141EA20
:10375000050130BD5FEA4C0C404141EB0101013CE9
:1037600028BFB1F5801FE9D291F0000F04BF0146D8
:103770000020B1FA81F308BF2033A3F10B03B3F1AA
:1037800020020CDA0C3208DD02F1140CC2F10C023A
:1037900001FA0CF021FA02F10CE002F11402D8BF98
:1037A000C2F1200C01FA02F120FA0CFCDCBF41EA64
:1037B0000C019040E41AA2BF01EB0451294330BD33
:1037C0006FEA04041F3C1CDA0C340EDC04F1140410
:1037D000C4F1200220FA04F001FA02F340EA0300E7
:1037E00021FA04F345EA030130BDC4F10C04C4F12D
:1037F000200220FA02F001FA04F340EA030029460D
:1038000030BD21FA04F0294630BD94F0000F83F456
:10381000801306BF81F480110134013D4EE77FEA39
:10382000645C18BF7FEA655C29D094EA050F08BF85
:1038300090EA020F05D054EA000C04BF1946104666
:1038400030BD91EA030F1EBF0021002030BD5FEAAA
:10385000545C05D14000494128BF41F0004130BDD2
:1038600014F580043CBF01F5801130BD01F0004526
:1038700045F0FE4141F470014FF0000030BD7FEA99
:10388000645C1ABF194610467FEA655C1CBF0B4694
:10389000024650EA013406BF52EA033591EA030FAB
:1038A00041F4002130BD00BF90F0000F04BF0021A3
:1038B000704730B54FF4806404F132044FF00005D6
:1038C0004FF0000150E700BF90F0000F04BF00214F
:1038D000704730B54FF4806404F1320410F00045B5
:1038E00048BF40424FF000013EE700BF42004FEAB0
:1038F000E2014FEA31014FEA02701FBF12F07F432D
:1039000093F07F4F81F06051704732F07F4208BFE3
:10391000704793F07F4F04BF41F40021704730B5EA
:103920004FF4607401F0004521F000411CE700BF36
:1039300050EA010208BF704730B54FF000050AE0B9
:1039400050EA010208BF704730B511F0004502D5BA
:10395000404261EB41014FF4806404F132045FEABC
:10396000915C3FF4D8AE4FF003025FEADC0C18BF65
:1039700003325FEADC0C18BF033202EBDC02C2F157
:10398000200300FA03FC20FA02F001FA03FE40EAE9
:103990000E0021FA02F11444BDE600BF70B54FF0ED
:1039A000FF0C4CF4E06C1CEA11541DBF1CEA1355CB
:1039B00094EA0C0F95EA0C0F00F0DEF82C4481EA33
:1039C000030621EA4C5123EA4C5350EA013518BF53
:1039D00052EA033541F4801143F4801338D0A0FB40
:1039E00002CE4FF00005E1FB02E506F00042E0FBED
:1039F00003E54FF00006E1FB03569CF0000F18BFF3
:103A00004EF0010EA4F1FF04B6F5007F64F540749A
:103A100004D25FEA4E0E6D4146EB060642EAC6212D
:103A200041EA55514FEAC52040EA5E504FEACE2E9A
:103A3000B4F1FD0C88BFBCF5E06F1ED8BEF1004F9D
:103A400008BF5FEA500E50F1000041EB045170BD19
:103A500006F0004646EA010140EA020081EA03015D
:103A6000B4EB5C04C2BFD4EB0C0541EA045170BD59
:103A700041F480114FF0000E013C00F3AB8014F1D3
:103A8000360FDEBF002001F0004170BDC4F100041C
:103A9000203C35DA0C341BDC04F11404C4F120059D
:103AA00000FA05F320FA04F001FA05F240EA0200F8
:103AB00001F0004221F0004110EBD37021FA04F62E
:103AC00042EB06015EEA430E08BF20EAD37070BDE8
:103AD000C4F10C04C4F1200500FA04F320FA05F047
:103AE00001FA04F240EA020001F0004110EBD37049
:103AF00041F100015EEA430E08BF20EAD37070BDB9
:103B0000C4F1200500FA05F24EEA020E20FA04F391
:103B100001FA05F243EA020321FA04F001F0004140
:103B200021FA04F220EA020000EBD3705EEA430EB1
:103B300008BF20EAD37070BD94F0000F0FD101F0E0
:103B40000046400041EB010111F4801F08BF013C19
:103B5000F7D041EA060195F0000F18BF704703F057
:103B60000046520043EB030313F4801F08BF013DDE
:103B7000F7D043EA0603704794EA0C0F0CEA13559A
:103B800018BF95EA0C0F0CD050EA410618BF52EA54
:103B90004306D1D181EA030101F000414FF000005A
:103BA00070BD50EA410606BF1046194652EA430668
:103BB00019D094EA0C0F02D150EA013613D195EADC
:103BC0000C0F05D152EA03361CBF104619460AD124
:103BD00081EA030101F0004141F0FE4141F470012E
:103BE0004FF0000070BD41F0FE4141F4780170BD1E
:103BF00070B54FF0FF0C4CF4E06C1CEA11541DBF83
:103C00001CEA135594EA0C0F95EA0C0F00F0A7F884
:103C1000A4EB050481EA030E52EA03354FEA0131B1
:103C200000F088804FEA03334FF0805545EA1313C4
:103C300043EA12634FEA022245EA111545EA10658C
:103C40004FEA00260EF000419D4208BF964244F123
:103C5000FD0404F5407402D25B084FEA3202B61A42
:103C600065EB03055B084FEA32024FF480104FF416
:103C7000002CB6EB020E75EB030E22BFB61A75468A
:103C800040EA0C005B084FEA3202B6EB020E75EB1D
:103C9000030E22BFB61A754640EA5C005B084FEA85
:103CA0003202B6EB020E75EB030E22BFB61A754652
:103CB00040EA9C005B084FEA3202B6EB020E75EB5D
:103CC000030E22BFB61A754640EADC0055EA060E1E
:103CD00018D04FEA051545EA16754FEA06164FEA61
:103CE000C30343EA52734FEAC2025FEA1C1CC0D10D
:103CF00011F4801F0BD141EA00014FF000004FF09A
:103D0000004CB6E711F4801F04BF01430020B4F15A
:103D1000FD0C88BFBCF5E06F3FF6AFAEB5EB030C12
:103D200004BFB6EB020C5FEA500C50F1000041EB0F
:103D3000045170BD0EF0004E4EEA113114EB5C04DC
:103D4000C2BFD4EB0C0541EA045170BD41F48011AF
:103D50004FF0000E013C90E645EA060E8DE60CEAB7
:103D6000135594EA0C0F08BF95EA0C0F3FF43BAFD4
:103D700094EA0C0F0AD150EA01347FF434AF95EA8B
:103D80000C0F7FF425AF104619462CE795EA0C0F6F
:103D900006D152EA03353FF4FDAE1046194622E73C
:103DA00050EA410618BF52EA43067FF4C5AE50EA16
:103DB00041047FF40DAF52EA43057FF4EBAE12E706
:103DC0004FF0FF3C06E000BF4FF0010C02E000BFE7
:103DD0004FF0010C4DF804CD4FEA410C7FEA6C5CCA
:103DE0004FEA430C18BF7FEA6C5C1BD001B050EA6D
:103DF000410C0CBF52EA430C91EA030F02BF90EA58
:103E0000020F0020704710F1000F91EA030F58BF16
:103E1000994208BF90422CBFD8176FEAE37040F078
:103E2000010070474FEA410C7FEA6C5C02D150EA16
:103E3000013C07D14FEA430C7FEA6C5CD6D152EAD1
:103E4000033CD3D05DF8040B704700BF8446104696
:103E500062468C461946634600E000BF01B5FFF795
:103E6000B7FF002848BF10F1000F01BD4DF808ED65
:103E7000FFF7F4FF0CBF012000205DF808FB00BF36
:103E80004DF808EDFFF7EAFF34BF012000205DF890
:103E900008FB00BF4DF808EDFFF7E0FF94BF0120DD
:103EA00000205DF808FB00BF4DF808EDFFF7CEFFDE
:103EB00094BF012000205DF808FB00BF4DF808ED1D
:103EC000FFF7C4FF34BF012000205DF808FB00BFEE
:103ED0004FEA410212F5001215D211D56FF4787332
:103EE000B3EB625212D94FEAC12343F0004343EAD5
:103EF000505311F0004F23FA02F018BF40427047B0
:103F00004FF00000704750EA013005D111F0004039
:103F100008BF6FF0004070474FF00000704700BFCF
:103F20004A0011D212F5001211D20DD56FF4787338
:103F3000B3EB62520ED44FEAC12343F0004343EA8D
:103F4000505323FA02F070474FF00000704750EAD8
:103F5000013002D14FF0FF3070474FF00000704742
:103F600053B94AB9002908BF00281CBF4FF0FF31E0
:103F70004FF0FF3000F082B9ADF1080C6DE904CECE
:103F800000F006F8DDF804E0DDE9022304B0704734
:103F90002DE9F04F099D04460F46002B48D18A4277
:103FA000944661D9B2FA82F343B1C3F120019F4034
:103FB00002FA03FC9C4020FA01F10F434FEA1C4136
:103FC0001FFA8CFE220CB7FBF1F601FB167706FBFD
:103FD0000EF042EA0742904208D91CEB020206F1B9
:103FE000FF3702D2904200F237813E46121AA4B245
:103FF000B2FBF1F001FB102200FB0EFE44EA02448A
:10400000A64508D91CEB040400F1FF3202D2A645F4
:1040100000F21C81104640EA0640A4EB0E04002684
:104020001DB1DC400023C5E900433146BDE8F08FF7
:104030008B4209D9002D00F0FD800026C5E9000162
:1040400030463146BDE8F08FB3FA83F6002E4BD1EF
:104050008B42C0F0F280824240F2EF803046002D69
:10406000E3D0C5E90047E0E702B9FFDEB2FA82F328
:10407000002B40F09D80891A4FEA124E97B201261C
:10408000200CB1FBFEF20EFB121140EA014107FBCE
:1040900002F088420FD91CEB010102F1FF382CBF5E
:1040A0004FF001094FF00009884203D9B9F1000F20
:1040B00000F0CF804246091AA4B2B1FBFEF00EFB1D
:1040C000101100FB07F744EA0144A74208D91CEB92
:1040D000040400F1FF3102D2A74200F2B480084686
:1040E000E41B40EA02409BE7C6F12007B34001FA17
:1040F00006F422FA07FCF940B2404CEA030C20FA1D
:1041000007F34FEA1C491C431FFA8CFE00FA06F322
:10411000200CB1FBF9F809FB181140EA014108FB3A
:104120000EF088420FD91CEB010108F1FF3A2CBFB9
:104130004FF0010B4FF0000B884203D9BBF1000F89
:1041400000F08D80D046091AA4B2B1FBF9F009FB4A
:10415000101100FB0EFE44EA01418E4507D91CEB0D
:10416000010100F1FF3401D28E457FD8204640EA9C
:104170000840A1EB0E01A0FB029841454C46C64603
:1041800002D306D14B4504D20138B9EB020468EBE7
:104190000C0E002D70D01A1B61EB0E0122FA06F3F3
:1041A00001FA07F7F14000261F43C5E900713CE71B
:1041B00002FA03FCC3F1200001FA03F221FA00F62F
:1041C0004FEA1C4E24FA00F11FFA8CF79C40114371
:1041D000B6FBFEF00A0C0EFB106642EA064200FB3C
:1041E00007F696420ED91CEB020200F1FF382CBFF5
:1041F0004FF001094FF00009964202D9B9F1000FC2
:1042000031D04046921B89B2B2FBFEF60EFB16225D
:1042100041EA024106FB07F28A4207D91CEB010181
:1042200006F1FF3801D28A4223D84646891A46EA67
:10423000004625E72E462846F7E6841A61EB03037D
:1042400001201F460BE76444023849E76444023802
:10425000E1E6023A61442EE7023E6244C6E6A8F176
:10426000020861446FE702386244CBE702386144D8
:104270007DE7023E6144D9E72E46D6E6704700BF8F
:1042800008B5074B044613B1002100E000BF054B01
:104290001868836A03B198472046FDF78AFD00BF7E
:1042A00000000000E84D000070B50D4D00260D4CDB
:1042B000641BA410A64209D10B4D00260B4C00F044
:1042C0001FF8641BA410A64205D170BD55F8043B2D
:1042D00001369847EEE755F8043B01369847F2E778
:1042E000D8150020D8150020D8150020DC15002096
:1042F00002440346934200D1704703F8011BF9E7DB
:10430000F8B500BFF8BC08BC9E467047F8B500BFC2
:10431000F8BC08BC9E4670470A2573202D20436FC9
:1043200072652072756E6E696E6720617420256CEF
:1043300075206B487A2E0A0020202E205345206DD0
:10434000616E6167657220696E697469616C697A12
:104350006174696F6E2E2E2E200000000A20202E20
:104360002045726173696E672075736572206461A0
:1043700074612073656374696F6E2E2E2E200000A9
:1043800020202B20436865636B20616C6C20646186
:10439000746120696E207573657220646174612098
:1043A00073656374696F6E206172652065726173F5
:1043B00065642E2E2E2000004661696C65640A003B
:1043C0004F4B0A000A20202E2057726974696E67CD
:1043D00020256C7520746F2075736572206461747C
:1043E000612E2E2E2000000020202B2052656164BB
:1043F000206261636B20746865206461746120666B
:10440000726F6D2075736572206461746120746FC2
:1044100020636F6D706172652E2E2E2000000000EB
:104420000A20202E205345206D616E616765722041
:104430006465696E697469616C697A6174696F6ECB
:104440002E2E2E2000000000534C5F535441545533
:10445000535F4F4B000000004661696C6564202D7E
:104460002030782530386C5800000000202863790F
:10447000636C65733A20256C752074696D653A200C
:10448000256C75207573290A0000000020286379C7
:10449000636C65733A20256C752074696D653A20EC
:1044A000256C75206D73290A000000002E2E2F61E7
:1044B00075746F67656E2F736C5F696F7374726567
:1044C000616D5F696E69745F75736172745F696E47
:1044D0007374616E6365732E630000000500000055
:1044E0000000000000C201000005000000100000F4
:1044F00000000000000000000B0C00005816002017
:104500002000000000010000534C5F5354415455FB
:10451000535F0000257330782530346C580000005C
:1045200025732573257300004F4B00004641494C0D
:1045300000000000494E56414C49445F53544154D9
:10454000450000004E4F545F524541445900000061
:104550004255535900000000494E5F50524F475298
:104560004553530041424F525400000054494D45B9
:104570004F5554005045524D495353494F4E00003A
:10458000574F554C445F424C4F434B0049444C45B8
:104590000000000049535F57414954494E4700000D
:1045A0004E4F4E455F57414954494E470000000069
:1045B00053555350454E4445440000004E4F545F00
:1045C000415641494C41424C450000004E4F545F1A
:1045D000535550504F52544544000000494E4954E1
:1045E00049414C495A4154494F4E00004E4F545F87
:1045F000494E495449414C495A454400414C524561
:104600004144595F494E495449414C495A45440037
:1046100044454C4554454400495352004E45545777
:104620004F524B5F555000004E4554574F524B5F11
:10463000444F574E000000004E4F545F4A4F494EC2
:10464000454400004E4F5F424541434F4E530000EA
:10465000414C4C4F434154494F4E5F4641494C45B4
:10466000440000004E4F5F4D4F52455F5245534F3F
:104670005552434500000000454D5054590000007C
:1046800046554C4C00000000574F554C445F4F5668
:104690004552464C4F5700004841535F4F564552D4
:1046A000464C4F57454400004F574E4552534849DA
:1046B0005000000049535F4F574E45520000000024
:1046C000494E56414C49445F504152414D45544535
:1046D000520000004E554C4C5F504F494E544552CD
:1046E00000000000494E56414C49445F434F4E463E
:1046F000494755524154494F4E000000494E5641DA
:104700004C49445F4D4F444500000000494E56411E
:104710004C49445F48414E444C450000494E564187
:104720004C49445F5459504500000000494E5641E1
:104730004C49445F494E444558000000494E56419B
:104740004C49445F52414E4745000000494E564196
:104750004C49445F4B455900494E56414C49445FD2
:1047600043524544454E5449414C5300494E5641ED
:104770004C49445F434F554E54000000494E56414A
:104780004C49445F5349474E41545552450000003F
:104790004E4F545F464F554E44000000414C524529
:1047A0004144595F4558495354530000494F000054
:1047B000494F5F54494D454F555400005452414EA6
:1047C000534D4954000000005452414E534D49543A
:1047D0005F554E444552464C4F5700005452414E8F
:1047E000534D49545F494E434F4D504C455445003D
:1047F0005452414E534D49545F42555359000000A5
:1048000052454345495645004F424A4543545F523D
:10481000454144004F424A4543545F57524954452D
:10482000000000004D4553534147455F544F4F5FD3
:104830004C4F4E4700000000454550524F4D5F4DD4
:1048400046475F56455253494F4E5F4D49534D4180
:1048500054434800454550524F4D5F535441434BDC
:104860005F56455253494F4E5F4D49534D41544356
:1048700048000000464C4153485F57524954455F39
:10488000494E48494249544544000000464C415372
:10489000485F5645524946595F4641494C45440098
:1048A000464C4153485F50524F4752414D5F46413D
:1048B000494C454400000000464C4153485F455276
:1048C0004153455F4641494C454400004D41435FDB
:1048D0004E4F5F44415441004D41435F4E4F5F4155
:1048E000434B5F5245434549564544004D41435F64
:1048F000494E4449524543545F54494D454F5554E0
:10490000000000004D41435F554E4B4E4F574E5FE8
:104910004845414445525F54595045004D41435F1D
:1049200041434B5F4845414445525F54595045000F
:104930004D41435F434F4D4D414E445F5452414EB4
:10494000534D49545F4641494C55524500000000C3
:10495000434C495F53544F524147455F4E564D5F5C
:104960004F50454E5F4552524F52000053454355FC
:10497000524954595F494D4147455F434845434B70
:1049800053554D5F4552524F520000005345435519
:10499000524954595F444543525950545F4552520D
:1049A0004F520000434F4D4D414E445F49535F49C4
:1049B0004E56414C49440000434F4D4D414E445FDB
:1049C000544F4F5F4C4F4E4700000000434F4D4D3A
:1049D000414E445F494E434F4D504C4554450000B5
:1049E0004255535F4552524F520000004343415FCE
:1049F0004641494C555245004D41435F5343414E5A
:104A00004E494E47000000004D41435F494E434F21
:104A100052524543545F5343414E5F5459504500F1
:104A2000494E56414C49445F4348414E4E454C5FC8
:104A30004D41534B000000004241445F5343414EFF
:104A40005F4455524154494F4E0000003414002039
:104A50000000000000000000000000000000000056
:104A60000000000000000000000000000000000046
:104A70000000000000000000000000000000000036
:104A80000000000000000000000000000000000026
:104A9000000000000000000000000000A84400002A
:104AA000A8440000A8440000A8440000A844000056
:104AB000A8440000A8440000A8440000A844000046
:104AC000A8440000A8440000A8440000A844000036
:104AD000A8440000A8440000A8440000A844000026
:104AE000A8440000A8440000A844000050000000B2
:104AF00000000000000000000000000000000000B6
:104B00002F686F6D652F7361672F53696D706C69C6
:104B10006369747953747564696F2F53444B732FB1
:104B20006765636B6F5F73646B2F706C6174666F26
:104B3000726D2F656D6C69622F7372632F656D5F87
:104B4000636D752E630000002F686F6D652F7361B4
:104B5000672F53696D706C696369747953747564F8
:104B6000696F2F53444B732F6765636B6F5F73647B
:104B70006B2F706C6174666F726D2F656D6C6962FE
:104B80002F7372632F656D5F6770696F2E6300000E
:104B90002F686F6D652F7361672F53696D706C6936
:104BA0006369747953747564696F2F53444B732F21
:104BB0006765636B6F5F73646B2F2F706C617466D6
:104BC0006F726D2F656D6C69622F696E632F656DF5
:104BD0005F6275732E6800002F686F6D652F7361BB
:104BE000672F53696D706C69636974795374756468
:104BF000696F2F53444B732F6765636B6F5F7364EB
:104C00006B2F2F706C6174666F726D2F656D6C69A0
:104C1000622F696E632F656D5F6770696F2E680024
:104C20002F686F6D652F7361672F53696D706C69A5
:104C30006369747953747564696F2F53444B732F90
:104C40006765636B6F5F73646B2F706C6174666F05
:104C5000726D2F656D6C69622F7372632F656D5F66
:104C600073652E63000000002F686F6D652F736100
:104C7000672F53696D706C696369747953747564D7
:104C8000696F2F53444B732F6765636B6F5F73645A
:104C90006B2F706C6174666F726D2F656D6C6962DD
:104CA0002F7372632F656D5F75736172742E63006D
:104CB0002F686F6D652F7361672F53696D706C6915
:104CC0006369747953747564696F2F53444B732F00
:104CD0006765636B6F5F73646B2F706C6174666F75
:104CE000726D2F736572766963652F696F73747265
:104CF00065616D2F7372632F736C5F696F7374726C
:104D000065616D5F756172742E6300002F686F6D51
:104D1000652F7361672F53696D706C69636974796E
:104D200053747564696F2F53444B732F6765636BBE
:104D30006F5F73646B2F7574696C2F74686972642C
:104D40005F70617274792F63727970746F2F736CF6
:104D50005F636F6D706F6E656E742F73655F6D61ED
:104D60006E616765722F7372632F736C5F73655F1B
:104D70006D616E616765722E63000000666E69008A
:104D8000666E692B000000006E616E00666E692D14
:104D90000000000000000000000000000000F03FE4
:104DA0000000000000002440000000000000594006
:104DB0000000000000408F40000000000088C34059
:104DC00000000000006AF8400000000080842E41CE
:104DD00000000000D01263410000000084D797411A
:0C4DE0000000000065CDCD4178150020DA
:084DEC0088B3FF7F0100000005
:0C4DF400004E00000010002078010000BC
:104E0000010000005345204D616E616765722055B9
:104E10007365722044617461204578616D706C65C2
:104E200000000000FFFFFFFFFFFFFFFFFFFFFFFF8E
:104E3000FFFFFFFF4E616275204361736100FFFF5A
:104E4000FFFFFFFF59656C6C6F772076312E3300C2
:104E5000FFFFFFFFFFFFFFFFFFFFFFFFFFFFFFFF62
:104E6000FFFFFFFFFFFFFFFFFFFFFFFFFFFFFFFF52
:104E7000FFFFFFFFFFFFFFFFFFFFFFFFFFFFFFFF42
:104E8000FFFFFFFFFFFFFFFFFFFFFFFFFFFFFFFF32
:10522000FFFFFFFFC0EA2101C0EA210100F04902AF
:1052300000800000284500002C4500003445000097
:1052400044450000504500005845000064450000FA
:105250006C45000074450000804500008C4500004E
:1052600094450000A0450000B0450000BC4500008A
:10527000CC450000DC450000EC450000FC4500008A
:1052800010460000184600001C460000284600009A
:1052900038460000444600005046000064460000C6
:1052A00078460000804600008846000098460000CE
:1052B000A8460000B4460000C0460000D4460000E6
:1052C000E4460000FC4600000C4700001C470000BC
:1052D0002C4700003C4700004C47000058470000A6
:1052E0006C4700007C470000904700009C4700008E
:1052F000AC470000B0470000BC470000C8470000B2
:10530000DC470000F04700000048000008480000AB
:1053100014480000244800003848000054480000A9
:10532000744800008C480000A0480000B848000005
:10533000CC480000D8480000EC48000004490000B8
:105340001C49000030490000504900006C49000031
:105350008C490000A4490000B8490000CC49000075
:10536000E0490000EC490000F8490000084A00004C
:10537000204A0000384A0000000000000000000041
:10538000000000000000000000000000000000001D
:10539000000000000000000000000000000000000D
:1053A00000000000000000000000000000000000FD
:1053B00000000000000000000000000000000000ED
:1053C00000000000000000000000000000000000DD
:1053D000000000000000000059010000350100003D
:040000030000079161
:00000001FF
